{"abi":[{"type":"function","name":"AURA","inputs":[],"outputs":[{"name":"","type":"address","internalType":"address"}],"stateMutability":"view"},{"type":"function","name":"AURA_BOOSTER","inputs":[],"outputs":[{"name":"","type":"address","internalType":"address"}],"stateMutability":"view"},{"type":"function","name":"BAL","inputs":[],"outputs":[{"name":"","type":"address","internalType":"address"}],"stateMutability":"view"},{"type":"function","name":"auraPid","inputs":[],"outputs":[{"name":"","type":"uint256","internalType":"uint256"}],"stateMutability":"view"},{"type":"function","name":"auraRewardPool","inputs":[],"outputs":[{"name":"","type":"address","internalType":"contract IBaseRewardPool"}],"stateMutability":"view"},{"type":"function","name":"claim","inputs":[],"outputs":[],"stateMutability":"nonpayable"},{"type":"function","name":"deposit","inputs":[{"name":"_amount","type":"uint256","internalType":"uint256"},{"name":"_minReceiveAmount","type":"uint256","internalType":"uint256"}],"outputs":[],"stateMutability":"nonpayable"},{"type":"function","name":"healthFactor","inputs":[],"outputs":[{"name":"","type":"uint256","internalType":"uint256"}],"stateMutability":"view"},{"type":"function","name":"initialize","inputs":[{"name":"_poolId","type":"bytes32","internalType":"bytes32"},{"name":"_multiPoolStrategy","type":"address","internalType":"address"},{"name":"_auraPid","type":"uint256","internalType":"uint256"}],"outputs":[],"stateMutability":"nonpayable"},{"type":"function","name":"isHealthy","inputs":[],"outputs":[{"name":"","type":"bool","internalType":"bool"}],"stateMutability":"view"},{"type":"function","name":"lpBalance","inputs":[],"outputs":[{"name":"lpBal","type":"uint256","internalType":"uint256"}],"stateMutability":"view"},{"type":"function","name":"multiPoolStrategy","inputs":[],"outputs":[{"name":"","type":"address","internalType":"address"}],"stateMutability":"view"},{"type":"function","name":"pool","inputs":[],"outputs":[{"name":"","type":"address","internalType":"address"}],"stateMutability":"view"},{"type":"function","name":"poolId","inputs":[],"outputs":[{"name":"","type":"bytes32","internalType":"bytes32"}],"stateMutability":"view"},{"type":"function","name":"rewardTokens","inputs":[{"name":"","type":"uint256","internalType":"uint256"}],"outputs":[{"name":"","type":"address","internalType":"address"}],"stateMutability":"view"},{"type":"function","name":"setHealthFactor","inputs":[{"name":"_newHealthFactor","type":"uint256","internalType":"uint256"}],"outputs":[],"stateMutability":"nonpayable"},{"type":"function","name":"storedUnderlyingBalance","inputs":[],"outputs":[{"name":"","type":"uint256","internalType":"uint256"}],"stateMutability":"view"},{"type":"function","name":"tokenIndex","inputs":[],"outputs":[{"name":"","type":"uint256","internalType":"uint256"}],"stateMutability":"view"},{"type":"function","name":"totalClaimable","inputs":[],"outputs":[{"name":"","type":"tuple[]","internalType":"struct AuraAdapterBase.RewardData[]","components":[{"name":"token","type":"address","internalType":"address"},{"name":"amount","type":"uint256","internalType":"uint256"}]}],"stateMutability":"view"},{"type":"function","name":"underlyingBalance","inputs":[],"outputs":[{"name":"","type":"uint256","internalType":"uint256"}],"stateMutability":"view"},{"type":"function","name":"underlyingToken","inputs":[],"outputs":[{"name":"","type":"address","internalType":"contract IERC20"}],"stateMutability":"view"},{"type":"function","name":"vault","inputs":[],"outputs":[{"name":"","type":"address","internalType":"contract IBalancerVault"}],"stateMutability":"view"},{"type":"function","name":"withdraw","inputs":[{"name":"_amount","type":"uint256","internalType":"uint256"},{"name":"_minReceiveAmount","type":"uint256","internalType":"uint256"}],"outputs":[],"stateMutability":"nonpayable"},{"type":"event","name":"Initialized","inputs":[{"name":"version","type":"uint8","indexed":false,"internalType":"uint8"}],"anonymous":false},{"type":"error","name":"InvalidHealthFactor","inputs":[]},{"type":"error","name":"Unauthorized","inputs":[]}],"bytecode":{"object":"0x608060405234801561001057600080fd5b5061340a806100206000396000f3fe608060405234801561001057600080fd5b506004361061018c5760003560e01c80634e71d92d116100e3578063c45584631161008c578063e2bbb15811610066578063e2bbb15814610301578063e402080414610314578063fbfa77cf1461032c57600080fd5b8063c4558463146102dc578063c7e213d5146102e5578063d55f9273146102f857600080fd5b80637bb7bed1116100bd5780637bb7bed11461029b5780638dae8422146102ae578063beeadf16146102c157600080fd5b80634e71d92d1461028257806359356c5c1461028a578063619002ce1461029257600080fd5b80632495a599116101455780633e0dc34e1161011f5780633e0dc34e14610251578063441a3e701461025a5780634838ed191461026d57600080fd5b80632495a5991461020e57806331111708146102215780633829aea31461023657600080fd5b806316f0115b1161017657806316f0115b146101dc5780632059f615146101ef57806322841f011461020557600080fd5b8062c362111461019157806307cab83c146101c1575b600080fd5b6003546101a4906001600160a01b031681565b6040516001600160a01b0390911681526020015b60405180910390f35b6101a473a57b8d98dae62b26ec3bcc4a365338157060b23481565b6005546101a4906001600160a01b031681565b6101f761033f565b6040519081526020016101b8565b6101f7600b5481565b6004546101a4906001600160a01b031681565b61023461022f366004612d93565b6103ca565b005b6101a473c0c293ce456ff0ed870add98a0828dd4d2903dbf81565b6101f760015481565b610234610268366004612dac565b61044f565b6102756108c7565b6040516101b89190612dce565b610234610bdd565b6101f7610f8c565b6101f760075481565b6101a46102a9366004612d93565b611462565b6009546101a4906001600160a01b031681565b6101a473ba100000625a3754423978a60c9317c58a424e3d81565b6101f7600a5481565b6102346102f3366004612e3e565b61148c565b6101f760065481565b61023461030f366004612dac565b611c7b565b61031c611f03565b60405190151581526020016101b8565b6002546101a4906001600160a01b031681565b6003546040517f70a082310000000000000000000000000000000000000000000000000000000081523060048201526000916001600160a01b0316906370a0823190602401602060405180830381865afa1580156103a1573d6000803e3d6000fd5b505050506040513d601f19601f820116820180604052508101906103c59190612e76565b905090565b6009546001600160a01b0316331461040e576040517f82b4290000000000000000000000000000000000000000000000000000000000815260040160405180910390fd5b61271081111561044a576040517f30b9f8da00000000000000000000000000000000000000000000000000000000815260040160405180910390fd5b600b55565b6009546001600160a01b03163314610493576040517f82b4290000000000000000000000000000000000000000000000000000000000815260040160405180910390fd5b600061049d610f8c565b6003546040517fc32e720200000000000000000000000000000000000000000000000000000000815260048101869052600060248201529192506001600160a01b03169063c32e7202906044016020604051808303816000875af1158015610509573d6000803e3d6000fd5b505050506040513d601f19601f8201168201806040525081019061052d9190612ea4565b506040805160c08101825260006020808301829052606060a0840181815260015485526005546001600160a01b039081168688018190526004805483168589015260808089018d905289518088018b528881529094528851938401895294830186905292820194909452308082528187015260025495517f095ea7b3000000000000000000000000000000000000000000000000000000008152959093169185019190915260248401879052919290919063095ea7b3906044016020604051808303816000875af1158015610606573d6000803e3d6000fd5b505050506040513d601f19601f8201168201806040525081019061062a9190612ea4565b610695576040517f08c379a000000000000000000000000000000000000000000000000000000000815260206004820152600e60248201527f617070726f7665206661696c656400000000000000000000000000000000000060448201526064015b60405180910390fd5b6002546001600160a01b03166352bbbe298383876106b4426014612eee565b6040518563ffffffff1660e01b81526004016106d39493929190612f51565b6020604051808303816000875af11580156106f2573d6000803e3d6000fd5b505050506040513d601f19601f820116820180604052508101906107169190612e76565b50600480546040517f70a0823100000000000000000000000000000000000000000000000000000000815230928101929092526000916001600160a01b03909116906370a0823190602401602060405180830381865afa15801561077e573d6000803e3d6000fd5b505050506040513d601f19601f820116820180604052508101906107a29190612e76565b6004546009549192506107c2916001600160a01b03918216911683611f46565b6003546040517f70a082310000000000000000000000000000000000000000000000000000000081523060048201526000916001600160a01b0316906370a0823190602401602060405180830381865afa158015610824573d6000803e3d6000fd5b505050506040513d601f19601f820116820180604052508101906108489190612e76565b90508060000361085c576000600a556108be565b6000612710600b54600a546108719190613009565b61087b9190613020565b600a54610888919061305b565b9050808611156108a45761089c838761305b565b600a556108bc565b82600a60008282546108b6919061305b565b90915550505b505b50505050505050565b60085460609060006108da826001612eee565b67ffffffffffffffff8111156108f2576108f261306e565b60405190808252806020026020018201604052801561093757816020015b60408051808201909152600080825260208201528152602001906001900390816109105790505b5060408051808201825273ba100000625a3754423978a60c9317c58a424e3d815260035491517e8cc2620000000000000000000000000000000000000000000000000000000081523060048201529293509160208301916001600160a01b031690628cc26290602401602060405180830381865afa1580156109bd573d6000803e3d6000fd5b505050506040513d601f19601f820116820180604052508101906109e19190612e76565b815250816000815181106109f7576109f761309d565b60209081029190910101528115610bd75760005b82811015610bd55773c0c293ce456ff0ed870add98a0828dd4d2903dbf6001600160a01b031660088281548110610a4457610a4461309d565b6000918252602090912001546001600160a01b031614610bc357604051806040016040528060088381548110610a7c57610a7c61309d565b600091825260209182902001546001600160a01b0390811683526003546040517f40c354460000000000000000000000000000000000000000000000000000000081526004810187905293909201929116906340c3544690602401602060405180830381865afa158015610af4573d6000803e3d6000fd5b505050506040513d601f19601f82011682018060405250810190610b1891906130cc565b6040517e8cc2620000000000000000000000000000000000000000000000000000000081523060048201526001600160a01b039190911690628cc26290602401602060405180830381865afa158015610b75573d6000803e3d6000fd5b505050506040513d601f19601f82011682018060405250810190610b999190612e76565b905282610ba7836001612eee565b81518110610bb757610bb761309d565b60200260200101819052505b80610bcd816130e9565b915050610a0b565b505b92915050565b6009546001600160a01b03163314610c21576040517f82b4290000000000000000000000000000000000000000000000000000000000815260040160405180910390fd5b6003546040517f7050ccd9000000000000000000000000000000000000000000000000000000008152306004820152600160248201526001600160a01b0390911690637050ccd9906044016020604051808303816000875af1158015610c8b573d6000803e3d6000fd5b505050506040513d601f19601f82011682018060405250810190610caf9190612ea4565b506040517f70a0823100000000000000000000000000000000000000000000000000000000815230600482015260009073ba100000625a3754423978a60c9317c58a424e3d906370a0823190602401602060405180830381865afa158015610d1b573d6000803e3d6000fd5b505050506040513d601f19601f82011682018060405250810190610d3f9190612e76565b90508015610d7357600954610d739073ba100000625a3754423978a60c9317c58a424e3d906001600160a01b031683611f46565b6040517f70a0823100000000000000000000000000000000000000000000000000000000815230600482015260009073c0c293ce456ff0ed870add98a0828dd4d2903dbf906370a0823190602401602060405180830381865afa158015610dde573d6000803e3d6000fd5b505050506040513d601f19601f82011682018060405250810190610e029190612e76565b90508015610e3657600954610e369073c0c293ce456ff0ed870add98a0828dd4d2903dbf906001600160a01b031683611f46565b60085460005b81811015610f865773c0c293ce456ff0ed870add98a0828dd4d2903dbf6001600160a01b031660088281548110610e7557610e7561309d565b6000918252602090912001546001600160a01b031614610f7457600060088281548110610ea457610ea461309d565b6000918252602090912001546040517f70a082310000000000000000000000000000000000000000000000000000000081523060048201526001600160a01b03909116906370a0823190602401602060405180830381865afa158015610f0e573d6000803e3d6000fd5b505050506040513d601f19601f82011682018060405250810190610f329190612e76565b90508015610f7257610f7260088381548110610f5057610f5061309d565b6000918252602090912001546009546001600160a01b03918216911683611f46565b505b80610f7e816130e9565b915050610e3c565b50505050565b6003546040517f70a0823100000000000000000000000000000000000000000000000000000000815230600482015260009182916001600160a01b03909116906370a0823190602401602060405180830381865afa158015610ff2573d6000803e3d6000fd5b505050506040513d601f19601f820116820180604052508101906110169190612e76565b90508060000361102857600091505090565b6002546001546040517ff94d466800000000000000000000000000000000000000000000000000000000815260048101919091526000916001600160a01b03169063f94d466890602401600060405180830381865afa15801561108f573d6000803e3d6000fd5b505050506040513d6000823e601f3d908101601f191682016040526110b791908101906131e1565b509150506000600560009054906101000a90046001600160a01b03166001600160a01b0316631dd746ea6040518163ffffffff1660e01b8152600401600060405180830381865afa158015611110573d6000803e3d6000fd5b505050506040513d6000823e601f3d908101601f1916820160405261113891908101906132af565b905060005b82518110156111c657670de0b6b3a76400008282815181106111615761116161309d565b602002602001015184838151811061117b5761117b61309d565b602002602001015161118d9190613009565b6111979190613020565b8382815181106111a9576111a961309d565b6020908102919091010152806111be816130e9565b91505061113d565b50600554604080517f6daccffa00000000000000000000000000000000000000000000000000000000815290516000926001600160a01b031691636daccffa9160048083019260609291908290030181865afa15801561122a573d6000803e3d6000fd5b505050506040513d601f19601f8201168201806040525081019061124e91906132e4565b505090506000600560009054906101000a90046001600160a01b03166001600160a01b031663876f303b6040518163ffffffff1660e01b8152600401602060405180830381865afa1580156112a7573d6000803e3d6000fd5b505050506040513d601f19601f820116820180604052508101906112cb9190612e76565b90506000600560009054906101000a90046001600160a01b03166001600160a01b03166355c676286040518163ffffffff1660e01b8152600401602060405180830381865afa158015611322573d6000803e3d6000fd5b505050506040513d601f19601f820116820180604052508101906113469190612e76565b90506000600560009054906101000a90046001600160a01b03166001600160a01b03166382687a566040518163ffffffff1660e01b8152600401602060405180830381865afa15801561139d573d6000803e3d6000fd5b505050506040513d601f19601f820116820180604052508101906113c19190612e76565b905060006113cf8783611ff4565b600654909150828111156113eb576113e860018261305b565b90505b60006113f787846120bf565b9050600061140a8885858e8b878c6122c1565b90506000670de0b6b3a76400008a6006548151811061142b5761142b61309d565b602002602001015161143d9190613020565b905080156114525761144f8183613020565b91505b509b9a5050505050505050505050565b6008818154811061147257600080fd5b6000918252602090912001546001600160a01b0316905081565b600054610100900460ff16158080156114ac5750600054600160ff909116105b806114c65750303b1580156114c6575060005460ff166001145b611552576040517f08c379a000000000000000000000000000000000000000000000000000000000815260206004820152602e60248201527f496e697469616c697a61626c653a20636f6e747261637420697320616c72656160448201527f647920696e697469616c697a6564000000000000000000000000000000000000606482015260840161068c565b600080547fffffffffffffffffffffffffffffffffffffffffffffffffffffffffffffff0016600117905580156115b057600080547fffffffffffffffffffffffffffffffffffffffffffffffffffffffffffff00ff166101001790555b6001600160a01b038316611620576040517f08c379a000000000000000000000000000000000000000000000000000000000815260206004820152601e60248201527f4d756c7469506f6f6c5374726174656779207a65726f20616464726573730000604482015260640161068c565b6001849055600980547fffffffffffffffffffffffff0000000000000000000000000000000000000000166001600160a01b038516908117909155604080517f38d52e0f00000000000000000000000000000000000000000000000000000000815290516338d52e0f916004808201926020929091908290030181865afa1580156116af573d6000803e3d6000fd5b505050506040513d601f19601f820116820180604052508101906116d391906130cc565b600480547fffffffffffffffffffffffff00000000000000000000000000000000000000009081166001600160a01b03939093169290921781556002805473ba12222222228d8ba445958a75a0704d566bf2c89316831790556001546040517ff94d4668000000000000000000000000000000000000000000000000000000008152918201526000919063f94d466890602401600060405180830381865afa158015611783573d6000803e3d6000fd5b505050506040513d6000823e601f3d908101601f191682016040526117ab91908101906131e1565b50506002546001546040517ff6c0092700000000000000000000000000000000000000000000000000000000815260048101919091529192506001600160a01b03169063f6c00927906024016040805180830381865afa158015611813573d6000803e3d6000fd5b505050506040513d601f19601f820116820180604052508101906118379190613319565b50600580547fffffffffffffffffffffffff0000000000000000000000000000000000000000166001600160a01b039290921691909117905560078390556040517f1526fe270000000000000000000000000000000000000000000000000000000081526004810184905260009073a57b8d98dae62b26ec3bcc4a365338157060b23490631526fe279060240160c060405180830381865afa1580156118e1573d6000803e3d6000fd5b505050506040513d601f19601f820116820180604052508101906119059190613359565b5050600380547fffffffffffffffffffffffff0000000000000000000000000000000000000000166001600160a01b03831617905560c8600b5593506000925050505b82518110156119a65760045483516001600160a01b03909116908490839081106119745761197461309d565b60200260200101516001600160a01b0316036119945760068190556119a6565b8061199e816130e9565b915050611948565b50600354604080517fd55a23f400000000000000000000000000000000000000000000000000000000815290516000926001600160a01b03169163d55a23f49160048083019260209291908290030181865afa158015611a0a573d6000803e3d6000fd5b505050506040513d601f19601f82011682018060405250810190611a2e9190612e76565b600454600254919250611a6e916001600160a01b0391821691167fffffffffffffffffffffffffffffffffffffffffffffffffffffffffffffffff612406565b600554611ab9906001600160a01b031673a57b8d98dae62b26ec3bcc4a365338157060b2347fffffffffffffffffffffffffffffffffffffffffffffffffffffffffffffffff612406565b8015611c105760005b81811015611c0e576003546040517f40c35446000000000000000000000000000000000000000000000000000000008152600481018390526008916001600160a01b0316906340c3544690602401602060405180830381865afa158015611b2d573d6000803e3d6000fd5b505050506040513d601f19601f82011682018060405250810190611b5191906130cc565b6001600160a01b031663f7c618c16040518163ffffffff1660e01b8152600401602060405180830381865afa158015611b8e573d6000803e3d6000fd5b505050506040513d601f19601f82011682018060405250810190611bb291906130cc565b81546001810183556000928352602090922090910180547fffffffffffffffffffffffff0000000000000000000000000000000000000000166001600160a01b0390921691909117905580611c06816130e9565b915050611ac2565b505b5050508015610f8657600080547fffffffffffffffffffffffffffffffffffffffffffffffffffffffffffff00ff169055604051600181527f7f26b83ff96e1f2b6a682f133852f6798a09c465da95921460cefb38474024989060200160405180910390a150505050565b6009546001600160a01b03163314611cbf576040517f82b4290000000000000000000000000000000000000000000000000000000000815260040160405180910390fd5b81600003611cd657611ccf610f8c565b600a555050565b6040805160c08101825260006020808301829052606060a0840181815260015485526004546001600160a01b039081168688015260055481168387015260808087018a9052875180860189528681529092528651918201875292810184905290810192909252308083529382019390935260025491929091166352bbbe29838386611d62426014612eee565b6040518563ffffffff1660e01b8152600401611d819493929190612f51565b6020604051808303816000875af1158015611da0573d6000803e3d6000fd5b505050506040513d601f19601f82011682018060405250810190611dc49190612e76565b506005546040517f70a082310000000000000000000000000000000000000000000000000000000081523060048201526000916001600160a01b0316906370a0823190602401602060405180830381865afa158015611e27573d6000803e3d6000fd5b505050506040513d601f19601f82011682018060405250810190611e4b9190612e76565b6007546040517f43a0d0660000000000000000000000000000000000000000000000000000000081526004810191909152602481018290526001604482015290915073a57b8d98dae62b26ec3bcc4a365338157060b234906343a0d066906064016020604051808303816000875af1158015611ecb573d6000803e3d6000fd5b505050506040513d601f19601f82011682018060405250810190611eef9190612ea4565b50611ef8610f8c565b600a555050505b5050565b600080611f0e610f8c565b90506000612710600b54600a54611f259190613009565b611f2f9190613020565b600a54611f3c919061305b565b9091101592915050565b6040516001600160a01b038316602482015260448101829052611fef9084907fa9059cbb00000000000000000000000000000000000000000000000000000000906064015b60408051601f198184030181529190526020810180517bffffffffffffffffffffffffffffffffffffffffffffffffffffffff167fffffffff000000000000000000000000000000000000000000000000000000009093169290921790915261256e565b505050565b6060600060018451612006919061305b565b67ffffffffffffffff81111561201e5761201e61306e565b604051908082528060200260200182016040528015612047578160200160208202803683370190505b50905060005b81518110156120b7578484821061206e57612069826001612eee565b612070565b815b815181106120805761208061309d565b602002602001015182828151811061209a5761209a61309d565b6020908102919091010152806120af816130e9565b91505061204d565b509392505050565b80516000908190815b81811015612110576120fc8582815181106120e5576120e561309d565b60200260200101518461266d90919063ffffffff16565b925080612108816130e9565b9150506120c8565b508160000361212457600092505050610bd7565b600082816121328489613009565b905060005b60ff81101561225e578260005b86811015612195576121816121598387612691565b61217c8c848151811061216e5761216e61309d565b60200260200101518a612691565b6126bf565b91508061218d816130e9565b915050612144565b508394506121fc6121cd6121c76121ac848a612691565b6121c16121b9888d612691565b6103e86126bf565b9061266d565b86612691565b61217c6121e46121de8a6001612eee565b85612691565b6121c16121b96121f66103e88a61305b565b8a612691565b93508484111561222b576001612212868661305b565b116122265783975050505050505050610bd7565b61224b565b6001612237858761305b565b1161224b5783975050505050505050610bd7565b5080612256816130e9565b915050612137565b506040517f08c379a000000000000000000000000000000000000000000000000000000000815260206004820152601f60248201527f535441424c455f494e56415249414e545f4449444e545f434f4e564552474500604482015260640161068c565b6000806122e2846122dc876122d6818b6126d8565b906126fc565b90612778565b905060006122f28a8a848b6127c3565b90506000612322828b8b8151811061230c5761230c61309d565b60200260200101516126d890919063ffffffff16565b90506000805b8b518110156123715761235d8c82815181106123465761234661309d565b60200260200101518361266d90919063ffffffff16565b915080612369816130e9565b915050612328565b5060006123a0828d8d8151811061238a5761238a61309d565b6020026020010151612a2f90919063ffffffff16565b905060006123ad82612a84565b905060006123bb8583612778565b905060006123c986836126d8565b90506123f16123ea6123e38c670de0b6b3a764000061305b565b8490612aae565b829061266d565b98505050505050505050979650505050505050565b80158061249957506040517fdd62ed3e0000000000000000000000000000000000000000000000000000000081523060048201526001600160a01b03838116602483015284169063dd62ed3e90604401602060405180830381865afa158015612473573d6000803e3d6000fd5b505050506040513d601f19601f820116820180604052508101906124979190612e76565b155b612525576040517f08c379a000000000000000000000000000000000000000000000000000000000815260206004820152603660248201527f5361666545524332303a20617070726f76652066726f6d206e6f6e2d7a65726f60448201527f20746f206e6f6e2d7a65726f20616c6c6f77616e636500000000000000000000606482015260840161068c565b6040516001600160a01b038316602482015260448101829052611fef9084907f095ea7b30000000000000000000000000000000000000000000000000000000090606401611f8b565b60006125c3826040518060400160405280602081526020017f5361666545524332303a206c6f772d6c6576656c2063616c6c206661696c6564815250856001600160a01b0316612ae59092919063ffffffff16565b805190915015611fef57808060200190518101906125e19190612ea4565b611fef576040517f08c379a000000000000000000000000000000000000000000000000000000000815260206004820152602a60248201527f5361666545524332303a204552433230206f7065726174696f6e20646964206e60448201527f6f74207375636365656400000000000000000000000000000000000000000000606482015260840161068c565b60008061267a8385612eee565b905061268a848210156000612af4565b9392505050565b60008061269e8385613009565b905061268a8415806126b85750836126b68684613020565b145b6003612af4565b60006126ce8215156004612af4565b61268a8284613020565b60006126e8838311156001612af4565b60006126f4838561305b565b949350505050565b600061270b8215156004612af4565b8260000361271b57506000610bd7565b600061272f670de0b6b3a764000085613009565b905061274f670de0b6b3a76400006127478684613020565b146005612af4565b8261275b60018361305b565b6127659190613020565b612770906001612eee565b915050610bd7565b6000806127858385613009565b905061279d8415806126b85750836126b68684613020565b806000036127af576000915050610bd7565b670de0b6b3a764000061275b60018361305b565b6000808451866127d39190613009565b90506000856000815181106127ea576127ea61309d565b60200260200101519050600086518760008151811061280b5761280b61309d565b602002602001015161281d9190613009565b905060015b875181101561288c5761286161285b612854848b85815181106128475761284761309d565b6020026020010151612691565b8a51612691565b886126bf565b91506128788882815181106120e5576120e561309d565b925080612884816130e9565b915050612822565b5086858151811061289f5761289f61309d565b6020026020010151826128b2919061305b565b915060006128c08788612691565b905060006128f76128e56128dd846128d88988612691565b612b02565b6103e8612691565b8a89815181106128475761284761309d565b9050600061291261290b6128dd8b896126bf565b869061266d565b905060008061292e612924868661266d565b6128d88d8661266d565b905060005b60ff8110156129cc57819250612969612950866121c18586612691565b6128d88e612963886121c1886002612691565b906126d8565b91508282111561299957600161297f848461305b565b11612994575097506126f49650505050505050565b6129ba565b60016129a5838561305b565b116129ba575097506126f49650505050505050565b806129c4816130e9565b915050612933565b506040517f08c379a000000000000000000000000000000000000000000000000000000000815260206004820152601660248201527f42414c414e43455f4449444e545f434f4e564552474500000000000000000000604482015260640161068c565b6000612a3e8215156004612af4565b82600003612a4e57506000610bd7565b6000612a62670de0b6b3a764000085613009565b9050612a7a670de0b6b3a76400006127478684613020565b6127708382613020565b6000670de0b6b3a76400008210612a9c576000610bd7565b610bd782670de0b6b3a764000061305b565b600080612abb8385613009565b9050612ad38415806126b85750836126b68684613020565b6126f4670de0b6b3a764000082613020565b60606126f48484600085612b41565b81611eff57611eff81612c4d565b6000612b118215156004612af4565b508115157fffffffffffffffffffffffffffffffffffffffffffffffffffffffffffffffff909201046001010290565b606082471015612bd3576040517f08c379a000000000000000000000000000000000000000000000000000000000815260206004820152602660248201527f416464726573733a20696e73756666696369656e742062616c616e636520666f60448201527f722063616c6c0000000000000000000000000000000000000000000000000000606482015260840161068c565b600080866001600160a01b03168587604051612bef91906133db565b60006040518083038185875af1925050503d8060008114612c2c576040519150601f19603f3d011682016040523d82523d6000602084013e612c31565b606091505b5091509150612c4287838387612cc1565b979650505050505050565b6030600a820601600a820491506030600a830601600a830492506030600a8406018060101b8260081b8401016642414c230000000160c81b925050507f08c379a000000000000000000000000000000000000000000000000000000000600052602060045260076024528060445260646000fd5b60608315612d4a578251600003612d43576001600160a01b0385163b612d43576040517f08c379a000000000000000000000000000000000000000000000000000000000815260206004820152601d60248201527f416464726573733a2063616c6c20746f206e6f6e2d636f6e7472616374000000604482015260640161068c565b50816126f4565b6126f48383815115612d5f5781518083602001fd5b806040517f08c379a000000000000000000000000000000000000000000000000000000000815260040161068c91906133f7565b600060208284031215612da557600080fd5b5035919050565b60008060408385031215612dbf57600080fd5b50508035926020909101359150565b602080825282518282018190526000919060409081850190868401855b82811015612e1957815180516001600160a01b03168552860151868501529284019290850190600101612deb565b5091979650505050505050565b6001600160a01b0381168114612e3b57600080fd5b50565b600080600060608486031215612e5357600080fd5b833592506020840135612e6581612e26565b929592945050506040919091013590565b600060208284031215612e8857600080fd5b5051919050565b80518015158114612e9f57600080fd5b919050565b600060208284031215612eb657600080fd5b61268a82612e8f565b7f4e487b7100000000000000000000000000000000000000000000000000000000600052601160045260246000fd5b80820180821115610bd757610bd7612ebf565b60005b83811015612f1c578181015183820152602001612f04565b50506000910152565b60008151808452612f3d816020860160208601612f01565b601f01601f19169290920160200192915050565b60e0808252855190820152602085015160ff1661010082015260408501516001600160a01b03908116610120830152606086015116610140820152608085015161016082015260a085015160c0610180830152600090612fb56101a0840182612f25565b915050612ff760208301866001600160a01b03808251168352602082015115156020840152806040830151166040840152506060810151151560608301525050565b60a082019390935260c0015292915050565b8082028115828204841417610bd757610bd7612ebf565b600082613056577f4e487b7100000000000000000000000000000000000000000000000000000000600052601260045260246000fd5b500490565b81810381811115610bd757610bd7612ebf565b7f4e487b7100000000000000000000000000000000000000000000000000000000600052604160045260246000fd5b7f4e487b7100000000000000000000000000000000000000000000000000000000600052603260045260246000fd5b6000602082840312156130de57600080fd5b815161268a81612e26565b60007fffffffffffffffffffffffffffffffffffffffffffffffffffffffffffffffff820361311a5761311a612ebf565b5060010190565b604051601f8201601f1916810167ffffffffffffffff8111828210171561314a5761314a61306e565b604052919050565b600067ffffffffffffffff82111561316c5761316c61306e565b5060051b60200190565b600082601f83011261318757600080fd5b8151602061319c61319783613152565b613121565b82815260059290921b840181019181810190868411156131bb57600080fd5b8286015b848110156131d657805183529183019183016131bf565b509695505050505050565b6000806000606084860312156131f657600080fd5b835167ffffffffffffffff8082111561320e57600080fd5b818601915086601f83011261322257600080fd5b8151602061323261319783613152565b82815260059290921b8401810191818101908a84111561325157600080fd5b948201945b8386101561327857855161326981612e26565b82529482019490820190613256565b9189015191975090935050508082111561329157600080fd5b5061329e86828701613176565b925050604084015190509250925092565b6000602082840312156132c157600080fd5b815167ffffffffffffffff8111156132d857600080fd5b6126f484828501613176565b6000806000606084860312156132f957600080fd5b8351925061330960208501612e8f565b9150604084015190509250925092565b6000806040838503121561332c57600080fd5b825161333781612e26565b602084015190925060ff8116811461334e57600080fd5b809150509250929050565b60008060008060008060c0878903121561337257600080fd5b865161337d81612e26565b602088015190965061338e81612e26565b604088015190955061339f81612e26565b60608801519094506133b081612e26565b60808801519093506133c181612e26565b91506133cf60a08801612e8f565b90509295509295509295565b600082516133ed818460208701612f01565b9190910192915050565b60208152600061268a6020830184612f2556","linkReferences":{}},"methodIdentifiers":{"AURA()":"3829aea3","AURA_BOOSTER()":"07cab83c","BAL()":"beeadf16","auraPid()":"619002ce","auraRewardPool()":"00c36211","claim()":"4e71d92d","deposit(uint256,uint256)":"e2bbb158","healthFactor()":"22841f01","initialize(bytes32,address,uint256)":"c7e213d5","isHealthy()":"e4020804","lpBalance()":"2059f615","multiPoolStrategy()":"8dae8422","pool()":"16f0115b","poolId()":"3e0dc34e","rewardTokens(uint256)":"7bb7bed1","setHealthFactor(uint256)":"31111708","storedUnderlyingBalance()":"c4558463","tokenIndex()":"d55f9273","totalClaimable()":"4838ed19","underlyingBalance()":"59356c5c","underlyingToken()":"2495a599","vault()":"fbfa77cf","withdraw(uint256,uint256)":"441a3e70"},"id":69}