{
  "abi": [
    {
      "inputs": [],
      "stateMutability": "nonpayable",
      "type": "constructor"
    },
    {
      "inputs": [],
      "name": "InvalidHealthFactor",
      "type": "error"
    },
    {
      "inputs": [],
      "name": "Unauthorized",
      "type": "error"
    },
    {
      "anonymous": false,
      "inputs": [
        {
          "indexed": false,
          "internalType": "uint8",
          "name": "version",
          "type": "uint8"
        }
      ],
      "name": "Initialized",
      "type": "event"
    },
    {
      "inputs": [],
      "name": "CONVEX_BOOSTER",
      "outputs": [
        {
          "internalType": "address",
          "name": "",
          "type": "address"
        }
      ],
      "stateMutability": "view",
      "type": "function"
    },
    {
      "inputs": [],
      "name": "CURVE_TOKEN",
      "outputs": [
        {
          "internalType": "address",
          "name": "",
          "type": "address"
        }
      ],
      "stateMutability": "view",
      "type": "function"
    },
    {
      "inputs": [],
      "name": "CVX",
      "outputs": [
        {
          "internalType": "address",
          "name": "",
          "type": "address"
        }
      ],
      "stateMutability": "view",
      "type": "function"
    },
    {
      "inputs": [],
      "name": "CVX_MAX_SUPPLY",
      "outputs": [
        {
          "internalType": "uint256",
          "name": "",
          "type": "uint256"
        }
      ],
      "stateMutability": "view",
      "type": "function"
    },
    {
      "inputs": [],
      "name": "ETH",
      "outputs": [
        {
          "internalType": "address",
          "name": "",
          "type": "address"
        }
      ],
      "stateMutability": "view",
      "type": "function"
    },
    {
      "inputs": [],
      "name": "WETH",
      "outputs": [
        {
          "internalType": "address",
          "name": "",
          "type": "address"
        }
      ],
      "stateMutability": "view",
      "type": "function"
    },
    {
      "inputs": [],
      "name": "claim",
      "outputs": [],
      "stateMutability": "nonpayable",
      "type": "function"
    },
    {
      "inputs": [],
      "name": "convexPid",
      "outputs": [
        {
          "internalType": "uint256",
          "name": "",
          "type": "uint256"
        }
      ],
      "stateMutability": "view",
      "type": "function"
    },
    {
      "inputs": [],
      "name": "convexRewardPool",
      "outputs": [
        {
          "internalType": "contract IBaseRewardPool",
          "name": "",
          "type": "address"
        }
      ],
      "stateMutability": "view",
      "type": "function"
    },
    {
      "inputs": [],
      "name": "curveLpToken",
      "outputs": [
        {
          "internalType": "address",
          "name": "",
          "type": "address"
        }
      ],
      "stateMutability": "view",
      "type": "function"
    },
    {
      "inputs": [],
      "name": "curvePool",
      "outputs": [
        {
          "internalType": "address",
          "name": "",
          "type": "address"
        }
      ],
      "stateMutability": "view",
      "type": "function"
    },
    {
      "inputs": [
        {
          "internalType": "uint256",
          "name": "_amount",
          "type": "uint256"
        },
        {
          "internalType": "uint256",
          "name": "_minCurveLpAmount",
          "type": "uint256"
        }
      ],
      "name": "deposit",
      "outputs": [],
      "stateMutability": "nonpayable",
      "type": "function"
    },
    {
      "inputs": [],
      "name": "healthFactor",
      "outputs": [
        {
          "internalType": "uint256",
          "name": "",
          "type": "uint256"
        }
      ],
      "stateMutability": "view",
      "type": "function"
    },
    {
      "inputs": [],
      "name": "indexUint",
      "outputs": [
        {
          "internalType": "bool",
          "name": "",
          "type": "bool"
        }
      ],
      "stateMutability": "view",
      "type": "function"
    },
    {
      "inputs": [
        {
          "internalType": "address",
          "name": "_curvePool",
          "type": "address"
        },
        {
          "internalType": "address",
          "name": "_multiPoolStrategy",
          "type": "address"
        },
        {
          "internalType": "uint256",
          "name": "_convexPid",
          "type": "uint256"
        },
        {
          "internalType": "uint256",
          "name": "_tokensLength",
          "type": "uint256"
        },
        {
          "internalType": "address",
          "name": "_zapper",
          "type": "address"
        },
        {
          "internalType": "bool",
          "name": "_useEth",
          "type": "bool"
        },
        {
          "internalType": "bool",
          "name": "_indexUint",
          "type": "bool"
        },
        {
          "internalType": "int128",
          "name": "_underlyingTokenPoolIndex",
          "type": "int128"
        }
      ],
      "name": "initialize",
      "outputs": [],
      "stateMutability": "nonpayable",
      "type": "function"
    },
    {
      "inputs": [],
      "name": "isHealthy",
      "outputs": [
        {
          "internalType": "bool",
          "name": "",
          "type": "bool"
        }
      ],
      "stateMutability": "view",
      "type": "function"
    },
    {
      "inputs": [],
      "name": "lpBalance",
      "outputs": [
        {
          "internalType": "uint256",
          "name": "lpBal",
          "type": "uint256"
        }
      ],
      "stateMutability": "view",
      "type": "function"
    },
    {
      "inputs": [],
      "name": "multiPoolStrategy",
      "outputs": [
        {
          "internalType": "address",
          "name": "",
          "type": "address"
        }
      ],
      "stateMutability": "view",
      "type": "function"
    },
    {
      "inputs": [
        {
          "internalType": "uint256",
          "name": "",
          "type": "uint256"
        }
      ],
      "name": "rewardTokens",
      "outputs": [
        {
          "internalType": "address",
          "name": "",
          "type": "address"
        }
      ],
      "stateMutability": "view",
      "type": "function"
    },
    {
      "inputs": [
        {
          "internalType": "uint256",
          "name": "_newHealthFactor",
          "type": "uint256"
        }
      ],
      "name": "setHealthFactor",
      "outputs": [],
      "stateMutability": "nonpayable",
      "type": "function"
    },
    {
      "inputs": [],
      "name": "storedUnderlyingBalance",
      "outputs": [
        {
          "internalType": "uint256",
          "name": "",
          "type": "uint256"
        }
      ],
      "stateMutability": "view",
      "type": "function"
    },
    {
      "inputs": [],
      "name": "tokensLength",
      "outputs": [
        {
          "internalType": "uint256",
          "name": "",
          "type": "uint256"
        }
      ],
      "stateMutability": "view",
      "type": "function"
    },
    {
      "inputs": [],
      "name": "totalClaimable",
      "outputs": [
        {
          "components": [
            {
              "internalType": "address",
              "name": "token",
              "type": "address"
            },
            {
              "internalType": "uint256",
              "name": "amount",
              "type": "uint256"
            }
          ],
          "internalType": "struct ConvexPoolAdapter.RewardData[]",
          "name": "",
          "type": "tuple[]"
        }
      ],
      "stateMutability": "view",
      "type": "function"
    },
    {
      "inputs": [],
      "name": "underlyingBalance",
      "outputs": [
        {
          "internalType": "uint256",
          "name": "underlyingBal",
          "type": "uint256"
        }
      ],
      "stateMutability": "view",
      "type": "function"
    },
    {
      "inputs": [],
      "name": "underlyingToken",
      "outputs": [
        {
          "internalType": "address",
          "name": "",
          "type": "address"
        }
      ],
      "stateMutability": "view",
      "type": "function"
    },
    {
      "inputs": [],
      "name": "underlyingTokenPoolIndex",
      "outputs": [
        {
          "internalType": "int128",
          "name": "",
          "type": "int128"
        }
      ],
      "stateMutability": "view",
      "type": "function"
    },
    {
      "inputs": [],
      "name": "useEth",
      "outputs": [
        {
          "internalType": "bool",
          "name": "",
          "type": "bool"
        }
      ],
      "stateMutability": "view",
      "type": "function"
    },
    {
      "inputs": [
        {
          "internalType": "uint256",
          "name": "_amount",
          "type": "uint256"
        },
        {
          "internalType": "uint256",
          "name": "_minReceiveAmount",
          "type": "uint256"
        }
      ],
      "name": "withdraw",
      "outputs": [],
      "stateMutability": "nonpayable",
      "type": "function"
    },
    {
      "inputs": [],
      "name": "zapper",
      "outputs": [
        {
          "internalType": "address",
          "name": "",
          "type": "address"
        }
      ],
      "stateMutability": "view",
      "type": "function"
    },
    {
      "stateMutability": "payable",
      "type": "receive"
    }
  ],
  "bytecode": {
    "object": "0x60806040523480156200001157600080fd5b506200001c62000022565b620000e4565b600054610100900460ff16156200008f5760405162461bcd60e51b815260206004820152602760248201527f496e697469616c697a61626c653a20636f6e747261637420697320696e697469604482015266616c697a696e6760c81b606482015260840160405180910390fd5b60005460ff9081161015620000e2576000805460ff191660ff9081179091556040519081527f7f26b83ff96e1f2b6a682f133852f6798a09c465da95921460cefb38474024989060200160405180910390a15b565b6132c780620000f46000396000f3fe6080604052600436106101c65760003560e01c806386993bef116100f7578063c455846311610095578063e1b71bea11610064578063e1b71bea1461052c578063e2bbb15814610554578063e402080414610574578063f48113031461058957600080fd5b8063c4558463146104b8578063d92fc67b146104ce578063dad9bc14146104e4578063dcd6f5261461050c57600080fd5b80639c31aff4116100d15780639c31aff414610423578063a7a2171214610450578063ad58bc7514610470578063ad5c46481461049057600080fd5b806386993bef146103ab5780638dae8422146103c15780639b52474b146103e157600080fd5b80634838ed1911610164578063646780df1161013e578063646780df1461031b578063759cb53b1461033b5780637bb7bed1146103635780638322fff21461038357600080fd5b80634838ed19146102cf5780634e71d92d146102f157806359356c5c1461030657600080fd5b806322841f01116101a057806322841f01146102575780632495a5991461026d578063311117081461028d578063441a3e70146102af57600080fd5b80630dff8095146101d25780632059f61514610204578063218751b21461021957600080fd5b366101cd57005b600080fd5b3480156101de57600080fd5b506101f16a52b7d2dcc80cd2e400000081565b6040519081526020015b60405180910390f35b34801561021057600080fd5b506101f16105bc565b34801561022557600080fd5b5060005461023f906201000090046001600160a01b031681565b6040516001600160a01b0390911681526020016101fb565b34801561026357600080fd5b506101f1600b5481565b34801561027957600080fd5b5060045461023f906001600160a01b031681565b34801561029957600080fd5b506102ad6102a8366004612d17565b610647565b005b3480156102bb57600080fd5b506102ad6102ca366004612d30565b6106cc565b3480156102db57600080fd5b506102e46109f0565b6040516101fb9190612d52565b3480156102fd57600080fd5b506102ad610f55565b34801561031257600080fd5b506101f1611304565b34801561032757600080fd5b5060025461023f906001600160a01b031681565b34801561034757600080fd5b5061023f734e3fbd56cd56c3e72c1403e103b45db9da5b9d2b81565b34801561036f57600080fd5b5061023f61037e366004612d17565b6115fa565b34801561038f57600080fd5b5061023f73eeeeeeeeeeeeeeeeeeeeeeeeeeeeeeeeeeeeeeee81565b3480156103b757600080fd5b506101f160055481565b3480156103cd57600080fd5b5060015461023f906001600160a01b031681565b3480156103ed57600080fd5b506009546104139074010000000000000000000000000000000000000000900460ff1681565b60405190151581526020016101fb565b34801561042f57600080fd5b5060065461043d90600f0b81565b604051600f9190910b81526020016101fb565b34801561045c57600080fd5b5060095461023f906001600160a01b031681565b34801561047c57600080fd5b506102ad61048b366004612dd0565b611624565b34801561049c57600080fd5b5061023f73c02aaa39b223fe8d0a0e5c4f27ead9083c756cc281565b3480156104c457600080fd5b506101f1600a5481565b3480156104da57600080fd5b506101f160085481565b3480156104f057600080fd5b5061023f73f403c135812408bfbe8713b5a23a04b3d48aae3181565b34801561051857600080fd5b5060035461023f906001600160a01b031681565b34801561053857600080fd5b5061023f73d533a949740bb3306d119cc777fa900ba034cd5281565b34801561056057600080fd5b506102ad61056f366004612d30565b611d7a565b34801561058057600080fd5b50610413611fbc565b34801561059557600080fd5b50600954610413907501000000000000000000000000000000000000000000900460ff1681565b6003546040517f70a082310000000000000000000000000000000000000000000000000000000081523060048201526000916001600160a01b0316906370a0823190602401602060405180830381865afa15801561061e573d6000803e3d6000fd5b505050506040513d601f19601f820116820180604052508101906106429190612e6e565b905090565b6001546001600160a01b0316331461068b576040517f82b4290000000000000000000000000000000000000000000000000000000000815260040160405180910390fd5b6127108111156106c7576040517f30b9f8da00000000000000000000000000000000000000000000000000000000815260040160405180910390fd5b600b55565b6001546001600160a01b03163314610710576040517f82b4290000000000000000000000000000000000000000000000000000000000815260040160405180910390fd5b600061071a611304565b6003546040517fc32e720200000000000000000000000000000000000000000000000000000000815260048101869052600060248201529192506001600160a01b03169063c32e7202906044016020604051808303816000875af1158015610786573d6000803e3d6000fd5b505050506040513d601f19601f820116820180604052508101906107aa9190612e87565b506107b58383611fff565b60095474010000000000000000000000000000000000000000900460ff16156108415773c02aaa39b223fe8d0a0e5c4f27ead9083c756cc26001600160a01b031663d0e30db0476040518263ffffffff1660e01b81526004016000604051808303818588803b15801561082757600080fd5b505af115801561083b573d6000803e3d6000fd5b50505050505b600480546040517f70a0823100000000000000000000000000000000000000000000000000000000815230928101929092526000916001600160a01b03909116906370a0823190602401602060405180830381865afa1580156108a8573d6000803e3d6000fd5b505050506040513d601f19601f820116820180604052508101906108cc9190612e6e565b6004546001549192506108ec916001600160a01b03918216911683612244565b6000612710600b54600a546109019190612eda565b61090b9190612ef7565b600a546109189190612f32565b6003546040517f70a082310000000000000000000000000000000000000000000000000000000081523060048201529192506000916001600160a01b03909116906370a0823190602401602060405180830381865afa15801561097f573d6000803e3d6000fd5b505050506040513d601f19601f820116820180604052508101906109a39190612e6e565b9050806000036109b7576000600a556109e8565b8184106109d0576109c88385612f32565b600a556109e8565b82600a60008282546109e29190612f32565b90915550505b505050505050565b6007546060906000610a03826002612f45565b67ffffffffffffffff811115610a1b57610a1b612f58565b604051908082528060200260200182016040528015610a6057816020015b6040805180820190915260008082526020820152815260200190600190039081610a395790505b5060408051808201825273d533a949740bb3306d119cc777fa900ba034cd52815260035491517e8cc2620000000000000000000000000000000000000000000000000000000081523060048201529293509160208301916001600160a01b031690628cc26290602401602060405180830381865afa158015610ae6573d6000803e3d6000fd5b505050506040513d601f19601f82011682018060405250810190610b0a9190612e6e565b81525081600081518110610b2057610b20612f87565b60200260200101819052506000734e3fbd56cd56c3e72c1403e103b45db9da5b9d2b6001600160a01b03166318160ddd6040518163ffffffff1660e01b8152600401602060405180830381865afa158015610b7f573d6000803e3d6000fd5b505050506040513d601f19601f82011682018060405250810190610ba39190612e6e565b90506000734e3fbd56cd56c3e72c1403e103b45db9da5b9d2b6001600160a01b031663aa74e6226040518163ffffffff1660e01b8152600401602060405180830381865afa158015610bf9573d6000803e3d6000fd5b505050506040513d601f19601f82011682018060405250810190610c1d9190612e6e565b90506000734e3fbd56cd56c3e72c1403e103b45db9da5b9d2b6001600160a01b0316631f96e76f6040518163ffffffff1660e01b8152600401602060405180830381865afa158015610c73573d6000803e3d6000fd5b505050506040513d601f19601f82011682018060405250810190610c979190612e6e565b90506000610ca58385612ef7565b9050600082821015610d1e576000610cbd8385612f32565b9050838188600081518110610cd457610cd4612f87565b602002602001015160200151610cea9190612eda565b610cf49190612ef7565b91506000610d0d876a52b7d2dcc80cd2e4000000612f32565b905080831115610d1b578092505b50505b6040518060400160405280734e3fbd56cd56c3e72c1403e103b45db9da5b9d2b6001600160a01b031681526020018281525086600181518110610d6357610d63612f87565b60209081029190910101528615610f495760005b87811015610f4757734e3fbd56cd56c3e72c1403e103b45db9da5b9d2b6001600160a01b031660078281548110610db057610db0612f87565b6000918252602090912001546001600160a01b031614610f35576003546040517f40c35446000000000000000000000000000000000000000000000000000000008152600481018390526001600160a01b03909116906340c3544690602401602060405180830381865afa158015610e2c573d6000803e3d6000fd5b505050506040513d601f19601f82011682018060405250810190610e509190612fb6565b6040517e8cc2620000000000000000000000000000000000000000000000000000000081523060048201526001600160a01b039190911690628cc26290602401602060405180830381865afa158015610ead573d6000803e3d6000fd5b505050506040513d601f19601f82011682018060405250810190610ed19190612e6e565b9150604051806040016040528060078381548110610ef157610ef1612f87565b600091825260209182902001546001600160a01b031682520183905287610f19836002612f45565b81518110610f2957610f29612f87565b60200260200101819052505b80610f3f81612fd3565b915050610d77565b505b50939695505050505050565b6001546001600160a01b03163314610f99576040517f82b4290000000000000000000000000000000000000000000000000000000000815260040160405180910390fd5b6003546040517f7050ccd9000000000000000000000000000000000000000000000000000000008152306004820152600160248201526001600160a01b0390911690637050ccd9906044016020604051808303816000875af1158015611003573d6000803e3d6000fd5b505050506040513d601f19601f820116820180604052508101906110279190612e87565b506040517f70a0823100000000000000000000000000000000000000000000000000000000815230600482015260009073d533a949740bb3306d119cc777fa900ba034cd52906370a0823190602401602060405180830381865afa158015611093573d6000803e3d6000fd5b505050506040513d601f19601f820116820180604052508101906110b79190612e6e565b905080156110eb576001546110eb9073d533a949740bb3306d119cc777fa900ba034cd52906001600160a01b031683612244565b6040517f70a08231000000000000000000000000000000000000000000000000000000008152306004820152600090734e3fbd56cd56c3e72c1403e103b45db9da5b9d2b906370a0823190602401602060405180830381865afa158015611156573d6000803e3d6000fd5b505050506040513d601f19601f8201168201806040525081019061117a9190612e6e565b905080156111ae576001546111ae90734e3fbd56cd56c3e72c1403e103b45db9da5b9d2b906001600160a01b031683612244565b60075460005b818110156112fe57734e3fbd56cd56c3e72c1403e103b45db9da5b9d2b6001600160a01b0316600782815481106111ed576111ed612f87565b6000918252602090912001546001600160a01b0316146112ec5760006007828154811061121c5761121c612f87565b6000918252602090912001546040517f70a082310000000000000000000000000000000000000000000000000000000081523060048201526001600160a01b03909116906370a0823190602401602060405180830381865afa158015611286573d6000803e3d6000fd5b505050506040513d601f19601f820116820180604052508101906112aa9190612e6e565b905080156112ea576112ea600783815481106112c8576112c8612f87565b6000918252602090912001546001546001600160a01b03918216911683612244565b505b806112f681612fd3565b9150506111b4565b50505050565b6003546040517f70a0823100000000000000000000000000000000000000000000000000000000815230600482015260009182916001600160a01b03909116906370a0823190602401602060405180830381865afa15801561136a573d6000803e3d6000fd5b505050506040513d601f19601f8201168201806040525081019061138e9190612e6e565b9050806000036113a057600091505090565b6009546001600160a01b0316156114f6576009547501000000000000000000000000000000000000000000900460ff161561148e576009546000546006546040517f9aed0eea0000000000000000000000000000000000000000000000000000000081526001600160a01b036201000090930483166004820152602481018590526fffffffffffffffffffffffffffffffff9091166044820152911690639aed0eea906064015b602060405180830381865afa158015611464573d6000803e3d6000fd5b505050506040513d601f19601f820116820180604052508101906114889190612e6e565b91505090565b6009546000546006546040517f41b028f30000000000000000000000000000000000000000000000000000000081526001600160a01b03620100009093048316600482015260248101859052600f9190910b60448201529116906341b028f390606401611447565b6009547501000000000000000000000000000000000000000000900460ff1615611585576000546006546040517f4fb08c5e000000000000000000000000000000000000000000000000000000008152600481018490526fffffffffffffffffffffffffffffffff9091166024820152620100009091046001600160a01b031690634fb08c5e90604401611447565b6000546006546040517fcc2b27d700000000000000000000000000000000000000000000000000000000815260048101849052600f9190910b6024820152620100009091046001600160a01b03169063cc2b27d790604401602060405180830381865afa158015611464573d6000803e3d6000fd5b6007818154811061160a57600080fd5b6000918252602090912001546001600160a01b0316905081565b600054610100900460ff16158080156116445750600054600160ff909116105b8061165e5750303b15801561165e575060005460ff166001145b6116ef576040517f08c379a000000000000000000000000000000000000000000000000000000000815260206004820152602e60248201527f496e697469616c697a61626c653a20636f6e747261637420697320616c72656160448201527f647920696e697469616c697a656400000000000000000000000000000000000060648201526084015b60405180910390fd5b600080547fffffffffffffffffffffffffffffffffffffffffffffffffffffffffffffff00166001179055801561174d57600080547fffffffffffffffffffffffffffffffffffffffffffffffffffffffffffff00ff166101001790555b600080547fffffffffffffffffffff0000000000000000000000000000000000000000ffff16620100006001600160a01b038c811691909102919091178255600180547fffffffffffffffffffffffff000000000000000000000000000000000000000016918b169190911790556040517f1526fe2700000000000000000000000000000000000000000000000000000000815260048101899052819073f403c135812408bfbe8713b5a23a04b3d48aae3190631526fe279060240160c060405180830381865afa158015611826573d6000803e3d6000fd5b505050506040513d601f19601f8201168201806040525081019061184a919061300b565b5050600280546001600160a01b038087167fffffffffffffffffffffffff00000000000000000000000000000000000000009283161790925560038054838516921691909117905560058e9055604080517f38d52e0f00000000000000000000000000000000000000000000000000000000815290519597509195508e16936338d52e0f9350600480830193506020928290030181865afa1580156118f3573d6000803e3d6000fd5b505050506040513d601f19601f820116820180604052508101906119179190612fb6565b600480547fffffffffffffffffffffffff0000000000000000000000000000000000000000166001600160a01b039283161790556008899055600980548983167fffffffffffffffffffffff000000000000000000000000000000000000000000909116177401000000000000000000000000000000000000000089151502177fffffffffffffffffffff00ffffffffffffffffffffffffffffffffffffffffff1675010000000000000000000000000000000000000000008815150217905560c8600b55600680547fffffffffffffffffffffffffffffffff00000000000000000000000000000000166fffffffffffffffffffffffffffffffff8716179055600254611a5b911673f403c135812408bfbe8713b5a23a04b3d48aae317fffffffffffffffffffffffffffffffffffffffffffffffffffffffffffffffff612310565b600454600054611a9e916001600160a01b0390811691620100009004167fffffffffffffffffffffffffffffffffffffffffffffffffffffffffffffffff612310565b6009546001600160a01b031615611b2957600254600954611aec916001600160a01b0390811691167fffffffffffffffffffffffffffffffffffffffffffffffffffffffffffffffff612310565b600454600954611b29916001600160a01b0390811691167fffffffffffffffffffffffffffffffffffffffffffffffffffffffffffffffff612310565b600354604080517fd55a23f400000000000000000000000000000000000000000000000000000000815290516000926001600160a01b03169163d55a23f49160048083019260209291908290030181865afa158015611b8c573d6000803e3d6000fd5b505050506040513d601f19601f82011682018060405250810190611bb09190612e6e565b90508015611d095760005b81811015611d07576003546040517f40c35446000000000000000000000000000000000000000000000000000000008152600481018390526007916001600160a01b0316906340c3544690602401602060405180830381865afa158015611c26573d6000803e3d6000fd5b505050506040513d601f19601f82011682018060405250810190611c4a9190612fb6565b6001600160a01b031663f7c618c16040518163ffffffff1660e01b8152600401602060405180830381865afa158015611c87573d6000803e3d6000fd5b505050506040513d601f19601f82011682018060405250810190611cab9190612fb6565b81546001810183556000928352602090922090910180547fffffffffffffffffffffffff0000000000000000000000000000000000000000166001600160a01b0390921691909117905580611cff81612fd3565b915050611bbb565b505b5050508015611d6f57600080547fffffffffffffffffffffffffffffffffffffffffffffffffffffffffffff00ff169055604051600181527f7f26b83ff96e1f2b6a682f133852f6798a09c465da95921460cefb38474024989060200160405180910390a15b505050505050505050565b6001546001600160a01b03163314611dbe576040517f82b4290000000000000000000000000000000000000000000000000000000000815260040160405180910390fd5b81600003611dd557611dce611304565b600a555050565b60095474010000000000000000000000000000000000000000900460ff1615611e77576040517f2e1a7d4d0000000000000000000000000000000000000000000000000000000081526004810183905273c02aaa39b223fe8d0a0e5c4f27ead9083c756cc290632e1a7d4d90602401600060405180830381600087803b158015611e5e57600080fd5b505af1158015611e72573d6000803e3d6000fd5b505050505b611e818282612478565b6002546040517f70a082310000000000000000000000000000000000000000000000000000000081523060048201526000916001600160a01b0316906370a0823190602401602060405180830381865afa158015611ee3573d6000803e3d6000fd5b505050506040513d601f19601f82011682018060405250810190611f079190612e6e565b6005546040517f43a0d0660000000000000000000000000000000000000000000000000000000081526004810191909152602481018290526001604482015290915073f403c135812408bfbe8713b5a23a04b3d48aae31906343a0d066906064016020604051808303816000875af1158015611f87573d6000803e3d6000fd5b505050506040513d601f19601f82011682018060405250810190611fab9190612e87565b50611fb4611304565b600a55505050565b600080611fc7611304565b90506000612710600b54600a54611fde9190612eda565b611fe89190612ef7565b600a54611ff59190612f32565b9091101592915050565b6009546001600160a01b03161561214a576009547501000000000000000000000000000000000000000000900460ff16156120db576009546000546006546040517fc5bdcd090000000000000000000000000000000000000000000000000000000081526001600160a01b036201000090930483166004820152602481018690526fffffffffffffffffffffffffffffffff90911660448201526064810184905291169063c5bdcd09906084015b600060405180830381600087803b1580156120c757600080fd5b505af11580156109e8573d6000803e3d6000fd5b6009546000546006546040517f29ed28620000000000000000000000000000000000000000000000000000000081526001600160a01b03620100009093048316600482015260248101869052600f9190910b6044820152606481018490529116906329ed2862906084016120ad565b6009547501000000000000000000000000000000000000000000900460ff16156121e0576000546006546040517ff1dc3cc9000000000000000000000000000000000000000000000000000000008152600481018590526fffffffffffffffffffffffffffffffff909116602482015260448101839052620100009091046001600160a01b03169063f1dc3cc9906064016120ad565b6000546006546040517f1a4d01d200000000000000000000000000000000000000000000000000000000815260048101859052600f9190910b602482015260448101839052620100009091046001600160a01b031690631a4d01d2906064016120ad565b6040516001600160a01b03831660248201526044810182905261230b9084907fa9059cbb00000000000000000000000000000000000000000000000000000000906064015b604080517fffffffffffffffffffffffffffffffffffffffffffffffffffffffffffffffe08184030181529190526020810180517bffffffffffffffffffffffffffffffffffffffffffffffffffffffff167fffffffff0000000000000000000000000000000000000000000000000000000090931692909217909152612a05565b505050565b8015806123a357506040517fdd62ed3e0000000000000000000000000000000000000000000000000000000081523060048201526001600160a01b03838116602483015284169063dd62ed3e90604401602060405180830381865afa15801561237d573d6000803e3d6000fd5b505050506040513d601f19601f820116820180604052508101906123a19190612e6e565b155b61242f576040517f08c379a000000000000000000000000000000000000000000000000000000000815260206004820152603660248201527f5361666545524332303a20617070726f76652066726f6d206e6f6e2d7a65726f60448201527f20746f206e6f6e2d7a65726f20616c6c6f77616e63650000000000000000000060648201526084016116e6565b6040516001600160a01b03831660248201526044810182905261230b9084907f095ea7b30000000000000000000000000000000000000000000000000000000090606401612289565b612480612cf9565b600654839082906fffffffffffffffffffffffffffffffff16600581106124a9576124a9612f87565b60200201526009546001600160a01b0316156127175760085460020361257057600954600054604080518082018252845181526020808601519082015290517fd2fb954c0000000000000000000000000000000000000000000000000000000081526001600160a01b039384169363d2fb954c9347936125399362010000909204909216919088906004016130b5565b6000604051808303818588803b15801561255257600080fd5b505af1158015612566573d6000803e3d6000fd5b5050505050505050565b6008546003036125f357600954600054604080516060810182528451815260208086015190820152848201518183015290517fa31851790000000000000000000000000000000000000000000000000000000081526001600160a01b039384169363a3185179934793612539936201000090920490921691908890600401613103565b6008546004036126805760095460005460408051608081018252845181526020808601519082015284820151818301526060808601519082015290517f384e03db0000000000000000000000000000000000000000000000000000000081526001600160a01b039384169363384e03db934793612539936201000090920490921691908890600401613151565b60085460050361230b576009546000546040805160a08101825284518152602080860151908201528482015181830152606080860151908201526080808601519082015290517f1b61222b0000000000000000000000000000000000000000000000000000000081526001600160a01b0393841693631b61222b93479361253993620100009092049092169190889060040161319f565b6008546002036127a757600060029054906101000a90046001600160a01b03166001600160a01b0316630b4c7e4d4760405180604001604052808560006005811061276457612764612f87565b602002015181526020018560016005811061278157612781612f87565b6020020151815250856040518463ffffffff1660e01b81526004016125399291906131ca565b60085460030361285457600060029054906101000a90046001600160a01b03166001600160a01b0316634515cef3476040518060600160405280856000600581106127f4576127f4612f87565b602002015181526020018560016005811061281157612811612f87565b602002015181526020018560026005811061282e5761282e612f87565b6020020151815250856040518463ffffffff1660e01b81526004016125399291906131e5565b60085460040361291e57600060029054906101000a90046001600160a01b03166001600160a01b031663029b2f34476040518060800160405280856000600581106128a1576128a1612f87565b60200201518152602001856001600581106128be576128be612f87565b60200201518152602001856002600581106128db576128db612f87565b60200201518152602001856003600581106128f8576128f8612f87565b6020020151815250856040518463ffffffff1660e01b8152600401612539929190613200565b60085460050361230b57600060029054906101000a90046001600160a01b03166001600160a01b03166384738499476040518060a001604052808560006005811061296b5761296b612f87565b602002015181526020018560016005811061298857612988612f87565b60200201518152602001856002600581106129a5576129a5612f87565b60200201518152602001856003600581106129c2576129c2612f87565b60200201518152602001856004600581106129df576129df612f87565b6020020151815250856040518463ffffffff1660e01b815260040161253992919061321b565b6000612a5a826040518060400160405280602081526020017f5361666545524332303a206c6f772d6c6576656c2063616c6c206661696c6564815250856001600160a01b0316612b049092919063ffffffff16565b80519091501561230b5780806020019051810190612a789190612e87565b61230b576040517f08c379a000000000000000000000000000000000000000000000000000000000815260206004820152602a60248201527f5361666545524332303a204552433230206f7065726174696f6e20646964206e60448201527f6f7420737563636565640000000000000000000000000000000000000000000060648201526084016116e6565b6060612b138484600085612b1b565b949350505050565b606082471015612bad576040517f08c379a000000000000000000000000000000000000000000000000000000000815260206004820152602660248201527f416464726573733a20696e73756666696369656e742062616c616e636520666f60448201527f722063616c6c000000000000000000000000000000000000000000000000000060648201526084016116e6565b600080866001600160a01b03168587604051612bc9919061325a565b60006040518083038185875af1925050503d8060008114612c06576040519150601f19603f3d011682016040523d82523d6000602084013e612c0b565b606091505b5091509150612c1c87838387612c27565b979650505050505050565b60608315612cb0578251600003612ca9576001600160a01b0385163b612ca9576040517f08c379a000000000000000000000000000000000000000000000000000000000815260206004820152601d60248201527f416464726573733a2063616c6c20746f206e6f6e2d636f6e747261637400000060448201526064016116e6565b5081612b13565b612b138383815115612cc55781518083602001fd5b806040517f08c379a00000000000000000000000000000000000000000000000000000000081526004016116e69190613276565b6040518060a001604052806005906020820280368337509192915050565b600060208284031215612d2957600080fd5b5035919050565b60008060408385031215612d4357600080fd5b50508035926020909101359150565b602080825282518282018190526000919060409081850190868401855b82811015612d9d57815180516001600160a01b03168552860151868501529284019290850190600101612d6f565b5091979650505050505050565b6001600160a01b0381168114612dbf57600080fd5b50565b8015158114612dbf57600080fd5b600080600080600080600080610100898b031215612ded57600080fd5b8835612df881612daa565b97506020890135612e0881612daa565b965060408901359550606089013594506080890135612e2681612daa565b935060a0890135612e3681612dc2565b925060c0890135612e4681612dc2565b915060e0890135600f81900b8114612e5d57600080fd5b809150509295985092959890939650565b600060208284031215612e8057600080fd5b5051919050565b600060208284031215612e9957600080fd5b8151612ea481612dc2565b9392505050565b7f4e487b7100000000000000000000000000000000000000000000000000000000600052601160045260246000fd5b8082028115828204841417612ef157612ef1612eab565b92915050565b600082612f2d577f4e487b7100000000000000000000000000000000000000000000000000000000600052601260045260246000fd5b500490565b81810381811115612ef157612ef1612eab565b80820180821115612ef157612ef1612eab565b7f4e487b7100000000000000000000000000000000000000000000000000000000600052604160045260246000fd5b7f4e487b7100000000000000000000000000000000000000000000000000000000600052603260045260246000fd5b600060208284031215612fc857600080fd5b8151612ea481612daa565b60007fffffffffffffffffffffffffffffffffffffffffffffffffffffffffffffffff820361300457613004612eab565b5060010190565b60008060008060008060c0878903121561302457600080fd5b865161302f81612daa565b602088015190965061304081612daa565b604088015190955061305181612daa565b606088015190945061306281612daa565b608088015190935061307381612daa565b60a088015190925061308481612dc2565b809150509295509295509295565b8060005b60028110156112fe578151845260209384019390910190600101613096565b6001600160a01b0384168152608081016130d26020830185613092565b826060830152949350505050565b8060005b60038110156112fe5781518452602093840193909101906001016130e4565b6001600160a01b038416815260a0810161312060208301856130e0565b826080830152949350505050565b8060005b60048110156112fe578151845260209384019390910190600101613132565b6001600160a01b038416815260c0810161316e602083018561312e565b8260a0830152949350505050565b8060005b60058110156112fe578151845260209384019390910190600101613180565b6001600160a01b038416815260e081016131bc602083018561317c565b8260c0830152949350505050565b606081016131d88285613092565b8260408301529392505050565b608081016131f382856130e0565b8260608301529392505050565b60a0810161320e828561312e565b8260808301529392505050565b60c08101613229828561317c565b8260a08301529392505050565b60005b83811015613251578181015183820152602001613239565b50506000910152565b6000825161326c818460208701613236565b9190910192915050565b6020815260008251806020840152613295816040850160208701613236565b601f017fffffffffffffffffffffffffffffffffffffffffffffffffffffffffffffffe016919091016040019291505056",
    "linkReferences": {}
  },
  "methodIdentifiers": {
    "CONVEX_BOOSTER()": "dad9bc14",
    "CURVE_TOKEN()": "e1b71bea",
    "CVX()": "759cb53b",
    "CVX_MAX_SUPPLY()": "0dff8095",
    "ETH()": "8322fff2",
    "WETH()": "ad5c4648",
    "claim()": "4e71d92d",
    "convexPid()": "86993bef",
    "convexRewardPool()": "dcd6f526",
    "curveLpToken()": "646780df",
    "curvePool()": "218751b2",
    "deposit(uint256,uint256)": "e2bbb158",
    "healthFactor()": "22841f01",
    "indexUint()": "f4811303",
    "initialize(address,address,uint256,uint256,address,bool,bool,int128)": "ad58bc75",
    "isHealthy()": "e4020804",
    "lpBalance()": "2059f615",
    "multiPoolStrategy()": "8dae8422",
    "rewardTokens(uint256)": "7bb7bed1",
    "setHealthFactor(uint256)": "31111708",
    "storedUnderlyingBalance()": "c4558463",
    "tokensLength()": "d92fc67b",
    "totalClaimable()": "4838ed19",
    "underlyingBalance()": "59356c5c",
    "underlyingToken()": "2495a599",
    "underlyingTokenPoolIndex()": "9c31aff4",
    "useEth()": "9b52474b",
    "withdraw(uint256,uint256)": "441a3e70",
    "zapper()": "a7a21712"
  },
  "id": 76
}