{
  "abi": [
    {
      "inputs": [],
      "name": "AccessControlBadConfirmation",
      "type": "error"
    },
    {
      "inputs": [
        {
          "internalType": "address",
          "name": "account",
          "type": "address"
        },
        {
          "internalType": "bytes32",
          "name": "neededRole",
          "type": "bytes32"
        }
      ],
      "name": "AccessControlUnauthorizedAccount",
      "type": "error"
    },
    {
      "inputs": [],
      "name": "ExceedBorrowQuota",
      "type": "error"
    },
    {
      "inputs": [],
      "name": "InvalidInitialization",
      "type": "error"
    },
    {
      "inputs": [],
      "name": "NotInitializing",
      "type": "error"
    },
    {
      "inputs": [],
      "name": "PositionNotLive",
      "type": "error"
    },
    {
      "anonymous": false,
      "inputs": [
        {
          "indexed": false,
          "internalType": "uint64",
          "name": "version",
          "type": "uint64"
        }
      ],
      "name": "Initialized",
      "type": "event"
    },
    {
      "anonymous": false,
      "inputs": [
        {
          "indexed": true,
          "internalType": "bytes32",
          "name": "role",
          "type": "bytes32"
        },
        {
          "indexed": true,
          "internalType": "bytes32",
          "name": "previousAdminRole",
          "type": "bytes32"
        },
        {
          "indexed": true,
          "internalType": "bytes32",
          "name": "newAdminRole",
          "type": "bytes32"
        }
      ],
      "name": "RoleAdminChanged",
      "type": "event"
    },
    {
      "anonymous": false,
      "inputs": [
        {
          "indexed": true,
          "internalType": "bytes32",
          "name": "role",
          "type": "bytes32"
        },
        {
          "indexed": true,
          "internalType": "address",
          "name": "account",
          "type": "address"
        },
        {
          "indexed": true,
          "internalType": "address",
          "name": "sender",
          "type": "address"
        }
      ],
      "name": "RoleGranted",
      "type": "event"
    },
    {
      "anonymous": false,
      "inputs": [
        {
          "indexed": true,
          "internalType": "bytes32",
          "name": "role",
          "type": "bytes32"
        },
        {
          "indexed": true,
          "internalType": "address",
          "name": "account",
          "type": "address"
        },
        {
          "indexed": true,
          "internalType": "address",
          "name": "sender",
          "type": "address"
        }
      ],
      "name": "RoleRevoked",
      "type": "event"
    },
    {
      "anonymous": false,
      "inputs": [
        {
          "indexed": true,
          "internalType": "address",
          "name": "strategy",
          "type": "address"
        },
        {
          "indexed": false,
          "internalType": "uint256",
          "name": "quota",
          "type": "uint256"
        },
        {
          "indexed": false,
          "internalType": "uint256",
          "name": "positionLifetime",
          "type": "uint256"
        },
        {
          "indexed": false,
          "internalType": "uint256",
          "name": "maximumMultiplier",
          "type": "uint256"
        },
        {
          "indexed": false,
          "internalType": "uint256",
          "name": "liquidationBuffer",
          "type": "uint256"
        },
        {
          "indexed": false,
          "internalType": "uint256",
          "name": "liquidationFee",
          "type": "uint256"
        }
      ],
      "name": "StrategyConfigUpdated",
      "type": "event"
    },
    {
      "anonymous": false,
      "inputs": [
        {
          "indexed": false,
          "internalType": "address",
          "name": "strategy",
          "type": "address"
        },
        {
          "indexed": false,
          "internalType": "uint256",
          "name": "fee",
          "type": "uint256"
        }
      ],
      "name": "StrategyLiquidationFeeUpdated",
      "type": "event"
    },
    {
      "anonymous": false,
      "inputs": [
        {
          "indexed": true,
          "internalType": "address",
          "name": "strategy",
          "type": "address"
        }
      ],
      "name": "StrategyRemoved",
      "type": "event"
    },
    {
      "inputs": [],
      "name": "DEFAULT_ADMIN_ROLE",
      "outputs": [
        {
          "internalType": "bytes32",
          "name": "",
          "type": "bytes32"
        }
      ],
      "stateMutability": "view",
      "type": "function"
    },
    {
      "inputs": [
        {
          "internalType": "address",
          "name": "strategy",
          "type": "address"
        },
        {
          "internalType": "uint256",
          "name": "wbtcDepositAmount",
          "type": "uint256"
        }
      ],
      "name": "getEstimateSharesForWBTCDeposit",
      "outputs": [
        {
          "internalType": "uint256",
          "name": "",
          "type": "uint256"
        }
      ],
      "stateMutability": "view",
      "type": "function"
    },
    {
      "inputs": [
        {
          "internalType": "address",
          "name": "strategy",
          "type": "address"
        }
      ],
      "name": "getLiquidationBuffer",
      "outputs": [
        {
          "internalType": "uint256",
          "name": "",
          "type": "uint256"
        }
      ],
      "stateMutability": "view",
      "type": "function"
    },
    {
      "inputs": [
        {
          "internalType": "address",
          "name": "strategy",
          "type": "address"
        }
      ],
      "name": "getLiquidationFee",
      "outputs": [
        {
          "internalType": "uint256",
          "name": "",
          "type": "uint256"
        }
      ],
      "stateMutability": "view",
      "type": "function"
    },
    {
      "inputs": [
        {
          "internalType": "address",
          "name": "strategy",
          "type": "address"
        }
      ],
      "name": "getMaximumMultiplier",
      "outputs": [
        {
          "internalType": "uint256",
          "name": "",
          "type": "uint256"
        }
      ],
      "stateMutability": "view",
      "type": "function"
    },
    {
      "inputs": [
        {
          "internalType": "address",
          "name": "strategy",
          "type": "address"
        }
      ],
      "name": "getPositionLifetime",
      "outputs": [
        {
          "internalType": "uint256",
          "name": "",
          "type": "uint256"
        }
      ],
      "stateMutability": "view",
      "type": "function"
    },
    {
      "inputs": [
        {
          "internalType": "address",
          "name": "strategy",
          "type": "address"
        }
      ],
      "name": "getQuota",
      "outputs": [
        {
          "internalType": "uint256",
          "name": "",
          "type": "uint256"
        }
      ],
      "stateMutability": "view",
      "type": "function"
    },
    {
      "inputs": [
        {
          "internalType": "bytes32",
          "name": "role",
          "type": "bytes32"
        }
      ],
      "name": "getRoleAdmin",
      "outputs": [
        {
          "internalType": "bytes32",
          "name": "",
          "type": "bytes32"
        }
      ],
      "stateMutability": "view",
      "type": "function"
    },
    {
      "inputs": [
        {
          "internalType": "address",
          "name": "strategy",
          "type": "address"
        }
      ],
      "name": "getStrategyValueAsset",
      "outputs": [
        {
          "internalType": "address",
          "name": "",
          "type": "address"
        }
      ],
      "stateMutability": "view",
      "type": "function"
    },
    {
      "inputs": [
        {
          "internalType": "address",
          "name": "token",
          "type": "address"
        },
        {
          "internalType": "uint256",
          "name": "wbtcAmount",
          "type": "uint256"
        }
      ],
      "name": "getTokenValueFromWBTCAmount",
      "outputs": [
        {
          "internalType": "uint256",
          "name": "",
          "type": "uint256"
        }
      ],
      "stateMutability": "view",
      "type": "function"
    },
    {
      "inputs": [
        {
          "internalType": "address",
          "name": "token",
          "type": "address"
        },
        {
          "internalType": "uint256",
          "name": "amount",
          "type": "uint256"
        }
      ],
      "name": "getWBTCValueFromTokenAmount",
      "outputs": [
        {
          "internalType": "uint256",
          "name": "",
          "type": "uint256"
        }
      ],
      "stateMutability": "view",
      "type": "function"
    },
    {
      "inputs": [
        {
          "internalType": "bytes32",
          "name": "role",
          "type": "bytes32"
        },
        {
          "internalType": "address",
          "name": "account",
          "type": "address"
        }
      ],
      "name": "grantRole",
      "outputs": [],
      "stateMutability": "nonpayable",
      "type": "function"
    },
    {
      "inputs": [
        {
          "internalType": "bytes32",
          "name": "role",
          "type": "bytes32"
        },
        {
          "internalType": "address",
          "name": "account",
          "type": "address"
        }
      ],
      "name": "hasRole",
      "outputs": [
        {
          "internalType": "bool",
          "name": "",
          "type": "bool"
        }
      ],
      "stateMutability": "view",
      "type": "function"
    },
    {
      "inputs": [],
      "name": "initialize",
      "outputs": [],
      "stateMutability": "nonpayable",
      "type": "function"
    },
    {
      "inputs": [
        {
          "internalType": "address",
          "name": "strategy",
          "type": "address"
        },
        {
          "internalType": "uint256",
          "name": "collateralAmount",
          "type": "uint256"
        },
        {
          "internalType": "uint256",
          "name": "borrowedAmount",
          "type": "uint256"
        }
      ],
      "name": "isCollateralToBorrowRatioAllowed",
      "outputs": [
        {
          "internalType": "bool",
          "name": "",
          "type": "bool"
        }
      ],
      "stateMutability": "view",
      "type": "function"
    },
    {
      "inputs": [
        {
          "internalType": "address",
          "name": "strategy",
          "type": "address"
        },
        {
          "internalType": "uint256",
          "name": "positionValue",
          "type": "uint256"
        },
        {
          "internalType": "uint256",
          "name": "debt",
          "type": "uint256"
        }
      ],
      "name": "isPositionLiquidatable",
      "outputs": [
        {
          "internalType": "bool",
          "name": "",
          "type": "bool"
        }
      ],
      "stateMutability": "view",
      "type": "function"
    },
    {
      "inputs": [
        {
          "internalType": "uint256",
          "name": "nftId",
          "type": "uint256"
        }
      ],
      "name": "isPositionLiquidatable",
      "outputs": [
        {
          "internalType": "bool",
          "name": "",
          "type": "bool"
        }
      ],
      "stateMutability": "view",
      "type": "function"
    },
    {
      "inputs": [
        {
          "internalType": "uint256",
          "name": "nftId",
          "type": "uint256"
        }
      ],
      "name": "previewPositionValueInWBTC",
      "outputs": [
        {
          "internalType": "uint256",
          "name": "",
          "type": "uint256"
        }
      ],
      "stateMutability": "view",
      "type": "function"
    },
    {
      "inputs": [
        {
          "internalType": "address",
          "name": "strategy",
          "type": "address"
        },
        {
          "internalType": "uint256",
          "name": "amount",
          "type": "uint256"
        }
      ],
      "name": "reduceQuotaBy",
      "outputs": [],
      "stateMutability": "nonpayable",
      "type": "function"
    },
    {
      "inputs": [
        {
          "internalType": "address",
          "name": "strategy",
          "type": "address"
        }
      ],
      "name": "removeStrategy",
      "outputs": [],
      "stateMutability": "nonpayable",
      "type": "function"
    },
    {
      "inputs": [
        {
          "internalType": "bytes32",
          "name": "role",
          "type": "bytes32"
        },
        {
          "internalType": "address",
          "name": "callerConfirmation",
          "type": "address"
        }
      ],
      "name": "renounceRole",
      "outputs": [],
      "stateMutability": "nonpayable",
      "type": "function"
    },
    {
      "inputs": [
        {
          "internalType": "bytes32",
          "name": "role",
          "type": "bytes32"
        },
        {
          "internalType": "address",
          "name": "account",
          "type": "address"
        }
      ],
      "name": "revokeRole",
      "outputs": [],
      "stateMutability": "nonpayable",
      "type": "function"
    },
    {
      "inputs": [
        {
          "components": [
            {
              "internalType": "address",
              "name": "expiredVault",
              "type": "address"
            },
            {
              "internalType": "address",
              "name": "leverageDepositor",
              "type": "address"
            },
            {
              "internalType": "address",
              "name": "positionToken",
              "type": "address"
            },
            {
              "internalType": "address",
              "name": "wbtcVault",
              "type": "address"
            },
            {
              "internalType": "address",
              "name": "proxyAdmin",
              "type": "address"
            },
            {
              "internalType": "address",
              "name": "leveragedStrategy",
              "type": "address"
            },
            {
              "internalType": "address",
              "name": "protocolParameters",
              "type": "address"
            },
            {
              "internalType": "address",
              "name": "oracleManager",
              "type": "address"
            },
            {
              "internalType": "address",
              "name": "positionOpener",
              "type": "address"
            },
            {
              "internalType": "address",
              "name": "positionCloser",
              "type": "address"
            },
            {
              "internalType": "address",
              "name": "positionLedger",
              "type": "address"
            },
            {
              "internalType": "address",
              "name": "swapManager",
              "type": "address"
            }
          ],
          "internalType": "struct DependencyAddresses",
          "name": "dependencies",
          "type": "tuple"
        }
      ],
      "name": "setDependencies",
      "outputs": [],
      "stateMutability": "nonpayable",
      "type": "function"
    },
    {
      "inputs": [
        {
          "internalType": "address",
          "name": "strategy",
          "type": "address"
        },
        {
          "internalType": "uint256",
          "name": "fee",
          "type": "uint256"
        }
      ],
      "name": "setLiquidationFee",
      "outputs": [],
      "stateMutability": "nonpayable",
      "type": "function"
    },
    {
      "inputs": [
        {
          "internalType": "address",
          "name": "strategy",
          "type": "address"
        },
        {
          "internalType": "uint256",
          "name": "quota",
          "type": "uint256"
        }
      ],
      "name": "setQuota",
      "outputs": [],
      "stateMutability": "nonpayable",
      "type": "function"
    },
    {
      "inputs": [
        {
          "internalType": "address",
          "name": "strategy",
          "type": "address"
        },
        {
          "components": [
            {
              "internalType": "uint256",
              "name": "quota",
              "type": "uint256"
            },
            {
              "internalType": "uint256",
              "name": "positionLifetime",
              "type": "uint256"
            },
            {
              "internalType": "uint256",
              "name": "maximumMultiplier",
              "type": "uint256"
            },
            {
              "internalType": "uint256",
              "name": "liquidationBuffer",
              "type": "uint256"
            },
            {
              "internalType": "uint256",
              "name": "liquidationFee",
              "type": "uint256"
            }
          ],
          "internalType": "struct LeveragedStrategy.StrategyConfig",
          "name": "config",
          "type": "tuple"
        }
      ],
      "name": "setStrategyConfig",
      "outputs": [],
      "stateMutability": "nonpayable",
      "type": "function"
    },
    {
      "inputs": [
        {
          "internalType": "bytes4",
          "name": "interfaceId",
          "type": "bytes4"
        }
      ],
      "name": "supportsInterface",
      "outputs": [
        {
          "internalType": "bool",
          "name": "",
          "type": "bool"
        }
      ],
      "stateMutability": "view",
      "type": "function"
    }
  ],
  "bytecode": {
    "object": "0x608060405234801561001057600080fd5b5061217b806100206000396000f3fe608060405234801561001057600080fd5b50600436106101b95760003560e01c806374b1dcc2116100f9578063a7a0032a11610097578063c902828c11610071578063c902828c14610498578063d547741f146104ab578063d6061ea6146104be578063f638ac0e146104f657600080fd5b8063a7a0032a14610439578063bd4a5c6f14610472578063bf33bd4c1461048557600080fd5b806391cf0cd5116100d357806391cf0cd51461038057806391d14854146103935780639417a3a2146103f8578063a217fddf1461043157600080fd5b806374b1dcc214610352578063786fcdc4146103655780638129fc1c1461037857600080fd5b80632f2ff15d1161016657806343a2a3021161014057806343a2a302146102bd5780634460d43c146102f357806357ea80cf1461030657806361acf8d51461031957600080fd5b80632f2ff15d1461028457806336568abe146102975780634237af46146102aa57600080fd5b8063175188e811610197578063175188e81461020e5780632454176514610221578063248a9ca31461024257600080fd5b806301ffc9a7146101be57806302b39806146101e657806303ce3355146101fb575b600080fd5b6101d16101cc366004611d36565b61052f565b60405190151581526020015b60405180910390f35b6101f96101f4366004611d78565b6105c8565b005b6101f9610209366004611db3565b6106df565b6101f961021c366004611ddf565b610733565b61023461022f366004611db3565b6107af565b6040519081526020016101dd565b610234610250366004611dfc565b60009081527f02dd7bc7dec4dceedda775e58dd541e08a116c6c53815c0bd028192f7b626800602052604090206001015490565b6101f9610292366004611e15565b610922565b6101f96102a5366004611e15565b61096c565b6101d16102b8366004611e45565b6109ca565b6102346102cb366004611ddf565b73ffffffffffffffffffffffffffffffffffffffff1660009081526020819052604090205490565b6101d1610301366004611dfc565b610a2e565b6101f9610314366004611e7a565b610c5c565b610234610327366004611ddf565b73ffffffffffffffffffffffffffffffffffffffff1660009081526020819052604090206004015490565b6101f9610360366004611db3565b610d2e565b6101d1610373366004611e45565b610df6565b6101f9610e5a565b61023461038e366004611db3565b611003565b6101d16103a1366004611e15565b60009182527f02dd7bc7dec4dceedda775e58dd541e08a116c6c53815c0bd028192f7b6268006020908152604080842073ffffffffffffffffffffffffffffffffffffffff93909316845291905290205460ff1690565b610234610406366004611ddf565b73ffffffffffffffffffffffffffffffffffffffff1660009081526020819052604090206003015490565b610234600081565b610234610447366004611ddf565b73ffffffffffffffffffffffffffffffffffffffff1660009081526020819052604090206002015490565b610234610480366004611dfc565b61116c565b6101f9610493366004611db3565b6113b1565b6102346104a6366004611db3565b611442565b6101f96104b9366004611e15565b6114ee565b6104d16104cc366004611ddf565b611532565b60405173ffffffffffffffffffffffffffffffffffffffff90911681526020016101dd565b610234610504366004611ddf565b73ffffffffffffffffffffffffffffffffffffffff1660009081526020819052604090206001015490565b60007fffffffff0000000000000000000000000000000000000000000000000000000082167f7965db0b0000000000000000000000000000000000000000000000000000000014806105c257507f01ffc9a7000000000000000000000000000000000000000000000000000000007fffffffff000000000000000000000000000000000000000000000000000000008316145b92915050565b7fa49807205ce4d355092ef5a8a18f56e8913cf4a201fbe287825b095693c217756105f2816115a3565b61062d7f95527396ef7079b4e7aa0523dff07d638fe39b8ce08d979dae99f15bb34c2b8f61062861012085016101008601611ddf565b6115b0565b5061064061016083016101408401611ddf565b600180547fffffffffffffffffffffffff00000000000000000000000000000000000000001673ffffffffffffffffffffffffffffffffffffffff92909216919091179055610696610100830160e08401611ddf565b600280547fffffffffffffffffffffffff00000000000000000000000000000000000000001673ffffffffffffffffffffffffffffffffffffffff929092169190911790555050565b7fa49807205ce4d355092ef5a8a18f56e8913cf4a201fbe287825b095693c21775610709816115a3565b5073ffffffffffffffffffffffffffffffffffffffff909116600090815260208190526040902055565b7fa49807205ce4d355092ef5a8a18f56e8913cf4a201fbe287825b095693c2177561075d816115a3565b73ffffffffffffffffffffffffffffffffffffffff8216600081815260208190526040808220829055517f09a1db4b80c32706328728508c941a6b954f31eb5affd32f236c1fd405f8fea49190a25050565b6002546040517fc871f1ed00000000000000000000000000000000000000000000000000000000815273ffffffffffffffffffffffffffffffffffffffff8481166004830152600092839291169063c871f1ed90602401602060405180830381865afa158015610823573d6000803e3d6000fd5b505050506040513d601f19601f820116820180604052508101906108479190611ed9565b6002546040517fc871f1ed000000000000000000000000000000000000000000000000000000008152732260fac5e5542a773aa44fbcfedf7c193bc2c599600482015291925060009173ffffffffffffffffffffffffffffffffffffffff9091169063c871f1ed90602401602060405180830381865afa1580156108cf573d6000803e3d6000fd5b505050506040513d601f19601f820116820180604052508101906108f39190611ed9565b90506000826109028387611f21565b61090c9190611f38565b905061091886826116d1565b9695505050505050565b60008281527f02dd7bc7dec4dceedda775e58dd541e08a116c6c53815c0bd028192f7b626800602052604090206001015461095c816115a3565b61096683836115b0565b50505050565b73ffffffffffffffffffffffffffffffffffffffff811633146109bb576040517f6697b23200000000000000000000000000000000000000000000000000000000815260040160405180910390fd5b6109c58282611907565b505050565b60006109d86008600a612093565b73ffffffffffffffffffffffffffffffffffffffff8516600090815260208190526040902060030154610a0b9084611f21565b610a159190611f38565b8311610a2357506001610a27565b5060005b9392505050565b6000600180546040517feb29dc5e0000000000000000000000000000000000000000000000000000000081526004810185905273ffffffffffffffffffffffffffffffffffffffff9091169063eb29dc5e90602401602060405180830381865afa158015610aa0573d6000803e3d6000fd5b505050506040513d601f19601f82011682018060405250810190610ac491906120ce565b6004811115610ad557610ad561209f565b14610b0c576040517f5117a49b00000000000000000000000000000000000000000000000000000000815260040160405180910390fd5b6001546040517f6ccf2fa70000000000000000000000000000000000000000000000000000000081526004810184905260009173ffffffffffffffffffffffffffffffffffffffff1690636ccf2fa790602401602060405180830381865afa158015610b7c573d6000803e3d6000fd5b505050506040513d601f19601f82011682018060405250810190610ba091906120ef565b90506000610bad8461116c565b6001546040517facd722730000000000000000000000000000000000000000000000000000000081526004810187905291925060009173ffffffffffffffffffffffffffffffffffffffff9091169063acd7227390602401602060405180830381865afa158015610c22573d6000803e3d6000fd5b505050506040513d601f19601f82011682018060405250810190610c469190611ed9565b9050610c538383836109ca565b95945050505050565b7fa49807205ce4d355092ef5a8a18f56e8913cf4a201fbe287825b095693c21775610c86816115a3565b73ffffffffffffffffffffffffffffffffffffffff8316600081815260208181526040918290208535808255868301356001830181905587850135600284018190556060808a0135600386018190556080808c01356004909701879055885195865296850193909352838701919091528201529182015290517fd733ec91249b5eac3c9bde7c1402844b5ed1730dfc8424615952daad6ff9c1199181900360a00190a2505050565b7f95527396ef7079b4e7aa0523dff07d638fe39b8ce08d979dae99f15bb34c2b8f610d58816115a3565b73ffffffffffffffffffffffffffffffffffffffff8316600090815260208190526040902054821115610db7576040517fd7f5242d00000000000000000000000000000000000000000000000000000000815260040160405180910390fd5b73ffffffffffffffffffffffffffffffffffffffff831660009081526020819052604081208054849290610dec90849061210c565b9091555050505050565b600081610e056008600a612093565b73ffffffffffffffffffffffffffffffffffffffff8616600090815260208190526040902060020154610e389086611f21565b610e429190611f38565b1015610e5057506000610a27565b5060019392505050565b7ff0c57e16840df040f15088dc2f81fe391c3923bec73e23a9662efc9c229c6a00805468010000000000000000810460ff16159067ffffffffffffffff16600081158015610ea55750825b905060008267ffffffffffffffff166001148015610ec25750303b155b905081158015610ed0575080155b15610f07576040517ff92ee8a900000000000000000000000000000000000000000000000000000000815260040160405180910390fd5b84547fffffffffffffffffffffffffffffffffffffffffffffffff00000000000000001660011785558315610f685784547fffffffffffffffffffffffffffffffffffffffffffffff00ffffffffffffffff16680100000000000000001785555b610f706119e5565b610f9a7fa49807205ce4d355092ef5a8a18f56e8913cf4a201fbe287825b095693c21775336115b0565b508315610ffc5784547fffffffffffffffffffffffffffffffffffffffffffffff00ffffffffffffffff168555604051600181527fc7f505b2f371ae2175ee4913f4499e1f2633a7b5936321eed1cdaeb6115181d29060200160405180910390a15b5050505050565b6002546040517fc871f1ed00000000000000000000000000000000000000000000000000000000815273ffffffffffffffffffffffffffffffffffffffff8481166004830152600092839291169063c871f1ed90602401602060405180830381865afa158015611077573d6000803e3d6000fd5b505050506040513d601f19601f8201168201806040525081019061109b9190611ed9565b6002546040517fc871f1ed000000000000000000000000000000000000000000000000000000008152732260fac5e5542a773aa44fbcfedf7c193bc2c599600482015291925060009173ffffffffffffffffffffffffffffffffffffffff9091169063c871f1ed90602401602060405180830381865afa158015611123573d6000803e3d6000fd5b505050506040513d601f19601f820116820180604052508101906111479190611ed9565b90506000816111568487611f21565b6111609190611f38565b905061091886826119ef565b6001546040517f7d711daa00000000000000000000000000000000000000000000000000000000815260048101839052600091829173ffffffffffffffffffffffffffffffffffffffff90911690637d711daa90602401602060405180830381865afa1580156111e0573d6000803e3d6000fd5b505050506040513d601f19601f820116820180604052508101906112049190611ed9565b6001546040517f6ccf2fa70000000000000000000000000000000000000000000000000000000081526004810186905291925060009173ffffffffffffffffffffffffffffffffffffffff90911690636ccf2fa790602401602060405180830381865afa158015611279573d6000803e3d6000fd5b505050506040513d601f19601f8201168201806040525081019061129d91906120ef565b6040517f07a2d13a0000000000000000000000000000000000000000000000000000000081526004810184905290915060009073ffffffffffffffffffffffffffffffffffffffff8316906307a2d13a90602401602060405180830381865afa15801561130e573d6000803e3d6000fd5b505050506040513d601f19601f820116820180604052508101906113329190611ed9565b905060008273ffffffffffffffffffffffffffffffffffffffff166338d52e0f6040518163ffffffff1660e01b8152600401602060405180830381865afa158015611381573d6000803e3d6000fd5b505050506040513d601f19601f820116820180604052508101906113a591906120ef565b90506109188183611003565b7fa49807205ce4d355092ef5a8a18f56e8913cf4a201fbe287825b095693c217756113db816115a3565b73ffffffffffffffffffffffffffffffffffffffff831660008181526020818152604091829020600401859055815192835282018490527f7013c78cf45095e211c87beaa83011e28b800d6b1fe358991b3fd9db001ef566910160405180910390a1505050565b60008061144e84611532565b9050600061145c82856107af565b6040517fef8b30f70000000000000000000000000000000000000000000000000000000081526004810182905290915073ffffffffffffffffffffffffffffffffffffffff86169063ef8b30f790602401602060405180830381865afa1580156114ca573d6000803e3d6000fd5b505050506040513d601f19601f82011682018060405250810190610c539190611ed9565b60008281527f02dd7bc7dec4dceedda775e58dd541e08a116c6c53815c0bd028192f7b6268006020526040902060010154611528816115a3565b6109668383611907565b60008173ffffffffffffffffffffffffffffffffffffffff166338d52e0f6040518163ffffffff1660e01b8152600401602060405180830381865afa15801561157f573d6000803e3d6000fd5b505050506040513d601f19601f820116820180604052508101906105c291906120ef565b6115ad8133611c20565b50565b60008281527f02dd7bc7dec4dceedda775e58dd541e08a116c6c53815c0bd028192f7b6268006020818152604080842073ffffffffffffffffffffffffffffffffffffffff8616855290915282205460ff166116c75760008481526020828152604080832073ffffffffffffffffffffffffffffffffffffffff87168452909152902080547fffffffffffffffffffffffffffffffffffffffffffffffffffffffffffffff001660011790556116633390565b73ffffffffffffffffffffffffffffffffffffffff168373ffffffffffffffffffffffffffffffffffffffff16857f2f8788117e7eff1d82e926ec794901d17c78024a50270940304540a733656f0d60405160405180910390a460019150506105c2565b60009150506105c2565b6000808373ffffffffffffffffffffffffffffffffffffffff1663313ce5676040518163ffffffff1660e01b8152600401602060405180830381865afa15801561171f573d6000803e3d6000fd5b505050506040513d601f19601f82011682018060405250810190611743919061211f565b6002546040517fadeee5dc00000000000000000000000000000000000000000000000000000000815273ffffffffffffffffffffffffffffffffffffffff87811660048301529293506000929091169063adeee5dc90602401602060405180830381865afa1580156117b9573d6000803e3d6000fd5b505050506040513d601f19601f820116820180604052508101906117dd919061211f565b6002546040517fadeee5dc000000000000000000000000000000000000000000000000000000008152732260fac5e5542a773aa44fbcfedf7c193bc2c599600482015291925060009173ffffffffffffffffffffffffffffffffffffffff9091169063adeee5dc90602401602060405180830381865afa158015611865573d6000803e3d6000fd5b505050506040513d601f19601f82011682018060405250810190611889919061211f565b905060008260ff168260ff1660086118a19190612142565b6118ab919061210c565b90508360ff168111156118e5576118c560ff85168261210c565b6118d090600a612093565b6118da9087611f38565b9450505050506105c2565b6118f28160ff861661210c565b6118fd90600a612093565b6118da9087611f21565b60008281527f02dd7bc7dec4dceedda775e58dd541e08a116c6c53815c0bd028192f7b6268006020818152604080842073ffffffffffffffffffffffffffffffffffffffff8616855290915282205460ff16156116c75760008481526020828152604080832073ffffffffffffffffffffffffffffffffffffffff8716808552925280832080547fffffffffffffffffffffffffffffffffffffffffffffffffffffffffffffff0016905551339287917ff6391f5c32d9c69d2a47ea670b442974b53935d1edc7fd64eb21e047a839171b9190a460019150506105c2565b6119ed611ccf565b565b6000808373ffffffffffffffffffffffffffffffffffffffff1663313ce5676040518163ffffffff1660e01b8152600401602060405180830381865afa158015611a3d573d6000803e3d6000fd5b505050506040513d601f19601f82011682018060405250810190611a61919061211f565b6002546040517fadeee5dc00000000000000000000000000000000000000000000000000000000815273ffffffffffffffffffffffffffffffffffffffff87811660048301529293506000929091169063adeee5dc90602401602060405180830381865afa158015611ad7573d6000803e3d6000fd5b505050506040513d601f19601f82011682018060405250810190611afb919061211f565b6002546040517fadeee5dc000000000000000000000000000000000000000000000000000000008152732260fac5e5542a773aa44fbcfedf7c193bc2c599600482015291925060009173ffffffffffffffffffffffffffffffffffffffff9091169063adeee5dc90602401602060405180830381865afa158015611b83573d6000803e3d6000fd5b505050506040513d601f19601f82011682018060405250810190611ba7919061211f565b90506000611bb58385612155565b60ff169050600060088360ff16611bcc9190612142565b905080821115611c0157611be0818361210c565b611beb90600a612093565b611bf59088611f38565b955050505050506105c2565b611c0b828261210c565b611c1690600a612093565b611bf59088611f21565b60008281527f02dd7bc7dec4dceedda775e58dd541e08a116c6c53815c0bd028192f7b6268006020908152604080832073ffffffffffffffffffffffffffffffffffffffff8516845290915290205460ff16611ccb576040517fe2517d3f00000000000000000000000000000000000000000000000000000000815273ffffffffffffffffffffffffffffffffffffffff821660048201526024810183905260440160405180910390fd5b5050565b7ff0c57e16840df040f15088dc2f81fe391c3923bec73e23a9662efc9c229c6a005468010000000000000000900460ff166119ed576040517fd7e6bcf800000000000000000000000000000000000000000000000000000000815260040160405180910390fd5b600060208284031215611d4857600080fd5b81357fffffffff0000000000000000000000000000000000000000000000000000000081168114610a2757600080fd5b60006101808284031215611d8b57600080fd5b50919050565b73ffffffffffffffffffffffffffffffffffffffff811681146115ad57600080fd5b60008060408385031215611dc657600080fd5b8235611dd181611d91565b946020939093013593505050565b600060208284031215611df157600080fd5b8135610a2781611d91565b600060208284031215611e0e57600080fd5b5035919050565b60008060408385031215611e2857600080fd5b823591506020830135611e3a81611d91565b809150509250929050565b600080600060608486031215611e5a57600080fd5b8335611e6581611d91565b95602085013595506040909401359392505050565b60008082840360c0811215611e8e57600080fd5b8335611e9981611d91565b925060a07fffffffffffffffffffffffffffffffffffffffffffffffffffffffffffffffe082011215611ecb57600080fd5b506020830190509250929050565b600060208284031215611eeb57600080fd5b5051919050565b7f4e487b7100000000000000000000000000000000000000000000000000000000600052601160045260246000fd5b80820281158282048414176105c2576105c2611ef2565b600082611f6e577f4e487b7100000000000000000000000000000000000000000000000000000000600052601260045260246000fd5b500490565b600181815b80851115611fcc57817fffffffffffffffffffffffffffffffffffffffffffffffffffffffffffffffff04821115611fb257611fb2611ef2565b80851615611fbf57918102915b93841c9390800290611f78565b509250929050565b600082611fe3575060016105c2565b81611ff0575060006105c2565b816001811461200657600281146120105761202c565b60019150506105c2565b60ff84111561202157612021611ef2565b50506001821b6105c2565b5060208310610133831016604e8410600b841016171561204f575081810a6105c2565b6120598383611f73565b807fffffffffffffffffffffffffffffffffffffffffffffffffffffffffffffffff0482111561208b5761208b611ef2565b029392505050565b6000610a278383611fd4565b7f4e487b7100000000000000000000000000000000000000000000000000000000600052602160045260246000fd5b6000602082840312156120e057600080fd5b815160058110610a2757600080fd5b60006020828403121561210157600080fd5b8151610a2781611d91565b818103818111156105c2576105c2611ef2565b60006020828403121561213157600080fd5b815160ff81168114610a2757600080fd5b808201808211156105c2576105c2611ef2565b60ff81811683821601908111156105c2576105c2611ef256fea164736f6c6343000815000a",
    "linkReferences": {}
  },
  "methodIdentifiers": {
    "DEFAULT_ADMIN_ROLE()": "a217fddf",
    "getEstimateSharesForWBTCDeposit(address,uint256)": "c902828c",
    "getLiquidationBuffer(address)": "9417a3a2",
    "getLiquidationFee(address)": "61acf8d5",
    "getMaximumMultiplier(address)": "a7a0032a",
    "getPositionLifetime(address)": "f638ac0e",
    "getQuota(address)": "43a2a302",
    "getRoleAdmin(bytes32)": "248a9ca3",
    "getStrategyValueAsset(address)": "d6061ea6",
    "getTokenValueFromWBTCAmount(address,uint256)": "24541765",
    "getWBTCValueFromTokenAmount(address,uint256)": "91cf0cd5",
    "grantRole(bytes32,address)": "2f2ff15d",
    "hasRole(bytes32,address)": "91d14854",
    "initialize()": "8129fc1c",
    "isCollateralToBorrowRatioAllowed(address,uint256,uint256)": "786fcdc4",
    "isPositionLiquidatable(address,uint256,uint256)": "4237af46",
    "isPositionLiquidatable(uint256)": "4460d43c",
    "previewPositionValueInWBTC(uint256)": "bd4a5c6f",
    "reduceQuotaBy(address,uint256)": "74b1dcc2",
    "removeStrategy(address)": "175188e8",
    "renounceRole(bytes32,address)": "36568abe",
    "revokeRole(bytes32,address)": "d547741f",
    "setDependencies((address,address,address,address,address,address,address,address,address,address,address,address))": "02b39806",
    "setLiquidationFee(address,uint256)": "bf33bd4c",
    "setQuota(address,uint256)": "03ce3355",
    "setStrategyConfig(address,(uint256,uint256,uint256,uint256,uint256))": "57ea80cf",
    "supportsInterface(bytes4)": "01ffc9a7"
  },
  "id": 56
}