{"abi":[{"type":"constructor","inputs":[],"stateMutability":"nonpayable"},{"type":"function","name":"DEFAULT_ADMIN_ROLE","inputs":[],"outputs":[{"name":"","type":"bytes32","internalType":"bytes32"}],"stateMutability":"view"},{"type":"function","name":"getEstimateSharesForWBTCDeposit","inputs":[{"name":"strategy","type":"address","internalType":"address"},{"name":"wbtcDepositAmount","type":"uint256","internalType":"uint256"}],"outputs":[{"name":"","type":"uint256","internalType":"uint256"}],"stateMutability":"view"},{"type":"function","name":"getLiquidationBuffer","inputs":[{"name":"strategy","type":"address","internalType":"address"}],"outputs":[{"name":"","type":"uint256","internalType":"uint256"}],"stateMutability":"view"},{"type":"function","name":"getLiquidationFee","inputs":[{"name":"strategy","type":"address","internalType":"address"}],"outputs":[{"name":"","type":"uint256","internalType":"uint256"}],"stateMutability":"view"},{"type":"function","name":"getMaximumMultiplier","inputs":[{"name":"strategy","type":"address","internalType":"address"}],"outputs":[{"name":"","type":"uint256","internalType":"uint256"}],"stateMutability":"view"},{"type":"function","name":"getPositionLifetimeInBlocks","inputs":[{"name":"strategy","type":"address","internalType":"address"}],"outputs":[{"name":"","type":"uint256","internalType":"uint256"}],"stateMutability":"view"},{"type":"function","name":"getQuota","inputs":[{"name":"strategy","type":"address","internalType":"address"}],"outputs":[{"name":"","type":"uint256","internalType":"uint256"}],"stateMutability":"view"},{"type":"function","name":"getRoleAdmin","inputs":[{"name":"role","type":"bytes32","internalType":"bytes32"}],"outputs":[{"name":"","type":"bytes32","internalType":"bytes32"}],"stateMutability":"view"},{"type":"function","name":"getStrategyConfig","inputs":[{"name":"strategy","type":"address","internalType":"address"}],"outputs":[{"name":"","type":"tuple","internalType":"struct LeveragedStrategy.StrategyConfig","components":[{"name":"quota","type":"uint256","internalType":"uint256"},{"name":"positionLifetimeInBlocks","type":"uint256","internalType":"uint256"},{"name":"maximumMultiplier","type":"uint256","internalType":"uint256"},{"name":"liquidationBuffer","type":"uint256","internalType":"uint256"},{"name":"liquidationFee","type":"uint256","internalType":"uint256"}]}],"stateMutability":"view"},{"type":"function","name":"getStrategyValueAsset","inputs":[{"name":"strategy","type":"address","internalType":"address"}],"outputs":[{"name":"","type":"address","internalType":"address"}],"stateMutability":"view"},{"type":"function","name":"getTokenValueFromWBTCAmount","inputs":[{"name":"token","type":"address","internalType":"address"},{"name":"wbtcAmount","type":"uint256","internalType":"uint256"}],"outputs":[{"name":"","type":"uint256","internalType":"uint256"}],"stateMutability":"view"},{"type":"function","name":"getWBTCValueFromTokenAmount","inputs":[{"name":"token","type":"address","internalType":"address"},{"name":"amount","type":"uint256","internalType":"uint256"}],"outputs":[{"name":"","type":"uint256","internalType":"uint256"}],"stateMutability":"view"},{"type":"function","name":"grantRole","inputs":[{"name":"role","type":"bytes32","internalType":"bytes32"},{"name":"account","type":"address","internalType":"address"}],"outputs":[],"stateMutability":"nonpayable"},{"type":"function","name":"hasRole","inputs":[{"name":"role","type":"bytes32","internalType":"bytes32"},{"name":"account","type":"address","internalType":"address"}],"outputs":[{"name":"","type":"bool","internalType":"bool"}],"stateMutability":"view"},{"type":"function","name":"initialize","inputs":[],"outputs":[],"stateMutability":"nonpayable"},{"type":"function","name":"isCollateralToBorrowRatioAllowed","inputs":[{"name":"strategy","type":"address","internalType":"address"},{"name":"collateralAmount","type":"uint256","internalType":"uint256"},{"name":"borrowedAmount","type":"uint256","internalType":"uint256"}],"outputs":[{"name":"","type":"bool","internalType":"bool"}],"stateMutability":"view"},{"type":"function","name":"isPositionLiquidatable","inputs":[{"name":"strategy","type":"address","internalType":"address"},{"name":"positionValue","type":"uint256","internalType":"uint256"},{"name":"debt","type":"uint256","internalType":"uint256"}],"outputs":[{"name":"","type":"bool","internalType":"bool"}],"stateMutability":"view"},{"type":"function","name":"isPositionLiquidatableEstimation","inputs":[{"name":"nftId","type":"uint256","internalType":"uint256"}],"outputs":[{"name":"","type":"bool","internalType":"bool"}],"stateMutability":"view"},{"type":"function","name":"oracleManager","inputs":[],"outputs":[{"name":"","type":"address","internalType":"contract OracleManager"}],"stateMutability":"view"},{"type":"function","name":"positionLedger","inputs":[],"outputs":[{"name":"","type":"address","internalType":"contract PositionLedger"}],"stateMutability":"view"},{"type":"function","name":"previewPositionValueInWBTC","inputs":[{"name":"nftId","type":"uint256","internalType":"uint256"}],"outputs":[{"name":"","type":"uint256","internalType":"uint256"}],"stateMutability":"view"},{"type":"function","name":"protocolParameters","inputs":[],"outputs":[{"name":"","type":"address","internalType":"contract ProtocolParameters"}],"stateMutability":"view"},{"type":"function","name":"reduceQuotaBy","inputs":[{"name":"strategy","type":"address","internalType":"address"},{"name":"amount","type":"uint256","internalType":"uint256"}],"outputs":[],"stateMutability":"nonpayable"},{"type":"function","name":"removeStrategy","inputs":[{"name":"strategy","type":"address","internalType":"address"}],"outputs":[],"stateMutability":"nonpayable"},{"type":"function","name":"renounceRole","inputs":[{"name":"role","type":"bytes32","internalType":"bytes32"},{"name":"callerConfirmation","type":"address","internalType":"address"}],"outputs":[],"stateMutability":"nonpayable"},{"type":"function","name":"revokeRole","inputs":[{"name":"role","type":"bytes32","internalType":"bytes32"},{"name":"account","type":"address","internalType":"address"}],"outputs":[],"stateMutability":"nonpayable"},{"type":"function","name":"setDependencies","inputs":[{"name":"dependencies","type":"tuple","internalType":"struct DependencyAddresses","components":[{"name":"expiredVault","type":"address","internalType":"address"},{"name":"leverageDepositor","type":"address","internalType":"address"},{"name":"positionToken","type":"address","internalType":"address"},{"name":"wbtcVault","type":"address","internalType":"address"},{"name":"proxyAdmin","type":"address","internalType":"address"},{"name":"leveragedStrategy","type":"address","internalType":"address"},{"name":"protocolParameters","type":"address","internalType":"address"},{"name":"oracleManager","type":"address","internalType":"address"},{"name":"positionOpener","type":"address","internalType":"address"},{"name":"positionCloser","type":"address","internalType":"address"},{"name":"positionLiquidator","type":"address","internalType":"address"},{"name":"positionExpirator","type":"address","internalType":"address"},{"name":"positionLedger","type":"address","internalType":"address"},{"name":"swapManager","type":"address","internalType":"address"},{"name":"lvBTC","type":"address","internalType":"address"},{"name":"lvBTCCurvePool","type":"address","internalType":"address"}]}],"outputs":[],"stateMutability":"nonpayable"},{"type":"function","name":"setLiquidationFee","inputs":[{"name":"strategy","type":"address","internalType":"address"},{"name":"fee","type":"uint256","internalType":"uint256"}],"outputs":[],"stateMutability":"nonpayable"},{"type":"function","name":"setQuota","inputs":[{"name":"strategy","type":"address","internalType":"address"},{"name":"quota","type":"uint256","internalType":"uint256"}],"outputs":[],"stateMutability":"nonpayable"},{"type":"function","name":"setStrategyConfig","inputs":[{"name":"strategy","type":"address","internalType":"address"},{"name":"config","type":"tuple","internalType":"struct LeveragedStrategy.StrategyConfig","components":[{"name":"quota","type":"uint256","internalType":"uint256"},{"name":"positionLifetimeInBlocks","type":"uint256","internalType":"uint256"},{"name":"maximumMultiplier","type":"uint256","internalType":"uint256"},{"name":"liquidationBuffer","type":"uint256","internalType":"uint256"},{"name":"liquidationFee","type":"uint256","internalType":"uint256"}]}],"outputs":[],"stateMutability":"nonpayable"},{"type":"function","name":"supportsInterface","inputs":[{"name":"interfaceId","type":"bytes4","internalType":"bytes4"}],"outputs":[{"name":"","type":"bool","internalType":"bool"}],"stateMutability":"view"},{"type":"event","name":"Initialized","inputs":[{"name":"version","type":"uint64","indexed":false,"internalType":"uint64"}],"anonymous":false},{"type":"event","name":"RoleAdminChanged","inputs":[{"name":"role","type":"bytes32","indexed":true,"internalType":"bytes32"},{"name":"previousAdminRole","type":"bytes32","indexed":true,"internalType":"bytes32"},{"name":"newAdminRole","type":"bytes32","indexed":true,"internalType":"bytes32"}],"anonymous":false},{"type":"event","name":"RoleGranted","inputs":[{"name":"role","type":"bytes32","indexed":true,"internalType":"bytes32"},{"name":"account","type":"address","indexed":true,"internalType":"address"},{"name":"sender","type":"address","indexed":true,"internalType":"address"}],"anonymous":false},{"type":"event","name":"RoleRevoked","inputs":[{"name":"role","type":"bytes32","indexed":true,"internalType":"bytes32"},{"name":"account","type":"address","indexed":true,"internalType":"address"},{"name":"sender","type":"address","indexed":true,"internalType":"address"}],"anonymous":false},{"type":"event","name":"StrategyConfigUpdated","inputs":[{"name":"strategy","type":"address","indexed":true,"internalType":"address"},{"name":"quota","type":"uint256","indexed":false,"internalType":"uint256"},{"name":"positionLifetime","type":"uint256","indexed":false,"internalType":"uint256"},{"name":"maximumMultiplier","type":"uint256","indexed":false,"internalType":"uint256"},{"name":"liquidationBuffer","type":"uint256","indexed":false,"internalType":"uint256"},{"name":"liquidationFee","type":"uint256","indexed":false,"internalType":"uint256"}],"anonymous":false},{"type":"event","name":"StrategyLiquidationFeeUpdated","inputs":[{"name":"strategy","type":"address","indexed":false,"internalType":"address"},{"name":"fee","type":"uint256","indexed":false,"internalType":"uint256"}],"anonymous":false},{"type":"event","name":"StrategyRemoved","inputs":[{"name":"strategy","type":"address","indexed":true,"internalType":"address"}],"anonymous":false},{"type":"error","name":"AccessControlBadConfirmation","inputs":[]},{"type":"error","name":"AccessControlUnauthorizedAccount","inputs":[{"name":"account","type":"address","internalType":"address"},{"name":"neededRole","type":"bytes32","internalType":"bytes32"}]},{"type":"error","name":"ExceedBorrowQuota","inputs":[]},{"type":"error","name":"InvalidInitialization","inputs":[]},{"type":"error","name":"NotInitializing","inputs":[]},{"type":"error","name":"PositionLifetimeTooShort","inputs":[]},{"type":"error","name":"PositionNotLive","inputs":[]}],"bytecode":{"object":"0x608060405234801561000f575f80fd5b5061001861001d565b6100cf565b7ff0c57e16840df040f15088dc2f81fe391c3923bec73e23a9662efc9c229c6a00805468010000000000000000900460ff161561006d5760405163f92ee8a960e01b815260040160405180910390fd5b80546001600160401b03908116146100cc5780546001600160401b0319166001600160401b0390811782556040519081527fc7f505b2f371ae2175ee4913f4499e1f2633a7b5936321eed1cdaeb6115181d29060200160405180910390a15b50565b6121f480620000dd5f395ff3fe608060405234801561000f575f80fd5b50600436106101dc575f3560e01c806375bd29a111610109578063a7a0032a1161009e578063d547741f1161006e578063d547741f14610517578063d6061ea61461052a578063fae8f9bd1461053d578063ffad235f14610568575f80fd5b8063a7a0032a146104b3578063bd4a5c6f146104de578063bf33bd4c146104f1578063c902828c14610504575f80fd5b806391d14854116100d957806391d14854146103d65780639417a3a21461042d578063a14889fe14610458578063a217fddf146104ac575f80fd5b806375bd29a114610395578063786fcdc4146103a85780638129fc1c146103bb57806391cf0cd5146103c3575f80fd5b80632f2ff15d1161017f578063565d878c1161014f578063565d878c1461031957806357ea80cf1461034457806361acf8d51461035757806374b1dcc214610382575f80fd5b80632f2ff15d146102b857806336568abe146102cb5780634237af46146102de57806343a2a302146102f1575f80fd5b806321b511b3116101ba57806321b511b31461023057806321bcb912146102435780632454176514610256578063248a9ca314610277575f80fd5b806301ffc9a7146101e057806303ce335514610208578063175188e81461021d575b5f80fd5b6101f36101ee366004611de4565b61057b565b60405190151581526020015b60405180910390f35b61021b610216366004611e37565b610613565b005b61021b61022b366004611e61565b610659565b6101f361023e366004611e7c565b6106c7565b61021b610251366004611e93565b6108c4565b610269610264366004611e37565b610a09565b6040519081526020016101ff565b610269610285366004611e7c565b5f9081527f02dd7bc7dec4dceedda775e58dd541e08a116c6c53815c0bd028192f7b626800602052604090206001015490565b61021b6102c6366004611eaa565b610b5b565b61021b6102d9366004611eaa565b610ba4565b6101f36102ec366004611ed8565b610bf5565b6102696102ff366004611e61565b6001600160a01b03165f9081526020819052604090205490565b60025461032c906001600160a01b031681565b6040516001600160a01b0390911681526020016101ff565b61021b610352366004611f0a565b610c49565b610269610365366004611e61565b6001600160a01b03165f9081526020819052604090206004015490565b61021b610390366004611e37565b610dd5565b60015461032c906001600160a01b031681565b6101f36103b6366004611ed8565b610e81565b61021b610ed5565b6102696103d1366004611e37565b6110f0565b6101f36103e4366004611eaa565b5f9182527f02dd7bc7dec4dceedda775e58dd541e08a116c6c53815c0bd028192f7b626800602090815260408084206001600160a01b0393909316845291905290205460ff1690565b61026961043b366004611e61565b6001600160a01b03165f9081526020819052604090206003015490565b61046b610466366004611e61565b611238565b6040516101ff91905f60a082019050825182526020830151602083015260408301516040830152606083015160608301526080830151608083015292915050565b6102695f81565b6102696104c1366004611e61565b6001600160a01b03165f9081526020819052604090206002015490565b6102696104ec366004611e7c565b6112ba565b61021b6104ff366004611e37565b6114bf565b610269610512366004611e37565b611542565b61021b610525366004611eaa565b6115dd565b61032c610538366004611e61565b611620565b61026961054b366004611e61565b6001600160a01b03165f9081526020819052604090206001015490565b60035461032c906001600160a01b031681565b5f7fffffffff0000000000000000000000000000000000000000000000000000000082167f7965db0b00000000000000000000000000000000000000000000000000000000148061060d57507f01ffc9a7000000000000000000000000000000000000000000000000000000007fffffffff000000000000000000000000000000000000000000000000000000008316145b92915050565b7fa49807205ce4d355092ef5a8a18f56e8913cf4a201fbe287825b095693c2177561063d81611681565b506001600160a01b039091165f90815260208190526040902055565b7fa49807205ce4d355092ef5a8a18f56e8913cf4a201fbe287825b095693c2177561068381611681565b6001600160a01b0382165f81815260208190526040808220829055517f09a1db4b80c32706328728508c941a6b954f31eb5affd32f236c1fd405f8fea49190a25050565b5f600180546040517feb29dc5e000000000000000000000000000000000000000000000000000000008152600481018590526001600160a01b039091169063eb29dc5e90602401602060405180830381865afa158015610729573d5f803e3d5ffd5b505050506040513d601f19601f8201168201806040525081019061074d9190611f93565b600481111561075e5761075e611f66565b14610795576040517f5117a49b00000000000000000000000000000000000000000000000000000000815260040160405180910390fd5b6001546040517f6ccf2fa7000000000000000000000000000000000000000000000000000000008152600481018490525f916001600160a01b031690636ccf2fa790602401602060405180830381865afa1580156107f5573d5f803e3d5ffd5b505050506040513d601f19601f820116820180604052508101906108199190611fb1565b90505f610825846112ba565b6001546040517facd72273000000000000000000000000000000000000000000000000000000008152600481018790529192505f916001600160a01b039091169063acd7227390602401602060405180830381865afa15801561088a573d5f803e3d5ffd5b505050506040513d601f19601f820116820180604052508101906108ae9190611fcc565b90506108bb838383610bf5565b95945050505050565b7fa49807205ce4d355092ef5a8a18f56e8913cf4a201fbe287825b095693c217756108ee81611681565b6109297f95527396ef7079b4e7aa0523dff07d638fe39b8ce08d979dae99f15bb34c2b8f61092461012085016101008601611e61565b61168e565b5061093c6101a083016101808401611e61565b600180547fffffffffffffffffffffffff0000000000000000000000000000000000000000166001600160a01b0392909216919091179055610985610100830160e08401611e61565b600280547fffffffffffffffffffffffff0000000000000000000000000000000000000000166001600160a01b03929092169190911790556109cd60e0830160c08401611e61565b600380547fffffffffffffffffffffffff0000000000000000000000000000000000000000166001600160a01b03929092169190911790555050565b6002546040517fc871f1ed0000000000000000000000000000000000000000000000000000000081526001600160a01b0384811660048301525f92839291169063c871f1ed90602401602060405180830381865afa158015610a6d573d5f803e3d5ffd5b505050506040513d601f19601f82011682018060405250810190610a919190611fcc565b6002546040517fc871f1ed000000000000000000000000000000000000000000000000000000008152732260fac5e5542a773aa44fbcfedf7c193bc2c59960048201529192505f916001600160a01b039091169063c871f1ed90602401602060405180830381865afa158015610b09573d5f803e3d5ffd5b505050506040513d601f19601f82011682018060405250810190610b2d9190611fcc565b90505f82610b3b8387612010565b610b459190612027565b9050610b518682611778565b9695505050505050565b5f8281527f02dd7bc7dec4dceedda775e58dd541e08a116c6c53815c0bd028192f7b6268006020526040902060010154610b9481611681565b610b9e838361168e565b50505050565b6001600160a01b0381163314610be6576040517f6697b23200000000000000000000000000000000000000000000000000000000815260040160405180910390fd5b610bf0828261197d565b505050565b5f610c026008600a61217d565b6001600160a01b0385165f90815260208190526040902060030154610c279084612010565b610c319190612027565b8311610c3f57506001610c42565b505f5b9392505050565b7fa49807205ce4d355092ef5a8a18f56e8913cf4a201fbe287825b095693c21775610c7381611681565b600354604080517f722cf46000000000000000000000000000000000000000000000000000000000815290515f926001600160a01b03169163722cf4609160048083019260209291908290030181865afa158015610cd3573d5f803e3d5ffd5b505050506040513d601f19601f82011682018060405250810190610cf79190612188565b90508060ff1683602001351015610d3a576040517f4ebfd55400000000000000000000000000000000000000000000000000000000815260040160405180910390fd5b6001600160a01b0384165f81815260208181526040918290208635808255878301356001830181905588850135600284018190556060808b0135600386018190556080808d01356004909701879055885195865296850193909352838701919091528201529182015290517fd733ec91249b5eac3c9bde7c1402844b5ed1730dfc8424615952daad6ff9c1199181900360a00190a250505050565b7f95527396ef7079b4e7aa0523dff07d638fe39b8ce08d979dae99f15bb34c2b8f610dff81611681565b6001600160a01b0383165f90815260208190526040902054821115610e50576040517fd7f5242d00000000000000000000000000000000000000000000000000000000815260040160405180910390fd5b6001600160a01b0383165f9081526020819052604081208054849290610e779084906121a8565b9091555050505050565b5f81610e8f6008600a61217d565b6001600160a01b0386165f90815260208190526040902060020154610eb49086612010565b610ebe9190612027565b1015610ecb57505f610c42565b5060019392505050565b7ff0c57e16840df040f15088dc2f81fe391c3923bec73e23a9662efc9c229c6a00805468010000000000000000810460ff16159067ffffffffffffffff165f81158015610f1f5750825b90505f8267ffffffffffffffff166001148015610f3b5750303b155b905081158015610f49575080155b15610f80576040517ff92ee8a900000000000000000000000000000000000000000000000000000000815260040160405180910390fd5b84547fffffffffffffffffffffffffffffffffffffffffffffffff00000000000000001660011785558315610fe15784547fffffffffffffffffffffffffffffffffffffffffffffff00ffffffffffffffff16680100000000000000001785555b610fe9611a3f565b6110137fa49807205ce4d355092ef5a8a18f56e8913cf4a201fbe287825b095693c217753361168e565b5061105e7f95527396ef7079b4e7aa0523dff07d638fe39b8ce08d979dae99f15bb34c2b8f7fa49807205ce4d355092ef5a8a18f56e8913cf4a201fbe287825b095693c21775611a49565b6110887fa49807205ce4d355092ef5a8a18f56e8913cf4a201fbe287825b095693c2177580611a49565b83156110e95784547fffffffffffffffffffffffffffffffffffffffffffffff00ffffffffffffffff168555604051600181527fc7f505b2f371ae2175ee4913f4499e1f2633a7b5936321eed1cdaeb6115181d29060200160405180910390a15b5050505050565b6002546040517fc871f1ed0000000000000000000000000000000000000000000000000000000081526001600160a01b0384811660048301525f92839291169063c871f1ed90602401602060405180830381865afa158015611154573d5f803e3d5ffd5b505050506040513d601f19601f820116820180604052508101906111789190611fcc565b6002546040517fc871f1ed000000000000000000000000000000000000000000000000000000008152732260fac5e5542a773aa44fbcfedf7c193bc2c59960048201529192505f916001600160a01b039091169063c871f1ed90602401602060405180830381865afa1580156111f0573d5f803e3d5ffd5b505050506040513d601f19601f820116820180604052508101906112149190611fcc565b90505f816112228487612010565b61122c9190612027565b9050610b518682611aea565b6112656040518060a001604052805f81526020015f81526020015f81526020015f81526020015f81525090565b506001600160a01b03165f9081526020818152604091829020825160a0810184528154815260018201549281019290925260028101549282019290925260038201546060820152600490910154608082015290565b6001546040517f7d711daa000000000000000000000000000000000000000000000000000000008152600481018390525f9182916001600160a01b0390911690637d711daa90602401602060405180830381865afa15801561131e573d5f803e3d5ffd5b505050506040513d601f19601f820116820180604052508101906113429190611fcc565b6001546040517f6ccf2fa7000000000000000000000000000000000000000000000000000000008152600481018690529192505f916001600160a01b0390911690636ccf2fa790602401602060405180830381865afa1580156113a7573d5f803e3d5ffd5b505050506040513d601f19601f820116820180604052508101906113cb9190611fb1565b6040517f07a2d13a000000000000000000000000000000000000000000000000000000008152600481018490529091505f906001600160a01b038316906307a2d13a90602401602060405180830381865afa15801561142c573d5f803e3d5ffd5b505050506040513d601f19601f820116820180604052508101906114509190611fcc565b90505f826001600160a01b03166338d52e0f6040518163ffffffff1660e01b8152600401602060405180830381865afa15801561148f573d5f803e3d5ffd5b505050506040513d601f19601f820116820180604052508101906114b39190611fb1565b9050610b5181836110f0565b7fa49807205ce4d355092ef5a8a18f56e8913cf4a201fbe287825b095693c217756114e981611681565b6001600160a01b0383165f8181526020818152604091829020600401859055815192835282018490527f7013c78cf45095e211c87beaa83011e28b800d6b1fe358991b3fd9db001ef566910160405180910390a1505050565b5f8061154d84611620565b90505f61155a8285610a09565b6040517fef8b30f7000000000000000000000000000000000000000000000000000000008152600481018290529091506001600160a01b0386169063ef8b30f790602401602060405180830381865afa1580156115b9573d5f803e3d5ffd5b505050506040513d601f19601f820116820180604052508101906108bb9190611fcc565b5f8281527f02dd7bc7dec4dceedda775e58dd541e08a116c6c53815c0bd028192f7b626800602052604090206001015461161681611681565b610b9e838361197d565b5f816001600160a01b03166338d52e0f6040518163ffffffff1660e01b8152600401602060405180830381865afa15801561165d573d5f803e3d5ffd5b505050506040513d601f19601f8201168201806040525081019061060d9190611fb1565b61168b8133611ce9565b50565b5f8281527f02dd7bc7dec4dceedda775e58dd541e08a116c6c53815c0bd028192f7b626800602081815260408084206001600160a01b038616855290915282205460ff1661176f575f848152602082815260408083206001600160a01b0387168452909152902080547fffffffffffffffffffffffffffffffffffffffffffffffffffffffffffffff001660011790556117253390565b6001600160a01b0316836001600160a01b0316857f2f8788117e7eff1d82e926ec794901d17c78024a50270940304540a733656f0d60405160405180910390a4600191505061060d565b5f91505061060d565b5f80836001600160a01b031663313ce5676040518163ffffffff1660e01b8152600401602060405180830381865afa1580156117b6573d5f803e3d5ffd5b505050506040513d601f19601f820116820180604052508101906117da9190612188565b6002546040517fadeee5dc0000000000000000000000000000000000000000000000000000000081526001600160a01b0387811660048301529293505f929091169063adeee5dc90602401602060405180830381865afa158015611840573d5f803e3d5ffd5b505050506040513d601f19601f820116820180604052508101906118649190612188565b6002546040517fadeee5dc000000000000000000000000000000000000000000000000000000008152732260fac5e5542a773aa44fbcfedf7c193bc2c59960048201529192505f916001600160a01b039091169063adeee5dc90602401602060405180830381865afa1580156118dc573d5f803e3d5ffd5b505050506040513d601f19601f820116820180604052508101906119009190612188565b90505f8260ff168260ff16600861191791906121bb565b61192191906121a8565b90508360ff1681111561195b5761193b60ff8516826121a8565b61194690600a61217d565b6119509087612027565b94505050505061060d565b6119688160ff86166121a8565b61197390600a61217d565b6119509087612010565b5f8281527f02dd7bc7dec4dceedda775e58dd541e08a116c6c53815c0bd028192f7b626800602081815260408084206001600160a01b038616855290915282205460ff161561176f575f848152602082815260408083206001600160a01b038716808552925280832080547fffffffffffffffffffffffffffffffffffffffffffffffffffffffffffffff0016905551339287917ff6391f5c32d9c69d2a47ea670b442974b53935d1edc7fd64eb21e047a839171b9190a4600191505061060d565b611a47611d7d565b565b7f02dd7bc7dec4dceedda775e58dd541e08a116c6c53815c0bd028192f7b6268005f611aa2845f9081527f02dd7bc7dec4dceedda775e58dd541e08a116c6c53815c0bd028192f7b626800602052604090206001015490565b5f85815260208490526040808220600101869055519192508491839187917fbd79b86ffe0ab8e8776151514217cd7cacd52c909f66475c3af44e129f0b00ff9190a450505050565b5f80836001600160a01b031663313ce5676040518163ffffffff1660e01b8152600401602060405180830381865afa158015611b28573d5f803e3d5ffd5b505050506040513d601f19601f82011682018060405250810190611b4c9190612188565b6002546040517fadeee5dc0000000000000000000000000000000000000000000000000000000081526001600160a01b0387811660048301529293505f929091169063adeee5dc90602401602060405180830381865afa158015611bb2573d5f803e3d5ffd5b505050506040513d601f19601f82011682018060405250810190611bd69190612188565b6002546040517fadeee5dc000000000000000000000000000000000000000000000000000000008152732260fac5e5542a773aa44fbcfedf7c193bc2c59960048201529192505f916001600160a01b039091169063adeee5dc90602401602060405180830381865afa158015611c4e573d5f803e3d5ffd5b505050506040513d601f19601f82011682018060405250810190611c729190612188565b90505f611c7f83856121ce565b60ff1690505f60088360ff16611c9591906121bb565b905080821115611cca57611ca981836121a8565b611cb490600a61217d565b611cbe9088612027565b9550505050505061060d565b611cd482826121a8565b611cdf90600a61217d565b611cbe9088612010565b5f8281527f02dd7bc7dec4dceedda775e58dd541e08a116c6c53815c0bd028192f7b626800602090815260408083206001600160a01b038516845290915290205460ff16611d79576040517fe2517d3f0000000000000000000000000000000000000000000000000000000081526001600160a01b03821660048201526024810183905260440160405180910390fd5b5050565b7ff0c57e16840df040f15088dc2f81fe391c3923bec73e23a9662efc9c229c6a005468010000000000000000900460ff16611a47576040517fd7e6bcf800000000000000000000000000000000000000000000000000000000815260040160405180910390fd5b5f60208284031215611df4575f80fd5b81357fffffffff0000000000000000000000000000000000000000000000000000000081168114610c42575f80fd5b6001600160a01b038116811461168b575f80fd5b5f8060408385031215611e48575f80fd5b8235611e5381611e23565b946020939093013593505050565b5f60208284031215611e71575f80fd5b8135610c4281611e23565b5f60208284031215611e8c575f80fd5b5035919050565b5f6102008284031215611ea4575f80fd5b50919050565b5f8060408385031215611ebb575f80fd5b823591506020830135611ecd81611e23565b809150509250929050565b5f805f60608486031215611eea575f80fd5b8335611ef581611e23565b95602085013595506040909401359392505050565b5f8082840360c0811215611f1c575f80fd5b8335611f2781611e23565b925060a07fffffffffffffffffffffffffffffffffffffffffffffffffffffffffffffffe082011215611f58575f80fd5b506020830190509250929050565b7f4e487b71000000000000000000000000000000000000000000000000000000005f52602160045260245ffd5b5f60208284031215611fa3575f80fd5b815160058110610c42575f80fd5b5f60208284031215611fc1575f80fd5b8151610c4281611e23565b5f60208284031215611fdc575f80fd5b5051919050565b7f4e487b71000000000000000000000000000000000000000000000000000000005f52601160045260245ffd5b808202811582820484141761060d5761060d611fe3565b5f8261205a577f4e487b71000000000000000000000000000000000000000000000000000000005f52601260045260245ffd5b500490565b600181815b808511156120b857817fffffffffffffffffffffffffffffffffffffffffffffffffffffffffffffffff0482111561209e5761209e611fe3565b808516156120ab57918102915b93841c9390800290612064565b509250929050565b5f826120ce5750600161060d565b816120da57505f61060d565b81600181146120f057600281146120fa57612116565b600191505061060d565b60ff84111561210b5761210b611fe3565b50506001821b61060d565b5060208310610133831016604e8410600b8410161715612139575081810a61060d565b612143838361205f565b807fffffffffffffffffffffffffffffffffffffffffffffffffffffffffffffffff0482111561217557612175611fe3565b029392505050565b5f610c4283836120c0565b5f60208284031215612198575f80fd5b815160ff81168114610c42575f80fd5b8181038181111561060d5761060d611fe3565b8082018082111561060d5761060d611fe3565b60ff818116838216019081111561060d5761060d611fe356fea164736f6c6343000816000a","linkReferences":{}},"methodIdentifiers":{"DEFAULT_ADMIN_ROLE()":"a217fddf","getEstimateSharesForWBTCDeposit(address,uint256)":"c902828c","getLiquidationBuffer(address)":"9417a3a2","getLiquidationFee(address)":"61acf8d5","getMaximumMultiplier(address)":"a7a0032a","getPositionLifetimeInBlocks(address)":"fae8f9bd","getQuota(address)":"43a2a302","getRoleAdmin(bytes32)":"248a9ca3","getStrategyConfig(address)":"a14889fe","getStrategyValueAsset(address)":"d6061ea6","getTokenValueFromWBTCAmount(address,uint256)":"24541765","getWBTCValueFromTokenAmount(address,uint256)":"91cf0cd5","grantRole(bytes32,address)":"2f2ff15d","hasRole(bytes32,address)":"91d14854","initialize()":"8129fc1c","isCollateralToBorrowRatioAllowed(address,uint256,uint256)":"786fcdc4","isPositionLiquidatable(address,uint256,uint256)":"4237af46","isPositionLiquidatableEstimation(uint256)":"21b511b3","oracleManager()":"565d878c","positionLedger()":"75bd29a1","previewPositionValueInWBTC(uint256)":"bd4a5c6f","protocolParameters()":"ffad235f","reduceQuotaBy(address,uint256)":"74b1dcc2","removeStrategy(address)":"175188e8","renounceRole(bytes32,address)":"36568abe","revokeRole(bytes32,address)":"d547741f","setDependencies((address,address,address,address,address,address,address,address,address,address,address,address,address,address,address,address))":"21bcb912","setLiquidationFee(address,uint256)":"bf33bd4c","setQuota(address,uint256)":"03ce3355","setStrategyConfig(address,(uint256,uint256,uint256,uint256,uint256))":"57ea80cf","supportsInterface(bytes4)":"01ffc9a7"},"id":76}