{
  "abi": [
    {
      "inputs": [],
      "name": "AccessControlBadConfirmation",
      "type": "error"
    },
    {
      "inputs": [
        {
          "internalType": "address",
          "name": "account",
          "type": "address"
        },
        {
          "internalType": "bytes32",
          "name": "neededRole",
          "type": "bytes32"
        }
      ],
      "name": "AccessControlUnauthorizedAccount",
      "type": "error"
    },
    {
      "inputs": [
        {
          "internalType": "address",
          "name": "target",
          "type": "address"
        }
      ],
      "name": "AddressEmptyCode",
      "type": "error"
    },
    {
      "inputs": [
        {
          "internalType": "address",
          "name": "account",
          "type": "address"
        }
      ],
      "name": "AddressInsufficientBalance",
      "type": "error"
    },
    {
      "inputs": [],
      "name": "ExceedBorrowLimit",
      "type": "error"
    },
    {
      "inputs": [],
      "name": "ExceedBorrowQuota",
      "type": "error"
    },
    {
      "inputs": [],
      "name": "FailedInnerCall",
      "type": "error"
    },
    {
      "inputs": [],
      "name": "InvalidInitialization",
      "type": "error"
    },
    {
      "inputs": [],
      "name": "LessThanMinimumShares",
      "type": "error"
    },
    {
      "inputs": [],
      "name": "NotEnoughTokensReceived",
      "type": "error"
    },
    {
      "inputs": [],
      "name": "NotInitializing",
      "type": "error"
    },
    {
      "inputs": [
        {
          "internalType": "address",
          "name": "token",
          "type": "address"
        }
      ],
      "name": "SafeERC20FailedOperation",
      "type": "error"
    },
    {
      "anonymous": false,
      "inputs": [
        {
          "indexed": false,
          "internalType": "uint64",
          "name": "version",
          "type": "uint64"
        }
      ],
      "name": "Initialized",
      "type": "event"
    },
    {
      "anonymous": false,
      "inputs": [
        {
          "indexed": true,
          "internalType": "uint256",
          "name": "nftId",
          "type": "uint256"
        },
        {
          "indexed": true,
          "internalType": "address",
          "name": "user",
          "type": "address"
        },
        {
          "indexed": true,
          "internalType": "address",
          "name": "strategy",
          "type": "address"
        },
        {
          "indexed": false,
          "internalType": "uint256",
          "name": "collateralAmount",
          "type": "uint256"
        },
        {
          "indexed": false,
          "internalType": "uint256",
          "name": "wbtcToBorrow",
          "type": "uint256"
        },
        {
          "indexed": false,
          "internalType": "uint256",
          "name": "positionExpireBlock",
          "type": "uint256"
        },
        {
          "indexed": false,
          "internalType": "uint256",
          "name": "sharesReceived",
          "type": "uint256"
        }
      ],
      "name": "PositionOpened",
      "type": "event"
    },
    {
      "anonymous": false,
      "inputs": [
        {
          "indexed": true,
          "internalType": "bytes32",
          "name": "role",
          "type": "bytes32"
        },
        {
          "indexed": true,
          "internalType": "bytes32",
          "name": "previousAdminRole",
          "type": "bytes32"
        },
        {
          "indexed": true,
          "internalType": "bytes32",
          "name": "newAdminRole",
          "type": "bytes32"
        }
      ],
      "name": "RoleAdminChanged",
      "type": "event"
    },
    {
      "anonymous": false,
      "inputs": [
        {
          "indexed": true,
          "internalType": "bytes32",
          "name": "role",
          "type": "bytes32"
        },
        {
          "indexed": true,
          "internalType": "address",
          "name": "account",
          "type": "address"
        },
        {
          "indexed": true,
          "internalType": "address",
          "name": "sender",
          "type": "address"
        }
      ],
      "name": "RoleGranted",
      "type": "event"
    },
    {
      "anonymous": false,
      "inputs": [
        {
          "indexed": true,
          "internalType": "bytes32",
          "name": "role",
          "type": "bytes32"
        },
        {
          "indexed": true,
          "internalType": "address",
          "name": "account",
          "type": "address"
        },
        {
          "indexed": true,
          "internalType": "address",
          "name": "sender",
          "type": "address"
        }
      ],
      "name": "RoleRevoked",
      "type": "event"
    },
    {
      "inputs": [],
      "name": "DEFAULT_ADMIN_ROLE",
      "outputs": [
        {
          "internalType": "bytes32",
          "name": "",
          "type": "bytes32"
        }
      ],
      "stateMutability": "view",
      "type": "function"
    },
    {
      "inputs": [
        {
          "internalType": "bytes32",
          "name": "role",
          "type": "bytes32"
        }
      ],
      "name": "getRoleAdmin",
      "outputs": [
        {
          "internalType": "bytes32",
          "name": "",
          "type": "bytes32"
        }
      ],
      "stateMutability": "view",
      "type": "function"
    },
    {
      "inputs": [
        {
          "internalType": "bytes32",
          "name": "role",
          "type": "bytes32"
        },
        {
          "internalType": "address",
          "name": "account",
          "type": "address"
        }
      ],
      "name": "grantRole",
      "outputs": [],
      "stateMutability": "nonpayable",
      "type": "function"
    },
    {
      "inputs": [
        {
          "internalType": "bytes32",
          "name": "role",
          "type": "bytes32"
        },
        {
          "internalType": "address",
          "name": "account",
          "type": "address"
        }
      ],
      "name": "hasRole",
      "outputs": [
        {
          "internalType": "bool",
          "name": "",
          "type": "bool"
        }
      ],
      "stateMutability": "view",
      "type": "function"
    },
    {
      "inputs": [],
      "name": "initialize",
      "outputs": [],
      "stateMutability": "nonpayable",
      "type": "function"
    },
    {
      "inputs": [
        {
          "components": [
            {
              "internalType": "uint256",
              "name": "collateralAmount",
              "type": "uint256"
            },
            {
              "internalType": "uint256",
              "name": "wbtcToBorrow",
              "type": "uint256"
            },
            {
              "internalType": "address",
              "name": "strategy",
              "type": "address"
            },
            {
              "internalType": "uint256",
              "name": "minStrategyShares",
              "type": "uint256"
            },
            {
              "internalType": "enum SwapManager.SwapRoute",
              "name": "swapRoute",
              "type": "uint8"
            },
            {
              "internalType": "bytes",
              "name": "swapData",
              "type": "bytes"
            },
            {
              "internalType": "address",
              "name": "exchange",
              "type": "address"
            }
          ],
          "internalType": "struct OpenPositionParams",
          "name": "params",
          "type": "tuple"
        }
      ],
      "name": "openPosition",
      "outputs": [
        {
          "internalType": "uint256",
          "name": "",
          "type": "uint256"
        }
      ],
      "stateMutability": "nonpayable",
      "type": "function"
    },
    {
      "inputs": [
        {
          "components": [
            {
              "internalType": "uint256",
              "name": "collateralAmount",
              "type": "uint256"
            },
            {
              "internalType": "uint256",
              "name": "wbtcToBorrow",
              "type": "uint256"
            },
            {
              "internalType": "address",
              "name": "strategy",
              "type": "address"
            },
            {
              "internalType": "uint256",
              "name": "minStrategyShares",
              "type": "uint256"
            },
            {
              "internalType": "enum SwapManager.SwapRoute",
              "name": "swapRoute",
              "type": "uint8"
            },
            {
              "internalType": "bytes",
              "name": "swapData",
              "type": "bytes"
            },
            {
              "internalType": "address",
              "name": "exchange",
              "type": "address"
            }
          ],
          "internalType": "struct OpenPositionParams",
          "name": "params",
          "type": "tuple"
        }
      ],
      "name": "previewOpenPosition",
      "outputs": [
        {
          "internalType": "uint256",
          "name": "",
          "type": "uint256"
        }
      ],
      "stateMutability": "view",
      "type": "function"
    },
    {
      "inputs": [
        {
          "internalType": "bytes32",
          "name": "role",
          "type": "bytes32"
        },
        {
          "internalType": "address",
          "name": "callerConfirmation",
          "type": "address"
        }
      ],
      "name": "renounceRole",
      "outputs": [],
      "stateMutability": "nonpayable",
      "type": "function"
    },
    {
      "inputs": [
        {
          "internalType": "bytes32",
          "name": "role",
          "type": "bytes32"
        },
        {
          "internalType": "address",
          "name": "account",
          "type": "address"
        }
      ],
      "name": "revokeRole",
      "outputs": [],
      "stateMutability": "nonpayable",
      "type": "function"
    },
    {
      "inputs": [
        {
          "components": [
            {
              "internalType": "address",
              "name": "expiredVault",
              "type": "address"
            },
            {
              "internalType": "address",
              "name": "leverageDepositor",
              "type": "address"
            },
            {
              "internalType": "address",
              "name": "positionToken",
              "type": "address"
            },
            {
              "internalType": "address",
              "name": "wbtcVault",
              "type": "address"
            },
            {
              "internalType": "address",
              "name": "proxyAdmin",
              "type": "address"
            },
            {
              "internalType": "address",
              "name": "leveragedStrategy",
              "type": "address"
            },
            {
              "internalType": "address",
              "name": "protocolParameters",
              "type": "address"
            },
            {
              "internalType": "address",
              "name": "oracleManager",
              "type": "address"
            },
            {
              "internalType": "address",
              "name": "positionOpener",
              "type": "address"
            },
            {
              "internalType": "address",
              "name": "positionCloser",
              "type": "address"
            },
            {
              "internalType": "address",
              "name": "positionLiquidator",
              "type": "address"
            },
            {
              "internalType": "address",
              "name": "positionLedger",
              "type": "address"
            },
            {
              "internalType": "address",
              "name": "swapManager",
              "type": "address"
            }
          ],
          "internalType": "struct DependencyAddresses",
          "name": "dependencies",
          "type": "tuple"
        }
      ],
      "name": "setDependencies",
      "outputs": [],
      "stateMutability": "nonpayable",
      "type": "function"
    },
    {
      "inputs": [
        {
          "internalType": "bytes4",
          "name": "interfaceId",
          "type": "bytes4"
        }
      ],
      "name": "supportsInterface",
      "outputs": [
        {
          "internalType": "bool",
          "name": "",
          "type": "bool"
        }
      ],
      "stateMutability": "view",
      "type": "function"
    }
  ],
  "bytecode": {
    "object": "0x608060405234801561001057600080fd5b50611f85806100206000396000f3fe608060405234801561001057600080fd5b50600436106100c95760003560e01c80638129fc1c11610081578063b146db3f1161005b578063b146db3f146101e9578063c0b7466e146101fc578063d547741f1461020f57600080fd5b80638129fc1c1461018157806391d1485414610189578063a217fddf146101e157600080fd5b80632f2ff15d116100b25780632f2ff15d1461014657806336568abe1461015b57806368a0091e1461016e57600080fd5b806301ffc9a7146100ce578063248a9ca3146100f6575b600080fd5b6100e16100dc366004611bb1565b610222565b60405190151581526020015b60405180910390f35b610138610104366004611bf3565b60009081527f02dd7bc7dec4dceedda775e58dd541e08a116c6c53815c0bd028192f7b626800602052604090206001015490565b6040519081526020016100ed565b610159610154366004611c21565b6102bb565b005b610159610169366004611c21565b610305565b61013861017c366004611c51565b610356565b6101596107fc565b6100e1610197366004611c21565b60009182527f02dd7bc7dec4dceedda775e58dd541e08a116c6c53815c0bd028192f7b626800602090815260408084206001600160a01b0393909316845291905290205460ff1690565b610138600081565b6101386101f7366004611c51565b6109a5565b61015961020a366004611c8c565b610c29565b61015961021d366004611c21565b610e9c565b60007fffffffff0000000000000000000000000000000000000000000000000000000082167f7965db0b0000000000000000000000000000000000000000000000000000000014806102b557507f01ffc9a7000000000000000000000000000000000000000000000000000000007fffffffff000000000000000000000000000000000000000000000000000000008316145b92915050565b60008281527f02dd7bc7dec4dceedda775e58dd541e08a116c6c53815c0bd028192f7b62680060205260409020600101546102f581610ee0565b6102ff8383610eed565b50505050565b6001600160a01b0381163314610347576040517f6697b23200000000000000000000000000000000000000000000000000000000815260040160405180910390fd5b6103518282610fda565b505050565b6004546000906001600160a01b031663786fcdc461037a6060850160408601611ca5565b60405160e083901b7fffffffff000000000000000000000000000000000000000000000000000000001681526001600160a01b0390911660048201528435602482015260208501356044820152606401602060405180830381865afa1580156103e7573d6000803e3d6000fd5b505050506040513d601f19601f8201168201806040525081019061040b9190611cc2565b1515600003610446576040517f8b085be200000000000000000000000000000000000000000000000000000000815260040160405180910390fd5b6004546001600160a01b03166374b1dcc26104676060850160408601611ca5565b6040517fffffffff0000000000000000000000000000000000000000000000000000000060e084901b1681526001600160a01b03909116600482015260208501356024820152604401600060405180830381600087803b1580156104ca57600080fd5b505af11580156104de573d6000803e3d6000fd5b5050600354600092506001600160a01b031690506387bfefef61050760a0860160808701611ce4565b6040518263ffffffff1660e01b81526004016105239190611d34565b602060405180830381865afa158015610540573d6000803e3d6000fd5b505050506040513d601f19601f820116820180604052508101906105649190611d4e565b9050610570818461109e565b600061057c8285611148565b9050610588848261130c565b15156000036105c3576040517f828f02ae00000000000000000000000000000000000000000000000000000000815260040160405180910390fd5b6002546000906001600160a01b03166347e7ef246105e76060880160408901611ca5565b6040517fffffffff0000000000000000000000000000000000000000000000000000000060e084901b1681526001600160a01b039091166004820152602481018590526044016020604051808303816000875af115801561064c573d6000803e3d6000fd5b505050506040513d601f19601f820116820180604052508101906106709190611d6b565b905084606001358110156106b0576040517f3beecf4500000000000000000000000000000000000000000000000000000000815260040160405180910390fd5b60006106bc8683611507565b90506106ce6060870160408801611ca5565b6001600160a01b0316336001600160a01b0316827f80feb7c33cd39a42e347b6b7577a63af2c7a96c236e85c200c8f39e11be679dd89600001358a60200135600460009054906101000a90046001600160a01b03166001600160a01b031663f638ac0e8d60400160208101906107449190611ca5565b6040517fffffffff0000000000000000000000000000000000000000000000000000000060e084901b1681526001600160a01b039091166004820152602401602060405180830381865afa1580156107a0573d6000803e3d6000fd5b505050506040513d601f19601f820116820180604052508101906107c49190611d6b565b6107ce9043611d84565b604080519384526020840192909252908201526060810187905260800160405180910390a495945050505050565b7ff0c57e16840df040f15088dc2f81fe391c3923bec73e23a9662efc9c229c6a00805468010000000000000000810460ff16159067ffffffffffffffff166000811580156108475750825b905060008267ffffffffffffffff1660011480156108645750303b155b905081158015610872575080155b156108a9576040517ff92ee8a900000000000000000000000000000000000000000000000000000000815260040160405180910390fd5b84547fffffffffffffffffffffffffffffffffffffffffffffffff0000000000000000166001178555831561090a5784547fffffffffffffffffffffffffffffffffffffffffffffff00ffffffffffffffff16680100000000000000001785555b6109126117c2565b61093c7fa49807205ce4d355092ef5a8a18f56e8913cf4a201fbe287825b095693c2177533610eed565b50831561099e5784547fffffffffffffffffffffffffffffffffffffffffffffff00ffffffffffffffff168555604051600181527fc7f505b2f371ae2175ee4913f4499e1f2633a7b5936321eed1cdaeb6115181d29060200160405180910390a15b5050505050565b6004546000906020830135906001600160a01b03166343a2a3026109cf6060860160408701611ca5565b6040517fffffffff0000000000000000000000000000000000000000000000000000000060e084901b1681526001600160a01b039091166004820152602401602060405180830381865afa158015610a2b573d6000803e3d6000fd5b505050506040513d601f19601f82011682018060405250810190610a4f9190611d6b565b1015610a87576040517fd7f5242d00000000000000000000000000000000000000000000000000000000815260040160405180910390fd5b6004546001600160a01b031663786fcdc4610aa86060850160408601611ca5565b60405160e083901b7fffffffff000000000000000000000000000000000000000000000000000000001681526001600160a01b0390911660048201528435602482015260208501356044820152606401602060405180830381865afa158015610b15573d6000803e3d6000fd5b505050506040513d601f19601f82011682018060405250810190610b399190611cc2565b1515600003610b74576040517f8b085be200000000000000000000000000000000000000000000000000000000815260040160405180910390fd5b6004546001600160a01b031663c902828c610b956060850160408601611ca5565b610ba460208601358635611d84565b6040517fffffffff0000000000000000000000000000000000000000000000000000000060e085901b1681526001600160a01b0390921660048301526024820152604401602060405180830381865afa158015610c05573d6000803e3d6000fd5b505050506040513d601f19601f820116820180604052508101906102b59190611d6b565b7fa49807205ce4d355092ef5a8a18f56e8913cf4a201fbe287825b095693c21775610c5381610ee0565b610c636040830160208401611ca5565b600280547fffffffffffffffffffffffff0000000000000000000000000000000000000000166001600160a01b0392909216919091179055610cab6060830160408401611ca5565b600180547fffffffffffffffffffffffff0000000000000000000000000000000000000000166001600160a01b0392909216919091179055610cf56101a083016101808401611ca5565b600380547fffffffffffffffffffffffff0000000000000000000000000000000000000000166001600160a01b0392909216919091179055610d3d6080830160608401611ca5565b600080547fffffffffffffffffffffffff0000000000000000000000000000000000000000166001600160a01b0392909216919091179055610d8560c0830160a08401611ca5565b600480547fffffffffffffffffffffffff0000000000000000000000000000000000000000166001600160a01b0392909216919091179055610dcd60e0830160c08401611ca5565b600580547fffffffffffffffffffffffff0000000000000000000000000000000000000000166001600160a01b0392909216919091179055610e16610100830160e08401611ca5565b600680547fffffffffffffffffffffffff0000000000000000000000000000000000000000166001600160a01b0392909216919091179055610e6061018083016101608401611ca5565b600780547fffffffffffffffffffffffff0000000000000000000000000000000000000000166001600160a01b03929092169190911790555050565b60008281527f02dd7bc7dec4dceedda775e58dd541e08a116c6c53815c0bd028192f7b6268006020526040902060010154610ed681610ee0565b6102ff8383610fda565b610eea81336117cc565b50565b60008281527f02dd7bc7dec4dceedda775e58dd541e08a116c6c53815c0bd028192f7b626800602081815260408084206001600160a01b038616855290915282205460ff16610fd0576000848152602082815260408083206001600160a01b0387168452909152902080547fffffffffffffffffffffffffffffffffffffffffffffffffffffffffffffff00166001179055610f863390565b6001600160a01b0316836001600160a01b0316857f2f8788117e7eff1d82e926ec794901d17c78024a50270940304540a733656f0d60405160405180910390a460019150506102b5565b60009150506102b5565b60008281527f02dd7bc7dec4dceedda775e58dd541e08a116c6c53815c0bd028192f7b626800602081815260408084206001600160a01b038616855290915282205460ff1615610fd0576000848152602082815260408083206001600160a01b038716808552925280832080547fffffffffffffffffffffffffffffffffffffffffffffffffffffffffffffff0016905551339287917ff6391f5c32d9c69d2a47ea670b442974b53935d1edc7fd64eb21e047a839171b9190a460019150506102b5565b6000546040517f4b34477b000000000000000000000000000000000000000000000000000000008152602083013560048201526001600160a01b03848116602483015290911690634b34477b90604401600060405180830381600087803b15801561110857600080fd5b505af115801561111c573d6000803e3d6000fd5b506111449250732260fac5e5542a773aa44fbcfedf7c193bc2c599915033905084843561185e565b5050565b60045460009081906001600160a01b031663d6061ea661116e6060860160408701611ca5565b6040517fffffffff0000000000000000000000000000000000000000000000000000000060e084901b1681526001600160a01b039091166004820152602401602060405180830381865afa1580156111ca573d6000803e3d6000fd5b505050506040513d601f19601f820116820180604052508101906111ee9190611d4e565b905060006040518060800160405280836001600160a01b03168152602001856020013586600001356112209190611d84565b815260200161123260a0870187611dbe565b8080601f0160208091040260200160405190810160405280939291908181526020018383808284376000920191909152505050908252506002546001600160a01b039081166020909201919091526040517f728da62f00000000000000000000000000000000000000000000000000000000815291925086169063728da62f906112c0908490600401611e4e565b6020604051808303816000875af11580156112df573d6000803e3d6000fd5b505050506040513d601f19601f820116820180604052508101906113039190611d6b565b95945050505050565b60045460009081906001600160a01b031663d6061ea66113326060870160408801611ca5565b6040517fffffffff0000000000000000000000000000000000000000000000000000000060e084901b1681526001600160a01b039091166004820152602401602060405180830381865afa15801561138e573d6000803e3d6000fd5b505050506040513d601f19601f820116820180604052508101906113b29190611d4e565b600480546040517f91cf0cd50000000000000000000000000000000000000000000000000000000081526001600160a01b0380851693820193909352602481018790529293506000929116906391cf0cd590604401602060405180830381865afa158015611424573d6000803e3d6000fd5b505050506040513d601f19601f820116820180604052508101906114489190611d6b565b6004549091506001600160a01b0316634237af4661146c6060880160408901611ca5565b6040517fffffffff0000000000000000000000000000000000000000000000000000000060e084901b1681526001600160a01b0390911660048201526024810184905260208801356044820152606401602060405180830381865afa1580156114d9573d6000803e3d6000fd5b505050506040513d601f19601f820116820180604052508101906114fd9190611cc2565b1595945050505050565b6000611511611b4b565b833581526115256060850160408601611ca5565b6001600160a01b039081166020808401919091526040808401869052908601356060808501919091524360808501526004549092169163f638ac0e9161156f918801908801611ca5565b6040517fffffffff0000000000000000000000000000000000000000000000000000000060e084901b1681526001600160a01b039091166004820152602401602060405180830381865afa1580156115cb573d6000803e3d6000fd5b505050506040513d601f19601f820116820180604052508101906115ef9190611d6b565b81608001516115fe9190611d84565b60a08201526004546001600160a01b0316639417a3a26116246060870160408801611ca5565b6040517fffffffff0000000000000000000000000000000000000000000000000000000060e084901b1681526001600160a01b039091166004820152602401602060405180830381865afa158015611680573d6000803e3d6000fd5b505050506040513d601f19601f820116820180604052508101906116a49190611d6b565b60c0820152600160e08201819052506001546040517f6a6278420000000000000000000000000000000000000000000000000000000081523360048201526000916001600160a01b031690636a627842906024016020604051808303816000875af1158015611717573d6000803e3d6000fd5b505050506040513d601f19601f8201168201806040525081019061173b9190611d6b565b6007546040517f0e190ba00000000000000000000000000000000000000000000000000000000081529192506001600160a01b031690630e190ba0906117879084908690600401611ed4565b600060405180830381600087803b1580156117a157600080fd5b505af11580156117b5573d6000803e3d6000fd5b5092979650505050505050565b6117ca6118e6565b565b60008281527f02dd7bc7dec4dceedda775e58dd541e08a116c6c53815c0bd028192f7b626800602090815260408083206001600160a01b038516845290915290205460ff16611144576040517fe2517d3f0000000000000000000000000000000000000000000000000000000081526001600160a01b0382166004820152602481018390526044015b60405180910390fd5b604080516001600160a01b0385811660248301528416604482015260648082018490528251808303909101815260849091019091526020810180517bffffffffffffffffffffffffffffffffffffffffffffffffffffffff167f23b872dd000000000000000000000000000000000000000000000000000000001790526102ff90859061194d565b7ff0c57e16840df040f15088dc2f81fe391c3923bec73e23a9662efc9c229c6a005468010000000000000000900460ff166117ca576040517fd7e6bcf800000000000000000000000000000000000000000000000000000000815260040160405180910390fd5b60006119626001600160a01b038416836119c9565b905080516000141580156119875750808060200190518101906119859190611cc2565b155b15610351576040517f5274afe70000000000000000000000000000000000000000000000000000000081526001600160a01b0384166004820152602401611855565b60606119d7838360006119de565b9392505050565b606081471015611a1c576040517fcd786059000000000000000000000000000000000000000000000000000000008152306004820152602401611855565b600080856001600160a01b03168486604051611a389190611f5c565b60006040518083038185875af1925050503d8060008114611a75576040519150601f19603f3d011682016040523d82523d6000602084013e611a7a565b606091505b5091509150611a8a868383611a94565b9695505050505050565b606082611aa957611aa482611b09565b6119d7565b8151158015611ac057506001600160a01b0384163b155b15611b02576040517f9996b3150000000000000000000000000000000000000000000000000000000081526001600160a01b0385166004820152602401611855565b50806119d7565b805115611b195780518082602001fd5b6040517f1425ea4200000000000000000000000000000000000000000000000000000000815260040160405180910390fd5b6040518061012001604052806000815260200160006001600160a01b03168152602001600081526020016000815260200160008152602001600081526020016000815260200160006004811115611ba457611ba4611d05565b8152602001600081525090565b600060208284031215611bc357600080fd5b81357fffffffff00000000000000000000000000000000000000000000000000000000811681146119d757600080fd5b600060208284031215611c0557600080fd5b5035919050565b6001600160a01b0381168114610eea57600080fd5b60008060408385031215611c3457600080fd5b823591506020830135611c4681611c0c565b809150509250929050565b600060208284031215611c6357600080fd5b813567ffffffffffffffff811115611c7a57600080fd5b820160e081850312156119d757600080fd5b60006101a08284031215611c9f57600080fd5b50919050565b600060208284031215611cb757600080fd5b81356119d781611c0c565b600060208284031215611cd457600080fd5b815180151581146119d757600080fd5b600060208284031215611cf657600080fd5b8135600181106119d757600080fd5b7f4e487b7100000000000000000000000000000000000000000000000000000000600052602160045260246000fd5b6020810160018310611d4857611d48611d05565b91905290565b600060208284031215611d6057600080fd5b81516119d781611c0c565b600060208284031215611d7d57600080fd5b5051919050565b808201808211156102b5577f4e487b7100000000000000000000000000000000000000000000000000000000600052601160045260246000fd5b60008083357fffffffffffffffffffffffffffffffffffffffffffffffffffffffffffffffe1843603018112611df357600080fd5b83018035915067ffffffffffffffff821115611e0e57600080fd5b602001915036819003821315611e2357600080fd5b9250929050565b60005b83811015611e45578181015183820152602001611e2d565b50506000910152565b6020815260006001600160a01b038084511660208401526020840151604084015260408401516080606085015280518060a0860152611e948160c0870160208501611e2a565b6060959095015190911660808401525050601f919091017fffffffffffffffffffffffffffffffffffffffffffffffffffffffffffffffe0160160c00190565b600061014082019050838252825160208301526001600160a01b0360208401511660408301526040830151606083015260608301516080830152608083015160a083015260a083015160c083015260c083015160e083015260e083015161010060058210611f4457611f44611d05565b81818501528085015161012085015250509392505050565b60008251611f6e818460208701611e2a565b919091019291505056fea164736f6c6343000815000a",
    "linkReferences": {}
  },
  "methodIdentifiers": {
    "DEFAULT_ADMIN_ROLE()": "a217fddf",
    "getRoleAdmin(bytes32)": "248a9ca3",
    "grantRole(bytes32,address)": "2f2ff15d",
    "hasRole(bytes32,address)": "91d14854",
    "initialize()": "8129fc1c",
    "openPosition((uint256,uint256,address,uint256,uint8,bytes,address))": "68a0091e",
    "previewOpenPosition((uint256,uint256,address,uint256,uint8,bytes,address))": "b146db3f",
    "renounceRole(bytes32,address)": "36568abe",
    "revokeRole(bytes32,address)": "d547741f",
    "setDependencies((address,address,address,address,address,address,address,address,address,address,address,address,address))": "c0b7466e",
    "supportsInterface(bytes4)": "01ffc9a7"
  },
  "id": 84
}