{
  "abi": [
    {
      "inputs": [],
      "stateMutability": "nonpayable",
      "type": "constructor"
    },
    {
      "inputs": [],
      "name": "AccessControlBadConfirmation",
      "type": "error"
    },
    {
      "inputs": [
        {
          "internalType": "address",
          "name": "account",
          "type": "address"
        },
        {
          "internalType": "bytes32",
          "name": "neededRole",
          "type": "bytes32"
        }
      ],
      "name": "AccessControlUnauthorizedAccount",
      "type": "error"
    },
    {
      "inputs": [],
      "name": "InvalidInitialization",
      "type": "error"
    },
    {
      "inputs": [],
      "name": "NotEligibleForLiquidation",
      "type": "error"
    },
    {
      "inputs": [],
      "name": "NotEnoughTokensReceived",
      "type": "error"
    },
    {
      "inputs": [],
      "name": "NotInitializing",
      "type": "error"
    },
    {
      "inputs": [],
      "name": "PositionNotLive",
      "type": "error"
    },
    {
      "anonymous": false,
      "inputs": [
        {
          "indexed": false,
          "internalType": "address",
          "name": "newExpiredVault",
          "type": "address"
        }
      ],
      "name": "ExpiredVaultUpdated",
      "type": "event"
    },
    {
      "anonymous": false,
      "inputs": [
        {
          "indexed": false,
          "internalType": "uint64",
          "name": "version",
          "type": "uint64"
        }
      ],
      "name": "Initialized",
      "type": "event"
    },
    {
      "anonymous": false,
      "inputs": [
        {
          "indexed": false,
          "internalType": "address",
          "name": "newMonitor",
          "type": "address"
        }
      ],
      "name": "MonitorUpdated",
      "type": "event"
    },
    {
      "anonymous": false,
      "inputs": [
        {
          "indexed": true,
          "internalType": "uint256",
          "name": "nftId",
          "type": "uint256"
        },
        {
          "indexed": true,
          "internalType": "address",
          "name": "strategy",
          "type": "address"
        },
        {
          "indexed": false,
          "internalType": "uint256",
          "name": "wbtcDebtPaid",
          "type": "uint256"
        },
        {
          "indexed": false,
          "internalType": "uint256",
          "name": "claimableAmount",
          "type": "uint256"
        },
        {
          "indexed": false,
          "internalType": "uint256",
          "name": "liquidationFee",
          "type": "uint256"
        }
      ],
      "name": "PositionLiquidated",
      "type": "event"
    },
    {
      "anonymous": false,
      "inputs": [
        {
          "indexed": true,
          "internalType": "bytes32",
          "name": "role",
          "type": "bytes32"
        },
        {
          "indexed": true,
          "internalType": "bytes32",
          "name": "previousAdminRole",
          "type": "bytes32"
        },
        {
          "indexed": true,
          "internalType": "bytes32",
          "name": "newAdminRole",
          "type": "bytes32"
        }
      ],
      "name": "RoleAdminChanged",
      "type": "event"
    },
    {
      "anonymous": false,
      "inputs": [
        {
          "indexed": true,
          "internalType": "bytes32",
          "name": "role",
          "type": "bytes32"
        },
        {
          "indexed": true,
          "internalType": "address",
          "name": "account",
          "type": "address"
        },
        {
          "indexed": true,
          "internalType": "address",
          "name": "sender",
          "type": "address"
        }
      ],
      "name": "RoleGranted",
      "type": "event"
    },
    {
      "anonymous": false,
      "inputs": [
        {
          "indexed": true,
          "internalType": "bytes32",
          "name": "role",
          "type": "bytes32"
        },
        {
          "indexed": true,
          "internalType": "address",
          "name": "account",
          "type": "address"
        },
        {
          "indexed": true,
          "internalType": "address",
          "name": "sender",
          "type": "address"
        }
      ],
      "name": "RoleRevoked",
      "type": "event"
    },
    {
      "inputs": [],
      "name": "DEFAULT_ADMIN_ROLE",
      "outputs": [
        {
          "internalType": "bytes32",
          "name": "",
          "type": "bytes32"
        }
      ],
      "stateMutability": "view",
      "type": "function"
    },
    {
      "inputs": [],
      "name": "getCurrentExpiredVault",
      "outputs": [
        {
          "internalType": "address",
          "name": "",
          "type": "address"
        }
      ],
      "stateMutability": "view",
      "type": "function"
    },
    {
      "inputs": [
        {
          "internalType": "bytes32",
          "name": "role",
          "type": "bytes32"
        }
      ],
      "name": "getRoleAdmin",
      "outputs": [
        {
          "internalType": "bytes32",
          "name": "",
          "type": "bytes32"
        }
      ],
      "stateMutability": "view",
      "type": "function"
    },
    {
      "inputs": [
        {
          "internalType": "bytes32",
          "name": "role",
          "type": "bytes32"
        },
        {
          "internalType": "address",
          "name": "account",
          "type": "address"
        }
      ],
      "name": "grantRole",
      "outputs": [],
      "stateMutability": "nonpayable",
      "type": "function"
    },
    {
      "inputs": [
        {
          "internalType": "bytes32",
          "name": "role",
          "type": "bytes32"
        },
        {
          "internalType": "address",
          "name": "account",
          "type": "address"
        }
      ],
      "name": "hasRole",
      "outputs": [
        {
          "internalType": "bool",
          "name": "",
          "type": "bool"
        }
      ],
      "stateMutability": "view",
      "type": "function"
    },
    {
      "inputs": [],
      "name": "initialize",
      "outputs": [],
      "stateMutability": "nonpayable",
      "type": "function"
    },
    {
      "inputs": [
        {
          "components": [
            {
              "internalType": "uint256",
              "name": "nftId",
              "type": "uint256"
            },
            {
              "internalType": "uint256",
              "name": "minWBTC",
              "type": "uint256"
            },
            {
              "internalType": "enum SwapManager.SwapRoute",
              "name": "swapRoute",
              "type": "uint8"
            },
            {
              "internalType": "bytes",
              "name": "swapData",
              "type": "bytes"
            },
            {
              "internalType": "address",
              "name": "exchange",
              "type": "address"
            }
          ],
          "internalType": "struct ClosePositionParams",
          "name": "params",
          "type": "tuple"
        }
      ],
      "name": "liquidatePosition",
      "outputs": [],
      "stateMutability": "nonpayable",
      "type": "function"
    },
    {
      "inputs": [
        {
          "internalType": "bytes32",
          "name": "role",
          "type": "bytes32"
        },
        {
          "internalType": "address",
          "name": "callerConfirmation",
          "type": "address"
        }
      ],
      "name": "renounceRole",
      "outputs": [],
      "stateMutability": "nonpayable",
      "type": "function"
    },
    {
      "inputs": [
        {
          "internalType": "bytes32",
          "name": "role",
          "type": "bytes32"
        },
        {
          "internalType": "address",
          "name": "account",
          "type": "address"
        }
      ],
      "name": "revokeRole",
      "outputs": [],
      "stateMutability": "nonpayable",
      "type": "function"
    },
    {
      "inputs": [
        {
          "components": [
            {
              "internalType": "address",
              "name": "expiredVault",
              "type": "address"
            },
            {
              "internalType": "address",
              "name": "leverageDepositor",
              "type": "address"
            },
            {
              "internalType": "address",
              "name": "positionToken",
              "type": "address"
            },
            {
              "internalType": "address",
              "name": "wbtcVault",
              "type": "address"
            },
            {
              "internalType": "address",
              "name": "proxyAdmin",
              "type": "address"
            },
            {
              "internalType": "address",
              "name": "leveragedStrategy",
              "type": "address"
            },
            {
              "internalType": "address",
              "name": "protocolParameters",
              "type": "address"
            },
            {
              "internalType": "address",
              "name": "oracleManager",
              "type": "address"
            },
            {
              "internalType": "address",
              "name": "positionOpener",
              "type": "address"
            },
            {
              "internalType": "address",
              "name": "positionCloser",
              "type": "address"
            },
            {
              "internalType": "address",
              "name": "positionLiquidator",
              "type": "address"
            },
            {
              "internalType": "address",
              "name": "positionLedger",
              "type": "address"
            },
            {
              "internalType": "address",
              "name": "swapManager",
              "type": "address"
            }
          ],
          "internalType": "struct DependencyAddresses",
          "name": "dependencies",
          "type": "tuple"
        }
      ],
      "name": "setDependencies",
      "outputs": [],
      "stateMutability": "nonpayable",
      "type": "function"
    },
    {
      "inputs": [
        {
          "internalType": "address",
          "name": "_expiredVault",
          "type": "address"
        }
      ],
      "name": "setExpiredVault",
      "outputs": [],
      "stateMutability": "nonpayable",
      "type": "function"
    },
    {
      "inputs": [
        {
          "internalType": "address",
          "name": "_monitor",
          "type": "address"
        }
      ],
      "name": "setMonitor",
      "outputs": [],
      "stateMutability": "nonpayable",
      "type": "function"
    },
    {
      "inputs": [
        {
          "internalType": "bytes4",
          "name": "interfaceId",
          "type": "bytes4"
        }
      ],
      "name": "supportsInterface",
      "outputs": [
        {
          "internalType": "bool",
          "name": "",
          "type": "bool"
        }
      ],
      "stateMutability": "view",
      "type": "function"
    }
  ],
  "bytecode": {
    "object": "0x608060405234801561001057600080fd5b5061001961001e565b6100d0565b7ff0c57e16840df040f15088dc2f81fe391c3923bec73e23a9662efc9c229c6a00805468010000000000000000900460ff161561006e5760405163f92ee8a960e01b815260040160405180910390fd5b80546001600160401b03908116146100cd5780546001600160401b0319166001600160401b0390811782556040519081527fc7f505b2f371ae2175ee4913f4499e1f2633a7b5936321eed1cdaeb6115181d29060200160405180910390a15b50565b61241680620000e06000396000f3fe608060405234801561001057600080fd5b50600436106100df5760003560e01c80638129fc1c1161008c578063a217fddf11610066578063a217fddf14610225578063a2d66fc11461022d578063c0b7466e14610240578063d547741f1461025357600080fd5b80638129fc1c146101aa57806391d14854146101b2578063988c63e11461020a57600080fd5b806336568abe116100bd57806336568abe146101715780635cd82390146101845780636097ad1f1461019757600080fd5b806301ffc9a7146100e4578063248a9ca31461010c5780632f2ff15d1461015c575b600080fd5b6100f76100f2366004611f15565b610266565b60405190151581526020015b60405180910390f35b61014e61011a366004611f5e565b60009081527f02dd7bc7dec4dceedda775e58dd541e08a116c6c53815c0bd028192f7b626800602052604090206001015490565b604051908152602001610103565b61016f61016a366004611f8c565b6102ff565b005b61016f61017f366004611f8c565b610349565b61016f610192366004611fbc565b61039a565b61016f6101a5366004611fd9565b6104ad565b61016f6106a6565b6100f76101c0366004611f8c565b60009182527f02dd7bc7dec4dceedda775e58dd541e08a116c6c53815c0bd028192f7b626800602090815260408084206001600160a01b0393909316845291905290205460ff1690565b6009546040516001600160a01b039091168152602001610103565b61014e600081565b61016f61023b366004611fbc565b61084f565b61016f61024e366004612014565b610abb565b61016f610261366004611f8c565b610ca0565b60007fffffffff0000000000000000000000000000000000000000000000000000000082167f7965db0b0000000000000000000000000000000000000000000000000000000014806102f957507f01ffc9a7000000000000000000000000000000000000000000000000000000007fffffffff000000000000000000000000000000000000000000000000000000008316145b92915050565b60008281527f02dd7bc7dec4dceedda775e58dd541e08a116c6c53815c0bd028192f7b626800602052604090206001015461033981610ce4565b6103438383610cf1565b50505050565b6001600160a01b038116331461038b576040517f6697b23200000000000000000000000000000000000000000000000000000000815260040160405180910390fd5b6103958282610dde565b505050565b7fa49807205ce4d355092ef5a8a18f56e8913cf4a201fbe287825b095693c217756103c481610ce4565b6008546001600160a01b03161561040e5760085461040c907f8227712ef8ad39d0f26f06731ef0df8665eb7ada7f41b1ee089adf3c238862a2906001600160a01b0316610dde565b505b600880547fffffffffffffffffffffffff0000000000000000000000000000000000000000166001600160a01b03841617905561046b7f8227712ef8ad39d0f26f06731ef0df8665eb7ada7f41b1ee089adf3c238862a283610cf1565b506040516001600160a01b03831681527f0313146ba3292aad0723ded6f61dbbf3fefd0fc153dca4584a1d55c369f71a6b906020015b60405180910390a15050565b7f8227712ef8ad39d0f26f06731ef0df8665eb7ada7f41b1ee089adf3c238862a26104d781610ce4565b813560006104e482610ea2565b905060006104f2828661104f565b90506104fe858261137d565b600061050a848361166f565b905060006105188783611811565b90506000610526828461205c565b90506105328682611a78565b6000546040517fc0b944c90000000000000000000000000000000000000000000000000000000081526001600160a01b039091169063c0b944c99061057e90899060039060040161209e565b600060405180830381600087803b15801561059857600080fd5b505af11580156105ac573d6000803e3d6000fd5b50505050600083856105be919061205c565b6000546040517f6ccf2fa7000000000000000000000000000000000000000000000000000000008152600481018a90529192506001600160a01b031690636ccf2fa790602401602060405180830381865afa158015610621573d6000803e3d6000fd5b505050506040513d601f19601f8201168201806040525081019061064591906120c2565b6001600160a01b0316877f5564304997c5a4b15399de434a73fbc4339eae8f1b5b2875d0feac2826ce33d2838587604051610693939291909283526020830191909152604082015260600190565b60405180910390a3505050505050505050565b7ff0c57e16840df040f15088dc2f81fe391c3923bec73e23a9662efc9c229c6a00805468010000000000000000810460ff16159067ffffffffffffffff166000811580156106f15750825b905060008267ffffffffffffffff16600114801561070e5750303b155b90508115801561071c575080155b15610753576040517ff92ee8a900000000000000000000000000000000000000000000000000000000815260040160405180910390fd5b84547fffffffffffffffffffffffffffffffffffffffffffffffff000000000000000016600117855583156107b45784547fffffffffffffffffffffffffffffffffffffffffffffff00ffffffffffffffff16680100000000000000001785555b6107bc611b7d565b6107e67fa49807205ce4d355092ef5a8a18f56e8913cf4a201fbe287825b095693c2177533610cf1565b5083156108485784547fffffffffffffffffffffffffffffffffffffffffffffff00ffffffffffffffff168555604051600181527fc7f505b2f371ae2175ee4913f4499e1f2633a7b5936321eed1cdaeb6115181d29060200160405180910390a15b5050505050565b7fa49807205ce4d355092ef5a8a18f56e8913cf4a201fbe287825b095693c2177561087981610ce4565b6009546001600160a01b031615610966576009546040517f095ea7b30000000000000000000000000000000000000000000000000000000081526001600160a01b03909116600482015260006024820152732260fac5e5542a773aa44fbcfedf7c193bc2c5999063095ea7b3906044016020604051808303816000875af1158015610908573d6000803e3d6000fd5b505050506040513d601f19601f8201168201806040525081019061092c91906120df565b50600954610964907f7e58cf7b159f666eca0c0ebe4319a913cf705e17d51e82f1edfc88d6e219eaeb906001600160a01b0316610dde565b505b600980547fffffffffffffffffffffffff0000000000000000000000000000000000000000166001600160a01b0384161790556109c37f7e58cf7b159f666eca0c0ebe4319a913cf705e17d51e82f1edfc88d6e219eaeb83610cf1565b506040517f095ea7b30000000000000000000000000000000000000000000000000000000081526001600160a01b03831660048201527fffffffffffffffffffffffffffffffffffffffffffffffffffffffffffffffff6024820152732260fac5e5542a773aa44fbcfedf7c193bc2c5999063095ea7b3906044016020604051808303816000875af1158015610a5d573d6000803e3d6000fd5b505050506040513d601f19601f82011682018060405250810190610a8191906120df565b506040516001600160a01b03831681527fecbf99f7714b81d37e590499d2f3578847c10f4e6bca6652e479f7045a757b55906020016104a1565b7fa49807205ce4d355092ef5a8a18f56e8913cf4a201fbe287825b095693c21775610ae581610ce4565b610aee82611b87565b610afe61023b6020840184611fbc565b732260fac5e5542a773aa44fbcfedf7c193bc2c59963095ea7b3610b256020850185611fbc565b6040517fffffffff0000000000000000000000000000000000000000000000000000000060e084901b1681526001600160a01b0390911660048201527fffffffffffffffffffffffffffffffffffffffffffffffffffffffffffffffff60248201526044016020604051808303816000875af1158015610ba9573d6000803e3d6000fd5b505050506040513d601f19601f82011682018060405250810190610bcd91906120df565b50732260fac5e5542a773aa44fbcfedf7c193bc2c59963095ea7b3610bf86080850160608601611fbc565b6040517fffffffff0000000000000000000000000000000000000000000000000000000060e084901b1681526001600160a01b0390911660048201527fffffffffffffffffffffffffffffffffffffffffffffffffffffffffffffffff60248201526044016020604051808303816000875af1158015610c7c573d6000803e3d6000fd5b505050506040513d601f19601f8201168201806040525081019061039591906120df565b60008281527f02dd7bc7dec4dceedda775e58dd541e08a116c6c53815c0bd028192f7b6268006020526040902060010154610cda81610ce4565b6103438383610dde565b610cee8133611e19565b50565b60008281527f02dd7bc7dec4dceedda775e58dd541e08a116c6c53815c0bd028192f7b626800602081815260408084206001600160a01b038616855290915282205460ff16610dd4576000848152602082815260408083206001600160a01b0387168452909152902080547fffffffffffffffffffffffffffffffffffffffffffffffffffffffffffffff00166001179055610d8a3390565b6001600160a01b0316836001600160a01b0316857f2f8788117e7eff1d82e926ec794901d17c78024a50270940304540a733656f0d60405160405180910390a460019150506102f9565b60009150506102f9565b60008281527f02dd7bc7dec4dceedda775e58dd541e08a116c6c53815c0bd028192f7b626800602081815260408084206001600160a01b038616855290915282205460ff1615610dd4576000848152602082815260408083206001600160a01b038716808552925280832080547fffffffffffffffffffffffffffffffffffffffffffffffffffffffffffffff0016905551339287917ff6391f5c32d9c69d2a47ea670b442974b53935d1edc7fd64eb21e047a839171b9190a460019150506102f9565b600080546040517f6ccf2fa70000000000000000000000000000000000000000000000000000000081526004810184905282916001600160a01b031690636ccf2fa790602401602060405180830381865afa158015610f05573d6000803e3d6000fd5b505050506040513d601f19601f82011682018060405250810190610f2991906120c2565b600080546040517f7d711daa0000000000000000000000000000000000000000000000000000000081526004810187905292935090916001600160a01b0390911690637d711daa90602401602060405180830381865afa158015610f91573d6000803e3d6000fd5b505050506040513d601f19601f82011682018060405250810190610fb59190612101565b6001546040517f1e9a69500000000000000000000000000000000000000000000000000000000081526001600160a01b03858116600483015260248201849052929350911690631e9a6950906044016020604051808303816000875af1158015611023573d6000803e3d6000fd5b505050506040513d601f19601f820116820180604052508101906110479190612101565b949350505050565b600080546040517f6ccf2fa70000000000000000000000000000000000000000000000000000000081528335600482015282916001600160a01b031690636ccf2fa790602401602060405180830381865afa1580156110b2573d6000803e3d6000fd5b505050506040513d601f19601f820116820180604052508101906110d691906120c2565b6002546040517fd6061ea60000000000000000000000000000000000000000000000000000000081526001600160a01b0380841660048301529293506000929091169063d6061ea690602401602060405180830381865afa15801561113f573d6000803e3d6000fd5b505050506040513d601f19601f8201168201806040525081019061116391906120c2565b6003549091506000906001600160a01b03166387bfefef61118a606088016040890161211a565b6040518263ffffffff1660e01b81526004016111a6919061213b565b602060405180830381865afa1580156111c3573d6000803e3d6000fd5b505050506040513d601f19601f820116820180604052508101906111e791906120c2565b905060006040518060800160405280846001600160a01b0316815260200188815260200187806060019061121b9190612155565b8080601f016020809104026020016040519081016040528093929190818152602001838380828437600092019190915250505090825250306020909101526040517fa9059cbb0000000000000000000000000000000000000000000000000000000081526001600160a01b038481166004830152602482018a90529192509084169063a9059cbb906044016020604051808303816000875af11580156112c5573d6000803e3d6000fd5b505050506040513d601f19601f820116820180604052508101906112e991906120df565b506040517f8aa09fd30000000000000000000000000000000000000000000000000000000081526001600160a01b03831690638aa09fd39061132f9084906004016121c1565b6020604051808303816000875af115801561134e573d6000803e3d6000fd5b505050506040513d601f19601f820116820180604052508101906113729190612101565b979650505050505050565b6000546040517feb29dc5e000000000000000000000000000000000000000000000000000000008152833560048201526001916001600160a01b03169063eb29dc5e90602401602060405180830381865afa1580156113e0573d6000803e3d6000fd5b505050506040513d601f19601f820116820180604052508101906114049190612267565b60048111156114155761141561206f565b1461144c576040517f5117a49b00000000000000000000000000000000000000000000000000000000815260040160405180910390fd5b816020013581101561148a576040517f828f02ae00000000000000000000000000000000000000000000000000000000815260040160405180910390fd5b600080546040517f6ccf2fa7000000000000000000000000000000000000000000000000000000008152843560048201526001600160a01b0390911690636ccf2fa790602401602060405180830381865afa1580156114ed573d6000803e3d6000fd5b505050506040513d601f19601f8201168201806040525081019061151191906120c2565b600080546040517facd722730000000000000000000000000000000000000000000000000000000081528635600482015292935090916001600160a01b039091169063acd7227390602401602060405180830381865afa158015611579573d6000803e3d6000fd5b505050506040513d601f19601f8201168201806040525081019061159d9190612101565b6002546040517f4237af460000000000000000000000000000000000000000000000000000000081526001600160a01b0385811660048301526024820187905260448201849052929350911690634237af4690606401602060405180830381865afa158015611610573d6000803e3d6000fd5b505050506040513d601f19601f8201168201806040525081019061163491906120df565b1515600003610343576040517f5e6797f900000000000000000000000000000000000000000000000000000000815260040160405180910390fd5b600080546040517facd722730000000000000000000000000000000000000000000000000000000081526004810185905282916001600160a01b03169063acd7227390602401602060405180830381865afa1580156116d2573d6000803e3d6000fd5b505050506040513d601f19601f820116820180604052508101906116f69190612101565b9050808311611787576005546040517f015cb0a500000000000000000000000000000000000000000000000000000000815260048101869052602481018590526001600160a01b039091169063015cb0a590604401600060405180830381600087803b15801561176557600080fd5b505af1158015611779573d6000803e3d6000fd5b5050505060009150506102f9565b6005546040517f015cb0a500000000000000000000000000000000000000000000000000000000815260048101869052602481018390526001600160a01b039091169063015cb0a590604401600060405180830381600087803b1580156117ed57600080fd5b505af1158015611801573d6000803e3d6000fd5b505050508083611047919061205c565b600081600003611823575060006102f9565b600080546040517f6ccf2fa7000000000000000000000000000000000000000000000000000000008152853560048201526001600160a01b0390911690636ccf2fa790602401602060405180830381865afa158015611886573d6000803e3d6000fd5b505050506040513d601f19601f820116820180604052508101906118aa91906120c2565b90506118b86008600a6123a8565b6002546040517f61acf8d50000000000000000000000000000000000000000000000000000000081526001600160a01b038481166004830152869216906361acf8d590602401602060405180830381865afa15801561191b573d6000803e3d6000fd5b505050506040513d601f19601f8201168201806040525081019061193f9190612101565b61194991906123b7565b61195391906123ce565b91506000600660009054906101000a90046001600160a01b03166001600160a01b03166312fde4b76040518163ffffffff1660e01b8152600401602060405180830381865afa1580156119aa573d6000803e3d6000fd5b505050506040513d601f19601f820116820180604052508101906119ce91906120c2565b6040517fa9059cbb0000000000000000000000000000000000000000000000000000000081526001600160a01b038216600482015260248101859052909150732260fac5e5542a773aa44fbcfedf7c193bc2c5999063a9059cbb906044016020604051808303816000875af1158015611a4b573d6000803e3d6000fd5b505050506040513d601f19601f82011682018060405250810190611a6f91906120df565b50505092915050565b6000546040517f44a46feb00000000000000000000000000000000000000000000000000000000815260048101849052602481018390526001600160a01b03909116906344a46feb90604401600060405180830381600087803b158015611ade57600080fd5b505af1158015611af2573d6000803e3d6000fd5b5050505080600003611b02575050565b6009546040517fb6b55f25000000000000000000000000000000000000000000000000000000008152600481018390526001600160a01b039091169063b6b55f2590602401600060405180830381600087803b158015611b6157600080fd5b505af1158015611b75573d6000803e3d6000fd5b505050505050565b611b85611eae565b565b611b9961018082016101608301611fbc565b600080547fffffffffffffffffffffffff0000000000000000000000000000000000000000166001600160a01b0392909216919091179055611be16060820160408301611fbc565b600480547fffffffffffffffffffffffff0000000000000000000000000000000000000000166001600160a01b0392909216919091179055611c2b6101a082016101808301611fbc565b600380547fffffffffffffffffffffffff0000000000000000000000000000000000000000166001600160a01b0392909216919091179055611c736080820160608301611fbc565b600580547fffffffffffffffffffffffff0000000000000000000000000000000000000000166001600160a01b0392909216919091179055611cbb60c0820160a08301611fbc565b600280547fffffffffffffffffffffffff0000000000000000000000000000000000000000166001600160a01b0392909216919091179055611d0360e0820160c08301611fbc565b600680547fffffffffffffffffffffffff0000000000000000000000000000000000000000166001600160a01b0392909216919091179055611d4c610100820160e08301611fbc565b600780547fffffffffffffffffffffffff0000000000000000000000000000000000000000166001600160a01b0392909216919091179055611d9661018082016101608301611fbc565b600080547fffffffffffffffffffffffff0000000000000000000000000000000000000000166001600160a01b0392909216919091179055611dde6040820160208301611fbc565b600180547fffffffffffffffffffffffff0000000000000000000000000000000000000000166001600160a01b039290921691909117905550565b60008281527f02dd7bc7dec4dceedda775e58dd541e08a116c6c53815c0bd028192f7b626800602090815260408083206001600160a01b038516845290915290205460ff16611eaa576040517fe2517d3f0000000000000000000000000000000000000000000000000000000081526001600160a01b03821660048201526024810183905260440160405180910390fd5b5050565b7ff0c57e16840df040f15088dc2f81fe391c3923bec73e23a9662efc9c229c6a005468010000000000000000900460ff16611b85576040517fd7e6bcf800000000000000000000000000000000000000000000000000000000815260040160405180910390fd5b600060208284031215611f2757600080fd5b81357fffffffff0000000000000000000000000000000000000000000000000000000081168114611f5757600080fd5b9392505050565b600060208284031215611f7057600080fd5b5035919050565b6001600160a01b0381168114610cee57600080fd5b60008060408385031215611f9f57600080fd5b823591506020830135611fb181611f77565b809150509250929050565b600060208284031215611fce57600080fd5b8135611f5781611f77565b600060208284031215611feb57600080fd5b813567ffffffffffffffff81111561200257600080fd5b820160a08185031215611f5757600080fd5b60006101a0828403121561202757600080fd5b50919050565b7f4e487b7100000000000000000000000000000000000000000000000000000000600052601160045260246000fd5b818103818111156102f9576102f961202d565b7f4e487b7100000000000000000000000000000000000000000000000000000000600052602160045260246000fd5b82815260408101600583106120b5576120b561206f565b8260208301529392505050565b6000602082840312156120d457600080fd5b8151611f5781611f77565b6000602082840312156120f157600080fd5b81518015158114611f5757600080fd5b60006020828403121561211357600080fd5b5051919050565b60006020828403121561212c57600080fd5b813560018110611f5757600080fd5b602081016001831061214f5761214f61206f565b91905290565b60008083357fffffffffffffffffffffffffffffffffffffffffffffffffffffffffffffffe184360301811261218a57600080fd5b83018035915067ffffffffffffffff8211156121a557600080fd5b6020019150368190038213156121ba57600080fd5b9250929050565b600060208083526001600160a01b038451168184015280840151604084015260408401516080606085015280518060a086015260005b818110156122135782810184015186820160c0015283016121f7565b50600085820160c0015260608601516001600160a01b03811660808701529250601f017fffffffffffffffffffffffffffffffffffffffffffffffffffffffffffffffe0169390930160c001949350505050565b60006020828403121561227957600080fd5b815160058110611f5757600080fd5b600181815b808511156122e157817fffffffffffffffffffffffffffffffffffffffffffffffffffffffffffffffff048211156122c7576122c761202d565b808516156122d457918102915b93841c939080029061228d565b509250929050565b6000826122f8575060016102f9565b81612305575060006102f9565b816001811461231b576002811461232557612341565b60019150506102f9565b60ff8411156123365761233661202d565b50506001821b6102f9565b5060208310610133831016604e8410600b8410161715612364575081810a6102f9565b61236e8383612288565b807fffffffffffffffffffffffffffffffffffffffffffffffffffffffffffffffff048211156123a0576123a061202d565b029392505050565b6000611f5760ff8416836122e9565b80820281158282048414176102f9576102f961202d565b600082612404577f4e487b7100000000000000000000000000000000000000000000000000000000600052601260045260246000fd5b50049056fea164736f6c6343000815000a",
    "linkReferences": {}
  },
  "methodIdentifiers": {
    "DEFAULT_ADMIN_ROLE()": "a217fddf",
    "getCurrentExpiredVault()": "988c63e1",
    "getRoleAdmin(bytes32)": "248a9ca3",
    "grantRole(bytes32,address)": "2f2ff15d",
    "hasRole(bytes32,address)": "91d14854",
    "initialize()": "8129fc1c",
    "liquidatePosition((uint256,uint256,uint8,bytes,address))": "6097ad1f",
    "renounceRole(bytes32,address)": "36568abe",
    "revokeRole(bytes32,address)": "d547741f",
    "setDependencies((address,address,address,address,address,address,address,address,address,address,address,address,address))": "c0b7466e",
    "setExpiredVault(address)": "a2d66fc1",
    "setMonitor(address)": "5cd82390",
    "supportsInterface(bytes4)": "01ffc9a7"
  },
  "id": 76
}