{
  "abi": [
    {
      "inputs": [],
      "stateMutability": "nonpayable",
      "type": "constructor"
    },
    {
      "inputs": [],
      "name": "AccessControlBadConfirmation",
      "type": "error"
    },
    {
      "inputs": [
        {
          "internalType": "address",
          "name": "account",
          "type": "address"
        },
        {
          "internalType": "bytes32",
          "name": "neededRole",
          "type": "bytes32"
        }
      ],
      "name": "AccessControlUnauthorizedAccount",
      "type": "error"
    },
    {
      "inputs": [
        {
          "internalType": "address",
          "name": "sender",
          "type": "address"
        },
        {
          "internalType": "uint256",
          "name": "tokenId",
          "type": "uint256"
        },
        {
          "internalType": "address",
          "name": "owner",
          "type": "address"
        }
      ],
      "name": "ERC721IncorrectOwner",
      "type": "error"
    },
    {
      "inputs": [
        {
          "internalType": "address",
          "name": "operator",
          "type": "address"
        },
        {
          "internalType": "uint256",
          "name": "tokenId",
          "type": "uint256"
        }
      ],
      "name": "ERC721InsufficientApproval",
      "type": "error"
    },
    {
      "inputs": [
        {
          "internalType": "address",
          "name": "approver",
          "type": "address"
        }
      ],
      "name": "ERC721InvalidApprover",
      "type": "error"
    },
    {
      "inputs": [
        {
          "internalType": "address",
          "name": "operator",
          "type": "address"
        }
      ],
      "name": "ERC721InvalidOperator",
      "type": "error"
    },
    {
      "inputs": [
        {
          "internalType": "address",
          "name": "owner",
          "type": "address"
        }
      ],
      "name": "ERC721InvalidOwner",
      "type": "error"
    },
    {
      "inputs": [
        {
          "internalType": "address",
          "name": "receiver",
          "type": "address"
        }
      ],
      "name": "ERC721InvalidReceiver",
      "type": "error"
    },
    {
      "inputs": [
        {
          "internalType": "address",
          "name": "sender",
          "type": "address"
        }
      ],
      "name": "ERC721InvalidSender",
      "type": "error"
    },
    {
      "inputs": [
        {
          "internalType": "uint256",
          "name": "tokenId",
          "type": "uint256"
        }
      ],
      "name": "ERC721NonexistentToken",
      "type": "error"
    },
    {
      "anonymous": false,
      "inputs": [
        {
          "indexed": true,
          "internalType": "address",
          "name": "owner",
          "type": "address"
        },
        {
          "indexed": true,
          "internalType": "address",
          "name": "approved",
          "type": "address"
        },
        {
          "indexed": true,
          "internalType": "uint256",
          "name": "tokenId",
          "type": "uint256"
        }
      ],
      "name": "Approval",
      "type": "event"
    },
    {
      "anonymous": false,
      "inputs": [
        {
          "indexed": true,
          "internalType": "address",
          "name": "owner",
          "type": "address"
        },
        {
          "indexed": true,
          "internalType": "address",
          "name": "operator",
          "type": "address"
        },
        {
          "indexed": false,
          "internalType": "bool",
          "name": "approved",
          "type": "bool"
        }
      ],
      "name": "ApprovalForAll",
      "type": "event"
    },
    {
      "anonymous": false,
      "inputs": [
        {
          "indexed": true,
          "internalType": "bytes32",
          "name": "role",
          "type": "bytes32"
        },
        {
          "indexed": true,
          "internalType": "bytes32",
          "name": "previousAdminRole",
          "type": "bytes32"
        },
        {
          "indexed": true,
          "internalType": "bytes32",
          "name": "newAdminRole",
          "type": "bytes32"
        }
      ],
      "name": "RoleAdminChanged",
      "type": "event"
    },
    {
      "anonymous": false,
      "inputs": [
        {
          "indexed": true,
          "internalType": "bytes32",
          "name": "role",
          "type": "bytes32"
        },
        {
          "indexed": true,
          "internalType": "address",
          "name": "account",
          "type": "address"
        },
        {
          "indexed": true,
          "internalType": "address",
          "name": "sender",
          "type": "address"
        }
      ],
      "name": "RoleGranted",
      "type": "event"
    },
    {
      "anonymous": false,
      "inputs": [
        {
          "indexed": true,
          "internalType": "bytes32",
          "name": "role",
          "type": "bytes32"
        },
        {
          "indexed": true,
          "internalType": "address",
          "name": "account",
          "type": "address"
        },
        {
          "indexed": true,
          "internalType": "address",
          "name": "sender",
          "type": "address"
        }
      ],
      "name": "RoleRevoked",
      "type": "event"
    },
    {
      "anonymous": false,
      "inputs": [
        {
          "indexed": true,
          "internalType": "address",
          "name": "from",
          "type": "address"
        },
        {
          "indexed": true,
          "internalType": "address",
          "name": "to",
          "type": "address"
        },
        {
          "indexed": true,
          "internalType": "uint256",
          "name": "tokenId",
          "type": "uint256"
        }
      ],
      "name": "Transfer",
      "type": "event"
    },
    {
      "inputs": [],
      "name": "DEFAULT_ADMIN_ROLE",
      "outputs": [
        {
          "internalType": "bytes32",
          "name": "",
          "type": "bytes32"
        }
      ],
      "stateMutability": "view",
      "type": "function"
    },
    {
      "inputs": [
        {
          "internalType": "address",
          "name": "to",
          "type": "address"
        },
        {
          "internalType": "uint256",
          "name": "tokenId",
          "type": "uint256"
        }
      ],
      "name": "approve",
      "outputs": [],
      "stateMutability": "nonpayable",
      "type": "function"
    },
    {
      "inputs": [
        {
          "internalType": "address",
          "name": "owner",
          "type": "address"
        }
      ],
      "name": "balanceOf",
      "outputs": [
        {
          "internalType": "uint256",
          "name": "",
          "type": "uint256"
        }
      ],
      "stateMutability": "view",
      "type": "function"
    },
    {
      "inputs": [
        {
          "internalType": "uint256",
          "name": "tokenId",
          "type": "uint256"
        }
      ],
      "name": "burn",
      "outputs": [],
      "stateMutability": "nonpayable",
      "type": "function"
    },
    {
      "inputs": [
        {
          "internalType": "uint256",
          "name": "tokenId",
          "type": "uint256"
        }
      ],
      "name": "getApproved",
      "outputs": [
        {
          "internalType": "address",
          "name": "",
          "type": "address"
        }
      ],
      "stateMutability": "view",
      "type": "function"
    },
    {
      "inputs": [
        {
          "internalType": "bytes32",
          "name": "role",
          "type": "bytes32"
        }
      ],
      "name": "getRoleAdmin",
      "outputs": [
        {
          "internalType": "bytes32",
          "name": "",
          "type": "bytes32"
        }
      ],
      "stateMutability": "view",
      "type": "function"
    },
    {
      "inputs": [
        {
          "internalType": "bytes32",
          "name": "role",
          "type": "bytes32"
        },
        {
          "internalType": "address",
          "name": "account",
          "type": "address"
        }
      ],
      "name": "grantRole",
      "outputs": [],
      "stateMutability": "nonpayable",
      "type": "function"
    },
    {
      "inputs": [
        {
          "internalType": "bytes32",
          "name": "role",
          "type": "bytes32"
        },
        {
          "internalType": "address",
          "name": "account",
          "type": "address"
        }
      ],
      "name": "hasRole",
      "outputs": [
        {
          "internalType": "bool",
          "name": "",
          "type": "bool"
        }
      ],
      "stateMutability": "view",
      "type": "function"
    },
    {
      "inputs": [
        {
          "internalType": "address",
          "name": "owner",
          "type": "address"
        },
        {
          "internalType": "address",
          "name": "operator",
          "type": "address"
        }
      ],
      "name": "isApprovedForAll",
      "outputs": [
        {
          "internalType": "bool",
          "name": "",
          "type": "bool"
        }
      ],
      "stateMutability": "view",
      "type": "function"
    },
    {
      "inputs": [
        {
          "internalType": "address",
          "name": "to",
          "type": "address"
        }
      ],
      "name": "mint",
      "outputs": [
        {
          "internalType": "uint256",
          "name": "",
          "type": "uint256"
        }
      ],
      "stateMutability": "nonpayable",
      "type": "function"
    },
    {
      "inputs": [],
      "name": "name",
      "outputs": [
        {
          "internalType": "string",
          "name": "",
          "type": "string"
        }
      ],
      "stateMutability": "view",
      "type": "function"
    },
    {
      "inputs": [
        {
          "internalType": "uint256",
          "name": "tokenId",
          "type": "uint256"
        }
      ],
      "name": "ownerOf",
      "outputs": [
        {
          "internalType": "address",
          "name": "",
          "type": "address"
        }
      ],
      "stateMutability": "view",
      "type": "function"
    },
    {
      "inputs": [
        {
          "internalType": "bytes32",
          "name": "role",
          "type": "bytes32"
        },
        {
          "internalType": "address",
          "name": "callerConfirmation",
          "type": "address"
        }
      ],
      "name": "renounceRole",
      "outputs": [],
      "stateMutability": "nonpayable",
      "type": "function"
    },
    {
      "inputs": [
        {
          "internalType": "bytes32",
          "name": "role",
          "type": "bytes32"
        },
        {
          "internalType": "address",
          "name": "account",
          "type": "address"
        }
      ],
      "name": "revokeRole",
      "outputs": [],
      "stateMutability": "nonpayable",
      "type": "function"
    },
    {
      "inputs": [
        {
          "internalType": "address",
          "name": "from",
          "type": "address"
        },
        {
          "internalType": "address",
          "name": "to",
          "type": "address"
        },
        {
          "internalType": "uint256",
          "name": "tokenId",
          "type": "uint256"
        }
      ],
      "name": "safeTransferFrom",
      "outputs": [],
      "stateMutability": "nonpayable",
      "type": "function"
    },
    {
      "inputs": [
        {
          "internalType": "address",
          "name": "from",
          "type": "address"
        },
        {
          "internalType": "address",
          "name": "to",
          "type": "address"
        },
        {
          "internalType": "uint256",
          "name": "tokenId",
          "type": "uint256"
        },
        {
          "internalType": "bytes",
          "name": "data",
          "type": "bytes"
        }
      ],
      "name": "safeTransferFrom",
      "outputs": [],
      "stateMutability": "nonpayable",
      "type": "function"
    },
    {
      "inputs": [
        {
          "internalType": "address",
          "name": "operator",
          "type": "address"
        },
        {
          "internalType": "bool",
          "name": "approved",
          "type": "bool"
        }
      ],
      "name": "setApprovalForAll",
      "outputs": [],
      "stateMutability": "nonpayable",
      "type": "function"
    },
    {
      "inputs": [
        {
          "components": [
            {
              "internalType": "address",
              "name": "expiredVault",
              "type": "address"
            },
            {
              "internalType": "address",
              "name": "leverageDepositor",
              "type": "address"
            },
            {
              "internalType": "address",
              "name": "positionToken",
              "type": "address"
            },
            {
              "internalType": "address",
              "name": "wbtcVault",
              "type": "address"
            },
            {
              "internalType": "address",
              "name": "proxyAdmin",
              "type": "address"
            },
            {
              "internalType": "address",
              "name": "leveragedStrategy",
              "type": "address"
            },
            {
              "internalType": "address",
              "name": "protocolParameters",
              "type": "address"
            },
            {
              "internalType": "address",
              "name": "oracleManager",
              "type": "address"
            },
            {
              "internalType": "address",
              "name": "positionOpener",
              "type": "address"
            },
            {
              "internalType": "address",
              "name": "positionCloser",
              "type": "address"
            },
            {
              "internalType": "address",
              "name": "positionLiquidator",
              "type": "address"
            },
            {
              "internalType": "address",
              "name": "positionLedger",
              "type": "address"
            },
            {
              "internalType": "address",
              "name": "swapManager",
              "type": "address"
            }
          ],
          "internalType": "struct DependencyAddresses",
          "name": "dependencies",
          "type": "tuple"
        }
      ],
      "name": "setDependencies",
      "outputs": [],
      "stateMutability": "nonpayable",
      "type": "function"
    },
    {
      "inputs": [
        {
          "internalType": "string",
          "name": "uri",
          "type": "string"
        }
      ],
      "name": "setTokenURI",
      "outputs": [],
      "stateMutability": "nonpayable",
      "type": "function"
    },
    {
      "inputs": [
        {
          "internalType": "bytes4",
          "name": "interfaceId",
          "type": "bytes4"
        }
      ],
      "name": "supportsInterface",
      "outputs": [
        {
          "internalType": "bool",
          "name": "",
          "type": "bool"
        }
      ],
      "stateMutability": "view",
      "type": "function"
    },
    {
      "inputs": [],
      "name": "symbol",
      "outputs": [
        {
          "internalType": "string",
          "name": "",
          "type": "string"
        }
      ],
      "stateMutability": "view",
      "type": "function"
    },
    {
      "inputs": [
        {
          "internalType": "uint256",
          "name": "tokenId",
          "type": "uint256"
        }
      ],
      "name": "tokenURI",
      "outputs": [
        {
          "internalType": "string",
          "name": "",
          "type": "string"
        }
      ],
      "stateMutability": "view",
      "type": "function"
    },
    {
      "inputs": [
        {
          "internalType": "address",
          "name": "from",
          "type": "address"
        },
        {
          "internalType": "address",
          "name": "to",
          "type": "address"
        },
        {
          "internalType": "uint256",
          "name": "tokenId",
          "type": "uint256"
        }
      ],
      "name": "transferFrom",
      "outputs": [],
      "stateMutability": "nonpayable",
      "type": "function"
    }
  ],
  "bytecode": {
    "object": "0x60c0604052600d60809081526c2837b9b4ba34b7b72a37b5b2b760991b60a0526007906200002e90826200027f565b50604080518082019091526002815261141560f21b60208201526008906200005790826200027f565b506040805160208101909152600081526009906200007690826200027f565b506000600a553480156200008957600080fd5b506040518060400160405280600d81526020016c2837b9b4ba34b7b72a37b5b2b760991b81525060405180604001604052806002815260200161141560f21b8152508160009081620000dc91906200027f565b506001620000eb82826200027f565b505050620001207fa49807205ce4d355092ef5a8a18f56e8913cf4a201fbe287825b095693c21775336200012760201b60201c565b506200034b565b60008281526006602090815260408083206001600160a01b038516845290915281205460ff16620001d05760008381526006602090815260408083206001600160a01b03861684529091529020805460ff19166001179055620001873390565b6001600160a01b0316826001600160a01b0316847f2f8788117e7eff1d82e926ec794901d17c78024a50270940304540a733656f0d60405160405180910390a4506001620001d4565b5060005b92915050565b634e487b7160e01b600052604160045260246000fd5b600181811c908216806200020557607f821691505b6020821081036200022657634e487b7160e01b600052602260045260246000fd5b50919050565b601f8211156200027a57600081815260208120601f850160051c81016020861015620002555750805b601f850160051c820191505b81811015620002765782815560010162000261565b5050505b505050565b81516001600160401b038111156200029b576200029b620001da565b620002b381620002ac8454620001f0565b846200022c565b602080601f831160018114620002eb5760008415620002d25750858301515b600019600386901b1c1916600185901b17855562000276565b600085815260208120601f198616915b828110156200031c57888601518255948401946001909101908401620002fb565b50858210156200033b5787850151600019600388901b60f8161c191681555b5050505050600190811b01905550565b611a3c806200035b6000396000f3fe608060405234801561001057600080fd5b506004361061018d5760003560e01c80636a627842116100e3578063b88d4fde1161008c578063d547741f11610066578063d547741f146103af578063e0df5b6f146103c2578063e985e9c5146103d557600080fd5b8063b88d4fde14610376578063c0b7466e14610389578063c87b56dd1461039c57600080fd5b806395d89b41116100bd57806395d89b4114610353578063a217fddf1461035b578063a22cb4651461036357600080fd5b80636a627842146102f457806370a082311461030757806391d148541461031a57600080fd5b8063248a9ca31161014557806342842e0e1161011f57806342842e0e146102bb57806342966c68146102ce5780636352211e146102e157600080fd5b8063248a9ca3146102645780632f2ff15d1461029557806336568abe146102a857600080fd5b8063081812fc11610176578063081812fc14610211578063095ea7b31461023c57806323b872dd1461025157600080fd5b806301ffc9a71461019257806306fdde03146101fc575b600080fd5b6101e76101a0366004611437565b7fffffffff00000000000000000000000000000000000000000000000000000000167fda0d82f5000000000000000000000000000000000000000000000000000000001490565b60405190151581526020015b60405180910390f35b610204610411565b6040516101f391906114c2565b61022461021f3660046114d5565b6104a3565b6040516001600160a01b0390911681526020016101f3565b61024f61024a36600461150a565b6104ce565b005b61024f61025f366004611534565b6104dd565b6102876102723660046114d5565b60009081526006602052604090206001015490565b6040519081526020016101f3565b61024f6102a3366004611570565b61059f565b61024f6102b6366004611570565b6105c4565b61024f6102c9366004611534565b610615565b61024f6102dc3660046114d5565b610630565b6102246102ef3660046114d5565b610663565b61028761030236600461159c565b61066e565b61028761031536600461159c565b6106c9565b6101e7610328366004611570565b60009182526006602090815260408084206001600160a01b0393909316845291905290205460ff1690565b61020461072a565b610287600081565b61024f6103713660046115b7565b610739565b61024f6103843660046116b6565b610744565b61024f610397366004611732565b61075b565b6102046103aa3660046114d5565b610829565b61024f6103bd366004611570565b61089e565b61024f6103d0366004611745565b6108c3565b6101e76103e336600461178e565b6001600160a01b03918216600090815260056020908152604080832093909416825291909152205460ff1690565b606060008054610420906117b8565b80601f016020809104026020016040519081016040528092919081815260200182805461044c906117b8565b80156104995780601f1061046e57610100808354040283529160200191610499565b820191906000526020600020905b81548152906001019060200180831161047c57829003601f168201915b5050505050905090565b60006104ae826108f9565b506000828152600460205260409020546001600160a01b03165b92915050565b6104d982823361094b565b5050565b6001600160a01b038216610525576040517f64a0ae92000000000000000000000000000000000000000000000000000000008152600060048201526024015b60405180910390fd5b6000610532838333610958565b9050836001600160a01b0316816001600160a01b031614610599576040517f64283d7b0000000000000000000000000000000000000000000000000000000081526001600160a01b038086166004830152602482018490528216604482015260640161051c565b50505050565b6000828152600660205260409020600101546105ba81610a87565b6105998383610a94565b6001600160a01b0381163314610606576040517f6697b23200000000000000000000000000000000000000000000000000000000815260040160405180910390fd5b6106108282610b60565b505050565b61061083838360405180602001604052806000815250610744565b7f95527396ef7079b4e7aa0523dff07d638fe39b8ce08d979dae99f15bb34c2b8f61065a81610a87565b6104d982610c05565b60006104c8826108f9565b60007f95527396ef7079b4e7aa0523dff07d638fe39b8ce08d979dae99f15bb34c2b8f61069a81610a87565b600a546106a78482610c59565b6001600a60008282546106ba9190611805565b90915550909250505b50919050565b60006001600160a01b03821661070e576040517f89c62b640000000000000000000000000000000000000000000000000000000081526000600482015260240161051c565b506001600160a01b031660009081526003602052604090205490565b606060018054610420906117b8565b6104d9338383610cf0565b61074f8484846104dd565b61059984848484610dc6565b7fa49807205ce4d355092ef5a8a18f56e8913cf4a201fbe287825b095693c2177561078581610a87565b6107c07f95527396ef7079b4e7aa0523dff07d638fe39b8ce08d979dae99f15bb34c2b8f6107bb6101208501610100860161159c565b610a94565b506107f77f95527396ef7079b4e7aa0523dff07d638fe39b8ce08d979dae99f15bb34c2b8f6107bb6101408501610120860161159c565b506106107f95527396ef7079b4e7aa0523dff07d638fe39b8ce08d979dae99f15bb34c2b8f6107bb602085018561159c565b6060610834826108f9565b50600061084c60408051602081019091526000815290565b9050600081511161086c5760405180602001604052806000815250610897565b8061087684610f89565b60405160200161088792919061183f565b6040516020818303038152906040525b9392505050565b6000828152600660205260409020600101546108b981610a87565b6105998383610b60565b7fa49807205ce4d355092ef5a8a18f56e8913cf4a201fbe287825b095693c217756108ed81610a87565b600961061083826118bc565b6000818152600260205260408120546001600160a01b0316806104c8576040517f7e2732890000000000000000000000000000000000000000000000000000000081526004810184905260240161051c565b6106108383836001611047565b6000828152600260205260408120546001600160a01b03908116908316156109855761098581848661119d565b6001600160a01b038116156109e1576109a2600085600080611047565b6001600160a01b038116600090815260036020526040902080547fffffffffffffffffffffffffffffffffffffffffffffffffffffffffffffffff0190555b6001600160a01b03851615610a10576001600160a01b0385166000908152600360205260409020805460010190555b60008481526002602052604080822080547fffffffffffffffffffffffff0000000000000000000000000000000000000000166001600160a01b0389811691821790925591518793918516917fddf252ad1be2c89b69c2b068fc378daa952ba7f163c4a11628f55a4df523b3ef91a4949350505050565b610a918133611233565b50565b60008281526006602090815260408083206001600160a01b038516845290915281205460ff16610b585760008381526006602090815260408083206001600160a01b0386168452909152902080547fffffffffffffffffffffffffffffffffffffffffffffffffffffffffffffff00166001179055610b103390565b6001600160a01b0316826001600160a01b0316847f2f8788117e7eff1d82e926ec794901d17c78024a50270940304540a733656f0d60405160405180910390a45060016104c8565b5060006104c8565b60008281526006602090815260408083206001600160a01b038516845290915281205460ff1615610b585760008381526006602090815260408083206001600160a01b038616808552925280832080547fffffffffffffffffffffffffffffffffffffffffffffffffffffffffffffff0016905551339286917ff6391f5c32d9c69d2a47ea670b442974b53935d1edc7fd64eb21e047a839171b9190a45060016104c8565b6000610c146000836000610958565b90506001600160a01b0381166104d9576040517f7e2732890000000000000000000000000000000000000000000000000000000081526004810183905260240161051c565b6001600160a01b038216610c9c576040517f64a0ae920000000000000000000000000000000000000000000000000000000081526000600482015260240161051c565b6000610caa83836000610958565b90506001600160a01b03811615610610576040517f73c6ac6e0000000000000000000000000000000000000000000000000000000081526000600482015260240161051c565b6001600160a01b038216610d3b576040517f5b08ba180000000000000000000000000000000000000000000000000000000081526001600160a01b038316600482015260240161051c565b6001600160a01b0383811660008181526005602090815260408083209487168084529482529182902080547fffffffffffffffffffffffffffffffffffffffffffffffffffffffffffffff001686151590811790915591519182527f17307eab39ab6107e8899845ad3d59bd9653f200f220920489ca2b5937696c31910160405180910390a3505050565b6001600160a01b0383163b15610599576040517f150b7a020000000000000000000000000000000000000000000000000000000081526001600160a01b0384169063150b7a0290610e219033908890879087906004016119d6565b6020604051808303816000875af1925050508015610e7a575060408051601f3d9081017fffffffffffffffffffffffffffffffffffffffffffffffffffffffffffffffe0168201909252610e7791810190611a12565b60015b610efc573d808015610ea8576040519150601f19603f3d011682016040523d82523d6000602084013e610ead565b606091505b508051600003610ef4576040517f64a0ae920000000000000000000000000000000000000000000000000000000081526001600160a01b038516600482015260240161051c565b805181602001fd5b7fffffffff0000000000000000000000000000000000000000000000000000000081167f150b7a020000000000000000000000000000000000000000000000000000000014610f82576040517f64a0ae920000000000000000000000000000000000000000000000000000000081526001600160a01b038516600482015260240161051c565b5050505050565b60606000610f96836112a1565b600101905060008167ffffffffffffffff811115610fb657610fb66115f3565b6040519080825280601f01601f191660200182016040528015610fe0576020820181803683370190505b5090508181016020015b7fffffffffffffffffffffffffffffffffffffffffffffffffffffffffffffffff017f3031323334353637383961626364656600000000000000000000000000000000600a86061a8153600a8504945084610fea57509392505050565b808061105b57506001600160a01b03821615155b1561115557600061106b846108f9565b90506001600160a01b038316158015906110975750826001600160a01b0316816001600160a01b031614155b80156110c957506001600160a01b0380821660009081526005602090815260408083209387168352929052205460ff16155b1561110b576040517fa9fbf51f0000000000000000000000000000000000000000000000000000000081526001600160a01b038416600482015260240161051c565b81156111535783856001600160a01b0316826001600160a01b03167f8c5be1e5ebec7d5bd14f71427d1e84f3dd0314c0f7b2291e5b200ac8c7c3b92560405160405180910390a45b505b5050600090815260046020526040902080547fffffffffffffffffffffffff0000000000000000000000000000000000000000166001600160a01b0392909216919091179055565b6111a8838383611383565b610610576001600160a01b0383166111ef576040517f7e2732890000000000000000000000000000000000000000000000000000000081526004810182905260240161051c565b6040517f177e802f0000000000000000000000000000000000000000000000000000000081526001600160a01b03831660048201526024810182905260440161051c565b60008281526006602090815260408083206001600160a01b038516845290915290205460ff166104d9576040517fe2517d3f0000000000000000000000000000000000000000000000000000000081526001600160a01b03821660048201526024810183905260440161051c565b6000807a184f03e93ff9f4daa797ed6e38ed64bf6a1f01000000000000000083106112ea577a184f03e93ff9f4daa797ed6e38ed64bf6a1f010000000000000000830492506040015b6d04ee2d6d415b85acef81000000008310611316576d04ee2d6d415b85acef8100000000830492506020015b662386f26fc10000831061133457662386f26fc10000830492506010015b6305f5e100831061134c576305f5e100830492506008015b612710831061136057612710830492506004015b60648310611372576064830492506002015b600a83106104c85760010192915050565b60006001600160a01b038316158015906114015750826001600160a01b0316846001600160a01b031614806113dd57506001600160a01b0380851660009081526005602090815260408083209387168352929052205460ff165b8061140157506000828152600460205260409020546001600160a01b038481169116145b949350505050565b7fffffffff0000000000000000000000000000000000000000000000000000000081168114610a9157600080fd5b60006020828403121561144957600080fd5b813561089781611409565b60005b8381101561146f578181015183820152602001611457565b50506000910152565b60008151808452611490816020860160208601611454565b601f017fffffffffffffffffffffffffffffffffffffffffffffffffffffffffffffffe0169290920160200192915050565b6020815260006108976020830184611478565b6000602082840312156114e757600080fd5b5035919050565b80356001600160a01b038116811461150557600080fd5b919050565b6000806040838503121561151d57600080fd5b611526836114ee565b946020939093013593505050565b60008060006060848603121561154957600080fd5b611552846114ee565b9250611560602085016114ee565b9150604084013590509250925092565b6000806040838503121561158357600080fd5b82359150611593602084016114ee565b90509250929050565b6000602082840312156115ae57600080fd5b610897826114ee565b600080604083850312156115ca57600080fd5b6115d3836114ee565b9150602083013580151581146115e857600080fd5b809150509250929050565b7f4e487b7100000000000000000000000000000000000000000000000000000000600052604160045260246000fd5b600067ffffffffffffffff8084111561163d5761163d6115f3565b604051601f85017fffffffffffffffffffffffffffffffffffffffffffffffffffffffffffffffe0908116603f01168101908282118183101715611683576116836115f3565b8160405280935085815286868601111561169c57600080fd5b858560208301376000602087830101525050509392505050565b600080600080608085870312156116cc57600080fd5b6116d5856114ee565b93506116e3602086016114ee565b925060408501359150606085013567ffffffffffffffff81111561170657600080fd5b8501601f8101871361171757600080fd5b61172687823560208401611622565b91505092959194509250565b60006101a082840312156106c357600080fd5b60006020828403121561175757600080fd5b813567ffffffffffffffff81111561176e57600080fd5b8201601f8101841361177f57600080fd5b61140184823560208401611622565b600080604083850312156117a157600080fd5b6117aa836114ee565b9150611593602084016114ee565b600181811c908216806117cc57607f821691505b6020821081036106c3577f4e487b7100000000000000000000000000000000000000000000000000000000600052602260045260246000fd5b808201808211156104c8577f4e487b7100000000000000000000000000000000000000000000000000000000600052601160045260246000fd5b60008351611851818460208801611454565b835190830190611865818360208801611454565b01949350505050565b601f82111561061057600081815260208120601f850160051c810160208610156118955750805b601f850160051c820191505b818110156118b4578281556001016118a1565b505050505050565b815167ffffffffffffffff8111156118d6576118d66115f3565b6118ea816118e484546117b8565b8461186e565b602080601f83116001811461193d57600084156119075750858301515b7fffffffffffffffffffffffffffffffffffffffffffffffffffffffffffffffff600386901b1c1916600185901b1785556118b4565b6000858152602081207fffffffffffffffffffffffffffffffffffffffffffffffffffffffffffffffe08616915b8281101561198a5788860151825594840194600190910190840161196b565b50858210156119c657878501517fffffffffffffffffffffffffffffffffffffffffffffffffffffffffffffffff600388901b60f8161c191681555b5050505050600190811b01905550565b60006001600160a01b03808716835280861660208401525083604083015260806060830152611a086080830184611478565b9695505050505050565b600060208284031215611a2457600080fd5b81516108978161140956fea164736f6c6343000815000a",
    "linkReferences": {}
  },
  "methodIdentifiers": {
    "DEFAULT_ADMIN_ROLE()": "a217fddf",
    "approve(address,uint256)": "095ea7b3",
    "balanceOf(address)": "70a08231",
    "burn(uint256)": "42966c68",
    "getApproved(uint256)": "081812fc",
    "getRoleAdmin(bytes32)": "248a9ca3",
    "grantRole(bytes32,address)": "2f2ff15d",
    "hasRole(bytes32,address)": "91d14854",
    "isApprovedForAll(address,address)": "e985e9c5",
    "mint(address)": "6a627842",
    "name()": "06fdde03",
    "ownerOf(uint256)": "6352211e",
    "renounceRole(bytes32,address)": "36568abe",
    "revokeRole(bytes32,address)": "d547741f",
    "safeTransferFrom(address,address,uint256)": "42842e0e",
    "safeTransferFrom(address,address,uint256,bytes)": "b88d4fde",
    "setApprovalForAll(address,bool)": "a22cb465",
    "setDependencies((address,address,address,address,address,address,address,address,address,address,address,address,address))": "c0b7466e",
    "setTokenURI(string)": "e0df5b6f",
    "supportsInterface(bytes4)": "01ffc9a7",
    "symbol()": "95d89b41",
    "tokenURI(uint256)": "c87b56dd",
    "transferFrom(address,address,uint256)": "23b872dd"
  },
  "id": 85
}