{
  "abi": [
    {
      "inputs": [],
      "stateMutability": "nonpayable",
      "type": "constructor"
    },
    {
      "inputs": [],
      "name": "AccessControlBadConfirmation",
      "type": "error"
    },
    {
      "inputs": [
        {
          "internalType": "address",
          "name": "account",
          "type": "address"
        },
        {
          "internalType": "bytes32",
          "name": "neededRole",
          "type": "bytes32"
        }
      ],
      "name": "AccessControlUnauthorizedAccount",
      "type": "error"
    },
    {
      "inputs": [],
      "name": "InvalidInitialization",
      "type": "error"
    },
    {
      "inputs": [],
      "name": "NotEligibleForLiquidation",
      "type": "error"
    },
    {
      "inputs": [],
      "name": "NotEnoughTokensReceived",
      "type": "error"
    },
    {
      "inputs": [],
      "name": "NotEnoughWBTC",
      "type": "error"
    },
    {
      "inputs": [],
      "name": "NotInitializing",
      "type": "error"
    },
    {
      "inputs": [],
      "name": "NotOwner",
      "type": "error"
    },
    {
      "inputs": [],
      "name": "PositionNotExpiredOrLiquidated",
      "type": "error"
    },
    {
      "inputs": [],
      "name": "PositionNotLive",
      "type": "error"
    },
    {
      "anonymous": false,
      "inputs": [
        {
          "indexed": false,
          "internalType": "address",
          "name": "newExpiredVault",
          "type": "address"
        }
      ],
      "name": "ExpiredVaultUpdated",
      "type": "event"
    },
    {
      "anonymous": false,
      "inputs": [
        {
          "indexed": false,
          "internalType": "uint64",
          "name": "version",
          "type": "uint64"
        }
      ],
      "name": "Initialized",
      "type": "event"
    },
    {
      "anonymous": false,
      "inputs": [
        {
          "indexed": false,
          "internalType": "address",
          "name": "newMonitor",
          "type": "address"
        }
      ],
      "name": "MonitorUpdated",
      "type": "event"
    },
    {
      "anonymous": false,
      "inputs": [
        {
          "indexed": true,
          "internalType": "uint256",
          "name": "nftId",
          "type": "uint256"
        },
        {
          "indexed": true,
          "internalType": "address",
          "name": "user",
          "type": "address"
        },
        {
          "indexed": true,
          "internalType": "address",
          "name": "strategy",
          "type": "address"
        },
        {
          "indexed": false,
          "internalType": "uint256",
          "name": "receivedAmount",
          "type": "uint256"
        },
        {
          "indexed": false,
          "internalType": "uint256",
          "name": "wbtcDebtAmount",
          "type": "uint256"
        },
        {
          "indexed": false,
          "internalType": "uint256",
          "name": "exitFee",
          "type": "uint256"
        }
      ],
      "name": "PositionClosed",
      "type": "event"
    },
    {
      "anonymous": false,
      "inputs": [
        {
          "indexed": true,
          "internalType": "bytes32",
          "name": "role",
          "type": "bytes32"
        },
        {
          "indexed": true,
          "internalType": "bytes32",
          "name": "previousAdminRole",
          "type": "bytes32"
        },
        {
          "indexed": true,
          "internalType": "bytes32",
          "name": "newAdminRole",
          "type": "bytes32"
        }
      ],
      "name": "RoleAdminChanged",
      "type": "event"
    },
    {
      "anonymous": false,
      "inputs": [
        {
          "indexed": true,
          "internalType": "bytes32",
          "name": "role",
          "type": "bytes32"
        },
        {
          "indexed": true,
          "internalType": "address",
          "name": "account",
          "type": "address"
        },
        {
          "indexed": true,
          "internalType": "address",
          "name": "sender",
          "type": "address"
        }
      ],
      "name": "RoleGranted",
      "type": "event"
    },
    {
      "anonymous": false,
      "inputs": [
        {
          "indexed": true,
          "internalType": "bytes32",
          "name": "role",
          "type": "bytes32"
        },
        {
          "indexed": true,
          "internalType": "address",
          "name": "account",
          "type": "address"
        },
        {
          "indexed": true,
          "internalType": "address",
          "name": "sender",
          "type": "address"
        }
      ],
      "name": "RoleRevoked",
      "type": "event"
    },
    {
      "inputs": [],
      "name": "DEFAULT_ADMIN_ROLE",
      "outputs": [
        {
          "internalType": "bytes32",
          "name": "",
          "type": "bytes32"
        }
      ],
      "stateMutability": "view",
      "type": "function"
    },
    {
      "inputs": [
        {
          "internalType": "uint256",
          "name": "nftID",
          "type": "uint256"
        },
        {
          "internalType": "address",
          "name": "sender",
          "type": "address"
        }
      ],
      "name": "closeExpiredOrLiquidatedPosition",
      "outputs": [],
      "stateMutability": "nonpayable",
      "type": "function"
    },
    {
      "inputs": [
        {
          "internalType": "uint256",
          "name": "nftId",
          "type": "uint256"
        },
        {
          "internalType": "uint256",
          "name": "minWBTC",
          "type": "uint256"
        },
        {
          "internalType": "enum SwapManager.SwapRoute",
          "name": "swapRoute",
          "type": "uint8"
        },
        {
          "internalType": "bytes",
          "name": "swapData",
          "type": "bytes"
        },
        {
          "internalType": "address",
          "name": "exchange",
          "type": "address"
        }
      ],
      "name": "closePosition",
      "outputs": [],
      "stateMutability": "nonpayable",
      "type": "function"
    },
    {
      "inputs": [],
      "name": "getCurrentExpiredVault",
      "outputs": [
        {
          "internalType": "address",
          "name": "",
          "type": "address"
        }
      ],
      "stateMutability": "view",
      "type": "function"
    },
    {
      "inputs": [
        {
          "internalType": "bytes32",
          "name": "role",
          "type": "bytes32"
        }
      ],
      "name": "getRoleAdmin",
      "outputs": [
        {
          "internalType": "bytes32",
          "name": "",
          "type": "bytes32"
        }
      ],
      "stateMutability": "view",
      "type": "function"
    },
    {
      "inputs": [
        {
          "internalType": "bytes32",
          "name": "role",
          "type": "bytes32"
        },
        {
          "internalType": "address",
          "name": "account",
          "type": "address"
        }
      ],
      "name": "grantRole",
      "outputs": [],
      "stateMutability": "nonpayable",
      "type": "function"
    },
    {
      "inputs": [
        {
          "internalType": "bytes32",
          "name": "role",
          "type": "bytes32"
        },
        {
          "internalType": "address",
          "name": "account",
          "type": "address"
        }
      ],
      "name": "hasRole",
      "outputs": [
        {
          "internalType": "bool",
          "name": "",
          "type": "bool"
        }
      ],
      "stateMutability": "view",
      "type": "function"
    },
    {
      "inputs": [],
      "name": "initialize",
      "outputs": [],
      "stateMutability": "nonpayable",
      "type": "function"
    },
    {
      "inputs": [
        {
          "internalType": "uint256",
          "name": "nftId",
          "type": "uint256"
        },
        {
          "internalType": "uint256",
          "name": "minWBTC",
          "type": "uint256"
        },
        {
          "internalType": "enum SwapManager.SwapRoute",
          "name": "swapRoute",
          "type": "uint8"
        },
        {
          "internalType": "bytes",
          "name": "swapData",
          "type": "bytes"
        },
        {
          "internalType": "address",
          "name": "exchange",
          "type": "address"
        }
      ],
      "name": "liquidatePosition",
      "outputs": [],
      "stateMutability": "nonpayable",
      "type": "function"
    },
    {
      "inputs": [],
      "name": "monitor",
      "outputs": [
        {
          "internalType": "address",
          "name": "",
          "type": "address"
        }
      ],
      "stateMutability": "view",
      "type": "function"
    },
    {
      "inputs": [
        {
          "internalType": "bytes32",
          "name": "role",
          "type": "bytes32"
        },
        {
          "internalType": "address",
          "name": "callerConfirmation",
          "type": "address"
        }
      ],
      "name": "renounceRole",
      "outputs": [],
      "stateMutability": "nonpayable",
      "type": "function"
    },
    {
      "inputs": [
        {
          "internalType": "bytes32",
          "name": "role",
          "type": "bytes32"
        },
        {
          "internalType": "address",
          "name": "account",
          "type": "address"
        }
      ],
      "name": "revokeRole",
      "outputs": [],
      "stateMutability": "nonpayable",
      "type": "function"
    },
    {
      "inputs": [
        {
          "components": [
            {
              "internalType": "address",
              "name": "expiredVault",
              "type": "address"
            },
            {
              "internalType": "address",
              "name": "leverageDepositor",
              "type": "address"
            },
            {
              "internalType": "address",
              "name": "positionToken",
              "type": "address"
            },
            {
              "internalType": "address",
              "name": "wbtcVault",
              "type": "address"
            },
            {
              "internalType": "address",
              "name": "proxyAdmin",
              "type": "address"
            },
            {
              "internalType": "address",
              "name": "leveragedStrategy",
              "type": "address"
            },
            {
              "internalType": "address",
              "name": "protocolParameters",
              "type": "address"
            },
            {
              "internalType": "address",
              "name": "oracleManager",
              "type": "address"
            },
            {
              "internalType": "address",
              "name": "positionOpener",
              "type": "address"
            },
            {
              "internalType": "address",
              "name": "positionCloser",
              "type": "address"
            },
            {
              "internalType": "address",
              "name": "positionLedger",
              "type": "address"
            },
            {
              "internalType": "address",
              "name": "swapManager",
              "type": "address"
            }
          ],
          "internalType": "struct DependencyAddresses",
          "name": "dependencies",
          "type": "tuple"
        }
      ],
      "name": "setDependencies",
      "outputs": [],
      "stateMutability": "nonpayable",
      "type": "function"
    },
    {
      "inputs": [
        {
          "internalType": "address",
          "name": "_expiredVault",
          "type": "address"
        }
      ],
      "name": "setExpiredVault",
      "outputs": [],
      "stateMutability": "nonpayable",
      "type": "function"
    },
    {
      "inputs": [
        {
          "internalType": "address",
          "name": "_monitor",
          "type": "address"
        }
      ],
      "name": "setMonitor",
      "outputs": [],
      "stateMutability": "nonpayable",
      "type": "function"
    },
    {
      "inputs": [
        {
          "internalType": "bytes4",
          "name": "interfaceId",
          "type": "bytes4"
        }
      ],
      "name": "supportsInterface",
      "outputs": [
        {
          "internalType": "bool",
          "name": "",
          "type": "bool"
        }
      ],
      "stateMutability": "view",
      "type": "function"
    }
  ],
  "bytecode": {
    "object": "0x60806040523480156200001157600080fd5b506200001c62000022565b620000d6565b7ff0c57e16840df040f15088dc2f81fe391c3923bec73e23a9662efc9c229c6a00805468010000000000000000900460ff1615620000735760405163f92ee8a960e01b815260040160405180910390fd5b80546001600160401b0390811614620000d35780546001600160401b0319166001600160401b0390811782556040519081527fc7f505b2f371ae2175ee4913f4499e1f2633a7b5936321eed1cdaeb6115181d29060200160405180910390a15b50565b61290680620000e66000396000f3fe608060405234801561001057600080fd5b50600436106101005760003560e01c80638129fc1c11610097578063a2d66fc111610066578063a2d66fc114610282578063b25e5f2414610295578063d547741f146102a8578063d8a42d79146102bb57600080fd5b80638129fc1c1461020957806391d1485414610211578063988c63e114610269578063a217fddf1461027a57600080fd5b80633241992a116100d35780633241992a146101a557806336568abe146101d05780635cd82390146101e35780637f22fbbf146101f657600080fd5b806301ffc9a71461010557806302b398061461012d578063248a9ca3146101425780632f2ff15d14610192575b600080fd5b610118610113366004612338565b6102ce565b60405190151581526020015b60405180910390f35b61014061013b366004612381565b610367565b005b61018461015036600461239a565b60009081527f02dd7bc7dec4dceedda775e58dd541e08a116c6c53815c0bd028192f7b626800602052604090206001015490565b604051908152602001610124565b6101406101a03660046123d8565b6106bd565b6000546101b8906001600160a01b031681565b6040516001600160a01b039091168152602001610124565b6101406101de3660046123d8565b610707565b6101406101f1366004612408565b610753565b6101406102043660046123d8565b610866565b610140610bbf565b61011861021f3660046123d8565b60009182527f02dd7bc7dec4dceedda775e58dd541e08a116c6c53815c0bd028192f7b626800602090815260408084206001600160a01b0393909316845291905290205460ff1690565b6009546001600160a01b03166101b8565b610184600081565b610140610290366004612408565b610d68565b6101406102a3366004612425565b610fd4565b6101406102b63660046123d8565b61175a565b6101406102c9366004612425565b61179e565b60007fffffffff0000000000000000000000000000000000000000000000000000000082167f7965db0b00000000000000000000000000000000000000000000000000000000148061036157507f01ffc9a7000000000000000000000000000000000000000000000000000000007fffffffff000000000000000000000000000000000000000000000000000000008316145b92915050565b7fa49807205ce4d355092ef5a8a18f56e8913cf4a201fbe287825b095693c2177561039181611d52565b6103a16040830160208401612408565b600380547fffffffffffffffffffffffff0000000000000000000000000000000000000000166001600160a01b03929092169190911790556103e96060830160408401612408565b600280547fffffffffffffffffffffffff0000000000000000000000000000000000000000166001600160a01b039290921691909117905561043361018083016101608401612408565b600480547fffffffffffffffffffffffff0000000000000000000000000000000000000000166001600160a01b039290921691909117905561047b6080830160608401612408565b600180547fffffffffffffffffffffffff0000000000000000000000000000000000000000166001600160a01b03929092169190911790556104c360c0830160a08401612408565b600580547fffffffffffffffffffffffff0000000000000000000000000000000000000000166001600160a01b039290921691909117905561050b60e0830160c08401612408565b600680547fffffffffffffffffffffffff0000000000000000000000000000000000000000166001600160a01b0392909216919091179055610554610100830160e08401612408565b600780547fffffffffffffffffffffffff0000000000000000000000000000000000000000166001600160a01b039290921691909117905561059e61016083016101408401612408565b600880547fffffffffffffffffffffffff0000000000000000000000000000000000000000166001600160a01b03929092169190911790556105e66102906020840184612408565b732260fac5e5542a773aa44fbcfedf7c193bc2c59963095ea7b36106106080850160608601612408565b6040517fffffffff0000000000000000000000000000000000000000000000000000000060e084901b1681526001600160a01b0390911660048201527fffffffffffffffffffffffffffffffffffffffffffffffffffffffffffffffff60248201526044016020604051808303816000875af1158015610694573d6000803e3d6000fd5b505050506040513d601f19601f820116820180604052508101906106b891906124d1565b505050565b60008281527f02dd7bc7dec4dceedda775e58dd541e08a116c6c53815c0bd028192f7b62680060205260409020600101546106f781611d52565b6107018383611d5f565b50505050565b6001600160a01b0381163314610749576040517f6697b23200000000000000000000000000000000000000000000000000000000815260040160405180910390fd5b6106b88282611e4c565b7fa49807205ce4d355092ef5a8a18f56e8913cf4a201fbe287825b095693c2177561077d81611d52565b6000546001600160a01b0316156107c7576000546107c5907f8227712ef8ad39d0f26f06731ef0df8665eb7ada7f41b1ee089adf3c238862a2906001600160a01b0316611e4c565b505b600080547fffffffffffffffffffffffff0000000000000000000000000000000000000000166001600160a01b0384161790556108247f8227712ef8ad39d0f26f06731ef0df8665eb7ada7f41b1ee089adf3c238862a283611d5f565b506040516001600160a01b03831681527f0313146ba3292aad0723ded6f61dbbf3fefd0fc153dca4584a1d55c369f71a6b906020015b60405180910390a15050565b7f8227712ef8ad39d0f26f06731ef0df8665eb7ada7f41b1ee089adf3c238862a261089081611d52565b6002546040517f6352211e000000000000000000000000000000000000000000000000000000008152600481018590526001600160a01b03848116921690636352211e90602401602060405180830381865afa1580156108f4573d6000803e3d6000fd5b505050506040513d601f19601f8201168201806040525081019061091891906124fe565b6001600160a01b031614610958576040517f30cd747100000000000000000000000000000000000000000000000000000000815260040160405180910390fd5b6008546040517feb02c301000000000000000000000000000000000000000000000000000000008152600481018590526000916001600160a01b03169063eb02c3019060240161010060405180830381865afa1580156109bc573d6000803e3d6000fd5b505050506040513d601f19601f820116820180604052508101906109e0919061252a565b905060028160c0015160048111156109fa576109fa6125ef565b14158015610a1e575060038160c001516004811115610a1b57610a1b6125ef565b14155b15610a55576040517f382dc85b00000000000000000000000000000000000000000000000000000000815260040160405180910390fd5b60e08101516008546040517fc0b944c90000000000000000000000000000000000000000000000000000000081526001600160a01b039091169063c0b944c990610aa5908890600490810161261e565b600060405180830381600087803b158015610abf57600080fd5b505af1158015610ad3573d6000803e3d6000fd5b50506002546040517f42966c68000000000000000000000000000000000000000000000000000000008152600481018990526001600160a01b0390911692506342966c689150602401600060405180830381600087803b158015610b3657600080fd5b505af1158015610b4a573d6000803e3d6000fd5b5050505081602001516001600160a01b0316846001600160a01b0316867fe701736172a9f0378a94500362bb45b2eef40bfe8eef260b97620cccee2461698486606001516000604051610bb0939291909283526020830191909152604082015260600190565b60405180910390a45050505050565b7ff0c57e16840df040f15088dc2f81fe391c3923bec73e23a9662efc9c229c6a00805468010000000000000000810460ff16159067ffffffffffffffff16600081158015610c0a5750825b905060008267ffffffffffffffff166001148015610c275750303b155b905081158015610c35575080155b15610c6c576040517ff92ee8a900000000000000000000000000000000000000000000000000000000815260040160405180910390fd5b84547fffffffffffffffffffffffffffffffffffffffffffffffff00000000000000001660011785558315610ccd5784547fffffffffffffffffffffffffffffffffffffffffffffff00ffffffffffffffff16680100000000000000001785555b610cd5611f10565b610cff7fa49807205ce4d355092ef5a8a18f56e8913cf4a201fbe287825b095693c2177533611d5f565b508315610d615784547fffffffffffffffffffffffffffffffffffffffffffffff00ffffffffffffffff168555604051600181527fc7f505b2f371ae2175ee4913f4499e1f2633a7b5936321eed1cdaeb6115181d29060200160405180910390a15b5050505050565b7fa49807205ce4d355092ef5a8a18f56e8913cf4a201fbe287825b095693c21775610d9281611d52565b6009546001600160a01b031615610e7f576009546040517f095ea7b30000000000000000000000000000000000000000000000000000000081526001600160a01b03909116600482015260006024820152732260fac5e5542a773aa44fbcfedf7c193bc2c5999063095ea7b3906044016020604051808303816000875af1158015610e21573d6000803e3d6000fd5b505050506040513d601f19601f82011682018060405250810190610e4591906124d1565b50600954610e7d907f7e58cf7b159f666eca0c0ebe4319a913cf705e17d51e82f1edfc88d6e219eaeb906001600160a01b0316611e4c565b505b600980547fffffffffffffffffffffffff0000000000000000000000000000000000000000166001600160a01b038416179055610edc7f7e58cf7b159f666eca0c0ebe4319a913cf705e17d51e82f1edfc88d6e219eaeb83611d5f565b506040517f095ea7b30000000000000000000000000000000000000000000000000000000081526001600160a01b03831660048201527fffffffffffffffffffffffffffffffffffffffffffffffffffffffffffffffff6024820152732260fac5e5542a773aa44fbcfedf7c193bc2c5999063095ea7b3906044016020604051808303816000875af1158015610f76573d6000803e3d6000fd5b505050506040513d601f19601f82011682018060405250810190610f9a91906124d1565b506040516001600160a01b03831681527fecbf99f7714b81d37e590499d2f3578847c10f4e6bca6652e479f7045a757b559060200161085a565b6002546040517f6352211e0000000000000000000000000000000000000000000000000000000081526004810188905233916001600160a01b031690636352211e90602401602060405180830381865afa158015611036573d6000803e3d6000fd5b505050506040513d601f19601f8201168201806040525081019061105a91906124fe565b6001600160a01b03161461109a576040517f30cd747100000000000000000000000000000000000000000000000000000000815260040160405180910390fd5b6008546040517feb29dc5e000000000000000000000000000000000000000000000000000000008152600481018890526001916001600160a01b03169063eb29dc5e90602401602060405180830381865afa1580156110fd573d6000803e3d6000fd5b505050506040513d601f19601f820116820180604052508101906111219190612642565b6004811115611132576111326125ef565b14611169576040517f5117a49b00000000000000000000000000000000000000000000000000000000815260040160405180910390fd5b6008546040517feb02c301000000000000000000000000000000000000000000000000000000008152600481018890526000916001600160a01b03169063eb02c3019060240161010060405180830381865afa1580156111cd573d6000803e3d6000fd5b505050506040513d601f19601f820116820180604052508101906111f1919061252a565b6008546040517facd72273000000000000000000000000000000000000000000000000000000008152600481018a90529192506000916001600160a01b039091169063acd7227390602401602060405180830381865afa158015611259573d6000803e3d6000fd5b505050506040513d601f19601f8201168201806040525081019061127d919061265d565b9050600061128e8388888888611f1a565b9050818110156112ca576040517f8445ce7800000000000000000000000000000000000000000000000000000000815260040160405180910390fd5b6001546040517fd8aed145000000000000000000000000000000000000000000000000000000008152600481018b9052602481018490526001600160a01b039091169063d8aed14590604401600060405180830381600087803b15801561133057600080fd5b505af1158015611344573d6000803e3d6000fd5b505050506000600660009054906101000a90046001600160a01b03166001600160a01b031663ecb0116a6040518163ffffffff1660e01b8152600401602060405180830381865afa15801561139d573d6000803e3d6000fd5b505050506040513d601f19601f820116820180604052508101906113c1919061265d565b90506000612710826113d386866126a5565b6113dd91906126b8565b6113e791906126cf565b600654604080517f12fde4b70000000000000000000000000000000000000000000000000000000081529051929350732260fac5e5542a773aa44fbcfedf7c193bc2c5999263a9059cbb926001600160a01b0316916312fde4b79160048083019260209291908290030181865afa158015611466573d6000803e3d6000fd5b505050506040513d601f19601f8201168201806040525081019061148a91906124fe565b6040517fffffffff0000000000000000000000000000000000000000000000000000000060e084901b1681526001600160a01b039091166004820152602481018490526044016020604051808303816000875af11580156114ef573d6000803e3d6000fd5b505050506040513d601f19601f8201168201806040525081019061151391906124d1565b5060008161152186866126a5565b61152b91906126a5565b90508a811015611567576040517f828f02ae00000000000000000000000000000000000000000000000000000000815260040160405180910390fd5b6040517fa9059cbb00000000000000000000000000000000000000000000000000000000815233600482015260248101829052732260fac5e5542a773aa44fbcfedf7c193bc2c5999063a9059cbb906044016020604051808303816000875af11580156115d8573d6000803e3d6000fd5b505050506040513d601f19601f820116820180604052508101906115fc91906124d1565b506008546040517fc0b944c90000000000000000000000000000000000000000000000000000000081526001600160a01b039091169063c0b944c990611648908f90600490810161261e565b600060405180830381600087803b15801561166257600080fd5b505af1158015611676573d6000803e3d6000fd5b50506002546040517f42966c680000000000000000000000000000000000000000000000000000000081526001600160a01b0390911692506342966c6891506116c7908f9060040190815260200190565b600060405180830381600087803b1580156116e157600080fd5b505af11580156116f5573d6000803e3d6000fd5b5050506020808801516040805185815292830189905282018590526001600160a01b0316915033908e907fe701736172a9f0378a94500362bb45b2eef40bfe8eef260b97620cccee2461699060600160405180910390a4505050505050505050505050565b60008281527f02dd7bc7dec4dceedda775e58dd541e08a116c6c53815c0bd028192f7b626800602052604090206001015461179481611d52565b6107018383611e4c565b7f8227712ef8ad39d0f26f06731ef0df8665eb7ada7f41b1ee089adf3c238862a26117c881611d52565b6008546040517feb02c301000000000000000000000000000000000000000000000000000000008152600481018990526000916001600160a01b03169063eb02c3019060240161010060405180830381865afa15801561182c573d6000803e3d6000fd5b505050506040513d601f19601f82011682018060405250810190611850919061252a565b905060018160c00151600481111561186a5761186a6125ef565b146118a1576040517f5117a49b00000000000000000000000000000000000000000000000000000000815260040160405180910390fd5b60006118b08288888888611f1a565b90506118be6008600a61282a565b8260a0015183606001516118d291906126b8565b6118dc91906126cf565b811115611915576040517f5e6797f900000000000000000000000000000000000000000000000000000000815260040160405180910390fd5b8781101561194f576040517f828f02ae00000000000000000000000000000000000000000000000000000000815260040160405180910390fd5b60015460608301516040517fd8aed145000000000000000000000000000000000000000000000000000000008152600481018c905260248101919091526001600160a01b039091169063d8aed14590604401600060405180830381600087803b1580156119bb57600080fd5b505af11580156119cf573d6000803e3d6000fd5b505050508160600151811115611cc95760008260600151826119f191906126a5565b90506000611a016008600a61282a565b60055460208601516040517f61acf8d50000000000000000000000000000000000000000000000000000000081526001600160a01b039182166004820152859291909116906361acf8d590602401602060405180830381865afa158015611a6c573d6000803e3d6000fd5b505050506040513d601f19601f82011682018060405250810190611a90919061265d565b611a9a91906126b8565b611aa491906126cf565b90506000611ab282846126a5565b90506000600660009054906101000a90046001600160a01b03166001600160a01b03166312fde4b76040518163ffffffff1660e01b8152600401602060405180830381865afa158015611b09573d6000803e3d6000fd5b505050506040513d601f19601f82011682018060405250810190611b2d91906124fe565b6040517fa9059cbb0000000000000000000000000000000000000000000000000000000081526001600160a01b038216600482015260248101859052909150732260fac5e5542a773aa44fbcfedf7c193bc2c5999063a9059cbb906044016020604051808303816000875af1158015611baa573d6000803e3d6000fd5b505050506040513d601f19601f82011682018060405250810190611bce91906124d1565b506009546040517fb6b55f25000000000000000000000000000000000000000000000000000000008152600481018490526001600160a01b039091169063b6b55f2590602401600060405180830381600087803b158015611c2e57600080fd5b505af1158015611c42573d6000803e3d6000fd5b50505050600860009054906101000a90046001600160a01b03166001600160a01b03166344a46feb8e846040518363ffffffff1660e01b8152600401611c92929190918252602082015260400190565b600060405180830381600087803b158015611cac57600080fd5b505af1158015611cc0573d6000803e3d6000fd5b50505050505050505b6008546040517fc0b944c90000000000000000000000000000000000000000000000000000000081526001600160a01b039091169063c0b944c990611d15908c9060039060040161261e565b600060405180830381600087803b158015611d2f57600080fd5b505af1158015611d43573d6000803e3d6000fd5b50505050505050505050505050565b611d5c813361223c565b50565b60008281527f02dd7bc7dec4dceedda775e58dd541e08a116c6c53815c0bd028192f7b626800602081815260408084206001600160a01b038616855290915282205460ff16611e42576000848152602082815260408083206001600160a01b0387168452909152902080547fffffffffffffffffffffffffffffffffffffffffffffffffffffffffffffff00166001179055611df83390565b6001600160a01b0316836001600160a01b0316857f2f8788117e7eff1d82e926ec794901d17c78024a50270940304540a733656f0d60405160405180910390a46001915050610361565b6000915050610361565b60008281527f02dd7bc7dec4dceedda775e58dd541e08a116c6c53815c0bd028192f7b626800602081815260408084206001600160a01b038616855290915282205460ff1615611e42576000848152602082815260408083206001600160a01b038716808552925280832080547fffffffffffffffffffffffffffffffffffffffffffffffffffffffffffffff0016905551339287917ff6391f5c32d9c69d2a47ea670b442974b53935d1edc7fd64eb21e047a839171b9190a46001915050610361565b611f186122d1565b565b600354602086015160408088015190517f1e9a69500000000000000000000000000000000000000000000000000000000081526001600160a01b039283166004820152602481019190915260009283921690631e9a6950906044016020604051808303816000875af1158015611f94573d6000803e3d6000fd5b505050506040513d601f19601f82011682018060405250810190611fb8919061265d565b9050600087602001516001600160a01b03166338d52e0f6040518163ffffffff1660e01b8152600401602060405180830381865afa158015611ffe573d6000803e3d6000fd5b505050506040513d601f19601f8201168201806040525081019061202291906124fe565b600480546040517f87bfefef0000000000000000000000000000000000000000000000000000000081529293506000926001600160a01b03909116916387bfefef91612070918c9101612839565b602060405180830381865afa15801561208d573d6000803e3d6000fd5b505050506040513d601f19601f820116820180604052508101906120b191906124fe565b905060006040518060800160405280846001600160a01b0316815260200185815260200189898080601f016020809104026020016040519081016040528093929190818152602001838380828437600092019190915250505090825250306020909101526040517fa9059cbb0000000000000000000000000000000000000000000000000000000081526001600160a01b038481166004830152602482018790529192509084169063a9059cbb906044016020604051808303816000875af1158015612181573d6000803e3d6000fd5b505050506040513d601f19601f820116820180604052508101906121a591906124d1565b506040517f8aa09fd30000000000000000000000000000000000000000000000000000000081526001600160a01b03831690638aa09fd3906121eb908490600401612853565b6020604051808303816000875af115801561220a573d6000803e3d6000fd5b505050506040513d601f19601f8201168201806040525081019061222e919061265d565b9a9950505050505050505050565b60008281527f02dd7bc7dec4dceedda775e58dd541e08a116c6c53815c0bd028192f7b626800602090815260408083206001600160a01b038516845290915290205460ff166122cd576040517fe2517d3f0000000000000000000000000000000000000000000000000000000081526001600160a01b03821660048201526024810183905260440160405180910390fd5b5050565b7ff0c57e16840df040f15088dc2f81fe391c3923bec73e23a9662efc9c229c6a005468010000000000000000900460ff16611f18576040517fd7e6bcf800000000000000000000000000000000000000000000000000000000815260040160405180910390fd5b60006020828403121561234a57600080fd5b81357fffffffff000000000000000000000000000000000000000000000000000000008116811461237a57600080fd5b9392505050565b6000610180828403121561239457600080fd5b50919050565b6000602082840312156123ac57600080fd5b5035919050565b6001600160a01b0381168114611d5c57600080fd5b80356123d3816123b3565b919050565b600080604083850312156123eb57600080fd5b8235915060208301356123fd816123b3565b809150509250929050565b60006020828403121561241a57600080fd5b813561237a816123b3565b60008060008060008060a0878903121561243e57600080fd5b863595506020870135945060408701356001811061245b57600080fd5b9350606087013567ffffffffffffffff8082111561247857600080fd5b818901915089601f83011261248c57600080fd5b81358181111561249b57600080fd5b8a60208285010111156124ad57600080fd5b6020830195508094505050506124c5608088016123c8565b90509295509295509295565b6000602082840312156124e357600080fd5b8151801515811461237a57600080fd5b80516123d3816123b3565b60006020828403121561251057600080fd5b815161237a816123b3565b8051600581106123d357600080fd5b600061010080838503121561253e57600080fd5b6040519081019067ffffffffffffffff82118183101715612588577f4e487b7100000000000000000000000000000000000000000000000000000000600052604160045260246000fd5b816040528351815261259c602085016124f3565b602082015260408401516040820152606084015160608201526080840151608082015260a084015160a08201526125d560c0850161251b565b60c082015260e084015160e0820152809250505092915050565b7f4e487b7100000000000000000000000000000000000000000000000000000000600052602160045260246000fd5b8281526040810160058310612635576126356125ef565b8260208301529392505050565b60006020828403121561265457600080fd5b61237a8261251b565b60006020828403121561266f57600080fd5b5051919050565b7f4e487b7100000000000000000000000000000000000000000000000000000000600052601160045260246000fd5b8181038181111561036157610361612676565b808202811582820484141761036157610361612676565b600082612705577f4e487b7100000000000000000000000000000000000000000000000000000000600052601260045260246000fd5b500490565b600181815b8085111561276357817fffffffffffffffffffffffffffffffffffffffffffffffffffffffffffffffff0482111561274957612749612676565b8085161561275657918102915b93841c939080029061270f565b509250929050565b60008261277a57506001610361565b8161278757506000610361565b816001811461279d57600281146127a7576127c3565b6001915050610361565b60ff8411156127b8576127b8612676565b50506001821b610361565b5060208310610133831016604e8410600b84101617156127e6575081810a610361565b6127f0838361270a565b807fffffffffffffffffffffffffffffffffffffffffffffffffffffffffffffffff0482111561282257612822612676565b029392505050565b600061237a60ff84168361276b565b602081016001831061284d5761284d6125ef565b91905290565b600060208083526001600160a01b038451168184015280840151604084015260408401516080606085015280518060a086015260005b818110156128a55782810184015186820160c001528301612889565b50600085820160c0015260608601516001600160a01b03811660808701529250601f017fffffffffffffffffffffffffffffffffffffffffffffffffffffffffffffffe0169390930160c00194935050505056fea164736f6c6343000815000a",
    "linkReferences": {}
  },
  "methodIdentifiers": {
    "DEFAULT_ADMIN_ROLE()": "a217fddf",
    "closeExpiredOrLiquidatedPosition(uint256,address)": "7f22fbbf",
    "closePosition(uint256,uint256,uint8,bytes,address)": "b25e5f24",
    "getCurrentExpiredVault()": "988c63e1",
    "getRoleAdmin(bytes32)": "248a9ca3",
    "grantRole(bytes32,address)": "2f2ff15d",
    "hasRole(bytes32,address)": "91d14854",
    "initialize()": "8129fc1c",
    "liquidatePosition(uint256,uint256,uint8,bytes,address)": "d8a42d79",
    "monitor()": "3241992a",
    "renounceRole(bytes32,address)": "36568abe",
    "revokeRole(bytes32,address)": "d547741f",
    "setDependencies((address,address,address,address,address,address,address,address,address,address,address,address))": "02b39806",
    "setExpiredVault(address)": "a2d66fc1",
    "setMonitor(address)": "5cd82390",
    "supportsInterface(bytes4)": "01ffc9a7"
  },
  "id": 58
}