{
  "abi": [
    {
      "inputs": [],
      "stateMutability": "nonpayable",
      "type": "constructor"
    },
    {
      "inputs": [],
      "name": "AccessControlBadConfirmation",
      "type": "error"
    },
    {
      "inputs": [
        {
          "internalType": "address",
          "name": "account",
          "type": "address"
        },
        {
          "internalType": "bytes32",
          "name": "neededRole",
          "type": "bytes32"
        }
      ],
      "name": "AccessControlUnauthorizedAccount",
      "type": "error"
    },
    {
      "inputs": [],
      "name": "InvalidInitialization",
      "type": "error"
    },
    {
      "inputs": [],
      "name": "NotEnoughTokensReceived",
      "type": "error"
    },
    {
      "inputs": [],
      "name": "NotEnoughWBTC",
      "type": "error"
    },
    {
      "inputs": [],
      "name": "NotInitializing",
      "type": "error"
    },
    {
      "inputs": [],
      "name": "NotOwner",
      "type": "error"
    },
    {
      "inputs": [],
      "name": "PositionMustLiveForMinDuration",
      "type": "error"
    },
    {
      "inputs": [],
      "name": "PositionNotLive",
      "type": "error"
    },
    {
      "anonymous": false,
      "inputs": [
        {
          "indexed": false,
          "internalType": "uint64",
          "name": "version",
          "type": "uint64"
        }
      ],
      "name": "Initialized",
      "type": "event"
    },
    {
      "anonymous": false,
      "inputs": [
        {
          "indexed": true,
          "internalType": "uint256",
          "name": "nftId",
          "type": "uint256"
        },
        {
          "indexed": true,
          "internalType": "address",
          "name": "user",
          "type": "address"
        },
        {
          "indexed": false,
          "internalType": "uint256",
          "name": "receivedAmount",
          "type": "uint256"
        },
        {
          "indexed": false,
          "internalType": "uint256",
          "name": "wbtcDebtAmount",
          "type": "uint256"
        }
      ],
      "name": "PositionClosed",
      "type": "event"
    },
    {
      "anonymous": false,
      "inputs": [
        {
          "indexed": true,
          "internalType": "bytes32",
          "name": "role",
          "type": "bytes32"
        },
        {
          "indexed": true,
          "internalType": "bytes32",
          "name": "previousAdminRole",
          "type": "bytes32"
        },
        {
          "indexed": true,
          "internalType": "bytes32",
          "name": "newAdminRole",
          "type": "bytes32"
        }
      ],
      "name": "RoleAdminChanged",
      "type": "event"
    },
    {
      "anonymous": false,
      "inputs": [
        {
          "indexed": true,
          "internalType": "bytes32",
          "name": "role",
          "type": "bytes32"
        },
        {
          "indexed": true,
          "internalType": "address",
          "name": "account",
          "type": "address"
        },
        {
          "indexed": true,
          "internalType": "address",
          "name": "sender",
          "type": "address"
        }
      ],
      "name": "RoleGranted",
      "type": "event"
    },
    {
      "anonymous": false,
      "inputs": [
        {
          "indexed": true,
          "internalType": "bytes32",
          "name": "role",
          "type": "bytes32"
        },
        {
          "indexed": true,
          "internalType": "address",
          "name": "account",
          "type": "address"
        },
        {
          "indexed": true,
          "internalType": "address",
          "name": "sender",
          "type": "address"
        }
      ],
      "name": "RoleRevoked",
      "type": "event"
    },
    {
      "inputs": [],
      "name": "DEFAULT_ADMIN_ROLE",
      "outputs": [
        {
          "internalType": "bytes32",
          "name": "",
          "type": "bytes32"
        }
      ],
      "stateMutability": "view",
      "type": "function"
    },
    {
      "inputs": [
        {
          "components": [
            {
              "internalType": "uint256",
              "name": "nftId",
              "type": "uint256"
            },
            {
              "internalType": "uint256",
              "name": "minWBTC",
              "type": "uint256"
            },
            {
              "internalType": "enum SwapManager.SwapRoute",
              "name": "swapRoute",
              "type": "uint8"
            },
            {
              "internalType": "bytes",
              "name": "swapData",
              "type": "bytes"
            },
            {
              "internalType": "address",
              "name": "exchange",
              "type": "address"
            }
          ],
          "internalType": "struct ClosePositionParams",
          "name": "params",
          "type": "tuple"
        }
      ],
      "name": "closePosition",
      "outputs": [],
      "stateMutability": "nonpayable",
      "type": "function"
    },
    {
      "inputs": [
        {
          "internalType": "bytes32",
          "name": "role",
          "type": "bytes32"
        }
      ],
      "name": "getRoleAdmin",
      "outputs": [
        {
          "internalType": "bytes32",
          "name": "",
          "type": "bytes32"
        }
      ],
      "stateMutability": "view",
      "type": "function"
    },
    {
      "inputs": [
        {
          "internalType": "bytes32",
          "name": "role",
          "type": "bytes32"
        },
        {
          "internalType": "address",
          "name": "account",
          "type": "address"
        }
      ],
      "name": "grantRole",
      "outputs": [],
      "stateMutability": "nonpayable",
      "type": "function"
    },
    {
      "inputs": [
        {
          "internalType": "bytes32",
          "name": "role",
          "type": "bytes32"
        },
        {
          "internalType": "address",
          "name": "account",
          "type": "address"
        }
      ],
      "name": "hasRole",
      "outputs": [
        {
          "internalType": "bool",
          "name": "",
          "type": "bool"
        }
      ],
      "stateMutability": "view",
      "type": "function"
    },
    {
      "inputs": [],
      "name": "initialize",
      "outputs": [],
      "stateMutability": "nonpayable",
      "type": "function"
    },
    {
      "inputs": [
        {
          "internalType": "bytes32",
          "name": "role",
          "type": "bytes32"
        },
        {
          "internalType": "address",
          "name": "callerConfirmation",
          "type": "address"
        }
      ],
      "name": "renounceRole",
      "outputs": [],
      "stateMutability": "nonpayable",
      "type": "function"
    },
    {
      "inputs": [
        {
          "internalType": "bytes32",
          "name": "role",
          "type": "bytes32"
        },
        {
          "internalType": "address",
          "name": "account",
          "type": "address"
        }
      ],
      "name": "revokeRole",
      "outputs": [],
      "stateMutability": "nonpayable",
      "type": "function"
    },
    {
      "inputs": [
        {
          "components": [
            {
              "internalType": "address",
              "name": "expiredVault",
              "type": "address"
            },
            {
              "internalType": "address",
              "name": "leverageDepositor",
              "type": "address"
            },
            {
              "internalType": "address",
              "name": "positionToken",
              "type": "address"
            },
            {
              "internalType": "address",
              "name": "wbtcVault",
              "type": "address"
            },
            {
              "internalType": "address",
              "name": "proxyAdmin",
              "type": "address"
            },
            {
              "internalType": "address",
              "name": "leveragedStrategy",
              "type": "address"
            },
            {
              "internalType": "address",
              "name": "protocolParameters",
              "type": "address"
            },
            {
              "internalType": "address",
              "name": "oracleManager",
              "type": "address"
            },
            {
              "internalType": "address",
              "name": "positionOpener",
              "type": "address"
            },
            {
              "internalType": "address",
              "name": "positionCloser",
              "type": "address"
            },
            {
              "internalType": "address",
              "name": "positionLiquidator",
              "type": "address"
            },
            {
              "internalType": "address",
              "name": "positionLedger",
              "type": "address"
            },
            {
              "internalType": "address",
              "name": "swapManager",
              "type": "address"
            }
          ],
          "internalType": "struct DependencyAddresses",
          "name": "dependencies",
          "type": "tuple"
        }
      ],
      "name": "setDependencies",
      "outputs": [],
      "stateMutability": "nonpayable",
      "type": "function"
    },
    {
      "inputs": [
        {
          "internalType": "bytes4",
          "name": "interfaceId",
          "type": "bytes4"
        }
      ],
      "name": "supportsInterface",
      "outputs": [
        {
          "internalType": "bool",
          "name": "",
          "type": "bool"
        }
      ],
      "stateMutability": "view",
      "type": "function"
    }
  ],
  "bytecode": {
    "object": "0x608060405234801561001057600080fd5b5061001961001e565b6100d0565b7ff0c57e16840df040f15088dc2f81fe391c3923bec73e23a9662efc9c229c6a00805468010000000000000000900460ff161561006e5760405163f92ee8a960e01b815260040160405180910390fd5b80546001600160401b03908116146100cd5780546001600160401b0319166001600160401b0390811782556040519081527fc7f505b2f371ae2175ee4913f4499e1f2633a7b5936321eed1cdaeb6115181d29060200160405180910390a15b50565b611fc1806100df6000396000f3fe608060405234801561001057600080fd5b50600436106100be5760003560e01c806391d1485411610076578063a217fddf1161005b578063a217fddf146101e3578063c0b7466e146101eb578063d547741f146101fe57600080fd5b806391d148541461016b578063971cfb4f146101d057600080fd5b80632f2ff15d116100a75780632f2ff15d1461013b57806336568abe146101505780638129fc1c1461016357600080fd5b806301ffc9a7146100c3578063248a9ca3146100eb575b600080fd5b6100d66100d1366004611b92565b610211565b60405190151581526020015b60405180910390f35b61012d6100f9366004611bdb565b60009081527f02dd7bc7dec4dceedda775e58dd541e08a116c6c53815c0bd028192f7b626800602052604090206001015490565b6040519081526020016100e2565b61014e610149366004611c16565b6102aa565b005b61014e61015e366004611c16565b6102f4565b61014e610352565b6100d6610179366004611c16565b60009182527f02dd7bc7dec4dceedda775e58dd541e08a116c6c53815c0bd028192f7b6268006020908152604080842073ffffffffffffffffffffffffffffffffffffffff93909316845291905290205460ff1690565b61014e6101de366004611c46565b6104fb565b61012d600081565b61014e6101f9366004611c81565b61070c565b61014e61020c366004611c16565b61081f565b60007fffffffff0000000000000000000000000000000000000000000000000000000082167f7965db0b0000000000000000000000000000000000000000000000000000000014806102a457507f01ffc9a7000000000000000000000000000000000000000000000000000000007fffffffff000000000000000000000000000000000000000000000000000000008316145b92915050565b60008281527f02dd7bc7dec4dceedda775e58dd541e08a116c6c53815c0bd028192f7b62680060205260409020600101546102e481610863565b6102ee8383610870565b50505050565b73ffffffffffffffffffffffffffffffffffffffff81163314610343576040517f6697b23200000000000000000000000000000000000000000000000000000000815260040160405180910390fd5b61034d8282610991565b505050565b7ff0c57e16840df040f15088dc2f81fe391c3923bec73e23a9662efc9c229c6a00805468010000000000000000810460ff16159067ffffffffffffffff1660008115801561039d5750825b905060008267ffffffffffffffff1660011480156103ba5750303b155b9050811580156103c8575080155b156103ff576040517ff92ee8a900000000000000000000000000000000000000000000000000000000815260040160405180910390fd5b84547fffffffffffffffffffffffffffffffffffffffffffffffff000000000000000016600117855583156104605784547fffffffffffffffffffffffffffffffffffffffffffffff00ffffffffffffffff16680100000000000000001785555b610468610a6f565b6104927fa49807205ce4d355092ef5a8a18f56e8913cf4a201fbe287825b095693c2177533610870565b5083156104f45784547fffffffffffffffffffffffffffffffffffffffffffffff00ffffffffffffffff168555604051600181527fc7f505b2f371ae2175ee4913f4499e1f2633a7b5936321eed1cdaeb6115181d29060200160405180910390a15b5050505050565b6105058135610a79565b60006105118235610c7b565b9050600061051f8284610e4f565b9050826020013581101561055f576040517f828f02ae00000000000000000000000000000000000000000000000000000000815260040160405180910390fd5b600080546040517facd722730000000000000000000000000000000000000000000000000000000081528535600482015273ffffffffffffffffffffffffffffffffffffffff9091169063acd7227390602401602060405180830381865afa1580156105cf573d6000803e3d6000fd5b505050506040513d601f19601f820116820180604052508101906105f39190611c9a565b90508082101561062f576040517f8445ce7800000000000000000000000000000000000000000000000000000000815260040160405180910390fd5b6005546040517f015cb0a5000000000000000000000000000000000000000000000000000000008152853560048201526024810183905273ffffffffffffffffffffffffffffffffffffffff9091169063015cb0a590604401600060405180830381600087803b1580156106a257600080fd5b505af11580156106b6573d6000803e3d6000fd5b5050505060006106d082846106cb9190611ce2565b6111cb565b90506000816106df8486611ce2565b6106e99190611ce2565b90506106f98187602001356113c8565b610704863582611459565b505050505050565b7fa49807205ce4d355092ef5a8a18f56e8913cf4a201fbe287825b095693c2177561073681610863565b61073f82611634565b732260fac5e5542a773aa44fbcfedf7c193bc2c59963095ea7b36107696080850160608601611cf5565b6040517fffffffff0000000000000000000000000000000000000000000000000000000060e084901b16815273ffffffffffffffffffffffffffffffffffffffff90911660048201527fffffffffffffffffffffffffffffffffffffffffffffffffffffffffffffffff60248201526044015b6020604051808303816000875af11580156107fb573d6000803e3d6000fd5b505050506040513d601f19601f8201168201806040525081019061034d9190611d12565b60008281527f02dd7bc7dec4dceedda775e58dd541e08a116c6c53815c0bd028192f7b626800602052604090206001015461085981610863565b6102ee8383610991565b61086d813361193b565b50565b60008281527f02dd7bc7dec4dceedda775e58dd541e08a116c6c53815c0bd028192f7b6268006020818152604080842073ffffffffffffffffffffffffffffffffffffffff8616855290915282205460ff166109875760008481526020828152604080832073ffffffffffffffffffffffffffffffffffffffff87168452909152902080547fffffffffffffffffffffffffffffffffffffffffffffffffffffffffffffff001660011790556109233390565b73ffffffffffffffffffffffffffffffffffffffff168373ffffffffffffffffffffffffffffffffffffffff16857f2f8788117e7eff1d82e926ec794901d17c78024a50270940304540a733656f0d60405160405180910390a460019150506102a4565b60009150506102a4565b60008281527f02dd7bc7dec4dceedda775e58dd541e08a116c6c53815c0bd028192f7b6268006020818152604080842073ffffffffffffffffffffffffffffffffffffffff8616855290915282205460ff16156109875760008481526020828152604080832073ffffffffffffffffffffffffffffffffffffffff8716808552925280832080547fffffffffffffffffffffffffffffffffffffffffffffffffffffffffffffff0016905551339287917ff6391f5c32d9c69d2a47ea670b442974b53935d1edc7fd64eb21e047a839171b9190a460019150506102a4565b610a776119ea565b565b600480546040517f6352211e000000000000000000000000000000000000000000000000000000008152918201839052339173ffffffffffffffffffffffffffffffffffffffff90911690636352211e90602401602060405180830381865afa158015610aea573d6000803e3d6000fd5b505050506040513d601f19601f82011682018060405250810190610b0e9190611d34565b73ffffffffffffffffffffffffffffffffffffffff1614610b5b576040517f30cd747100000000000000000000000000000000000000000000000000000000815260040160405180910390fd5b6000546040517feb29dc5e0000000000000000000000000000000000000000000000000000000081526004810183905260019173ffffffffffffffffffffffffffffffffffffffff169063eb29dc5e90602401602060405180830381865afa158015610bcb573d6000803e3d6000fd5b505050506040513d601f19601f82011682018060405250810190610bef9190611d80565b6004811115610c0057610c00611d51565b14610c37576040517f5117a49b00000000000000000000000000000000000000000000000000000000815260040160405180910390fd5b610c4081611a51565b151560000361086d576040517f7616ad4000000000000000000000000000000000000000000000000000000000815260040160405180910390fd5b600080546040517f6ccf2fa700000000000000000000000000000000000000000000000000000000815260048101849052829173ffffffffffffffffffffffffffffffffffffffff1690636ccf2fa790602401602060405180830381865afa158015610ceb573d6000803e3d6000fd5b505050506040513d601f19601f82011682018060405250810190610d0f9190611d34565b600080546040517f7d711daa00000000000000000000000000000000000000000000000000000000815260048101879052929350909173ffffffffffffffffffffffffffffffffffffffff90911690637d711daa90602401602060405180830381865afa158015610d84573d6000803e3d6000fd5b505050506040513d601f19601f82011682018060405250810190610da89190611c9a565b6001546040517f1e9a695000000000000000000000000000000000000000000000000000000000815273ffffffffffffffffffffffffffffffffffffffff858116600483015260248201849052929350911690631e9a6950906044016020604051808303816000875af1158015610e23573d6000803e3d6000fd5b505050506040513d601f19601f82011682018060405250810190610e479190611c9a565b949350505050565b600080546040517f6ccf2fa700000000000000000000000000000000000000000000000000000000815283356004820152829173ffffffffffffffffffffffffffffffffffffffff1690636ccf2fa790602401602060405180830381865afa158015610ebf573d6000803e3d6000fd5b505050506040513d601f19601f82011682018060405250810190610ee39190611d34565b6002546040517fd6061ea600000000000000000000000000000000000000000000000000000000815273ffffffffffffffffffffffffffffffffffffffff80841660048301529293506000929091169063d6061ea690602401602060405180830381865afa158015610f59573d6000803e3d6000fd5b505050506040513d601f19601f82011682018060405250810190610f7d9190611d34565b60035490915060009073ffffffffffffffffffffffffffffffffffffffff166387bfefef610fb16060880160408901611da1565b6040518263ffffffff1660e01b8152600401610fcd9190611dc2565b602060405180830381865afa158015610fea573d6000803e3d6000fd5b505050506040513d601f19601f8201168201806040525081019061100e9190611d34565b9050600060405180608001604052808473ffffffffffffffffffffffffffffffffffffffff16815260200188815260200187806060019061104f9190611ddc565b8080601f016020809104026020016040519081016040528093929190818152602001838380828437600092019190915250505090825250306020909101526040517fa9059cbb00000000000000000000000000000000000000000000000000000000815273ffffffffffffffffffffffffffffffffffffffff8481166004830152602482018a90529192509084169063a9059cbb906044016020604051808303816000875af1158015611106573d6000803e3d6000fd5b505050506040513d601f19601f8201168201806040525081019061112a9190611d12565b506040517f8aa09fd300000000000000000000000000000000000000000000000000000000815273ffffffffffffffffffffffffffffffffffffffff831690638aa09fd39061117d908490600401611e48565b6020604051808303816000875af115801561119c573d6000803e3d6000fd5b505050506040513d601f19601f820116820180604052508101906111c09190611c9a565b979650505050505050565b600080600660009054906101000a900473ffffffffffffffffffffffffffffffffffffffff1673ffffffffffffffffffffffffffffffffffffffff1663ecb0116a6040518163ffffffff1660e01b8152600401602060405180830381865afa15801561123b573d6000803e3d6000fd5b505050506040513d601f19601f8201168201806040525081019061125f9190611c9a565b905060006127106112708386611f08565b61127a9190611f1f565b600654604080517f12fde4b70000000000000000000000000000000000000000000000000000000081529051929350732260fac5e5542a773aa44fbcfedf7c193bc2c5999263a9059cbb9273ffffffffffffffffffffffffffffffffffffffff16916312fde4b79160048083019260209291908290030181865afa158015611306573d6000803e3d6000fd5b505050506040513d601f19601f8201168201806040525081019061132a9190611d34565b6040517fffffffff0000000000000000000000000000000000000000000000000000000060e084901b16815273ffffffffffffffffffffffffffffffffffffffff9091166004820152602481018490526044016020604051808303816000875af115801561139c573d6000803e3d6000fd5b505050506040513d601f19601f820116820180604052508101906113c09190611d12565b509392505050565b80821015611402576040517f828f02ae00000000000000000000000000000000000000000000000000000000815260040160405180910390fd5b6040517fa9059cbb00000000000000000000000000000000000000000000000000000000815233600482015260248101839052732260fac5e5542a773aa44fbcfedf7c193bc2c5999063a9059cbb906044016107dc565b6000546040517facd7227300000000000000000000000000000000000000000000000000000000815260048101849052339184917f3120c845c5d2c39308641201562a412527c1e7aff294f09c0c936f1c60a1b06791859173ffffffffffffffffffffffffffffffffffffffff9091169063acd7227390602401602060405180830381865afa1580156114f0573d6000803e3d6000fd5b505050506040513d601f19601f820116820180604052508101906115149190611c9a565b6040805192835260208301919091520160405180910390a36000546040517fc0b944c900000000000000000000000000000000000000000000000000000000815273ffffffffffffffffffffffffffffffffffffffff9091169063c0b944c9906115849085906004908101611f5a565b600060405180830381600087803b15801561159e57600080fd5b505af11580156115b2573d6000803e3d6000fd5b5050600480546040517f42966c6800000000000000000000000000000000000000000000000000000000815291820186905273ffffffffffffffffffffffffffffffffffffffff1692506342966c689150602401600060405180830381600087803b15801561162057600080fd5b505af1158015610704573d6000803e3d6000fd5b61164661018082016101608301611cf5565b600080547fffffffffffffffffffffffff00000000000000000000000000000000000000001673ffffffffffffffffffffffffffffffffffffffff9290921691909117905561169b6060820160408301611cf5565b600480547fffffffffffffffffffffffff00000000000000000000000000000000000000001673ffffffffffffffffffffffffffffffffffffffff929092169190911790556116f26101a082016101808301611cf5565b600380547fffffffffffffffffffffffff00000000000000000000000000000000000000001673ffffffffffffffffffffffffffffffffffffffff929092169190911790556117476080820160608301611cf5565b600580547fffffffffffffffffffffffff00000000000000000000000000000000000000001673ffffffffffffffffffffffffffffffffffffffff9290921691909117905561179c60c0820160a08301611cf5565b600280547fffffffffffffffffffffffff00000000000000000000000000000000000000001673ffffffffffffffffffffffffffffffffffffffff929092169190911790556117f160e0820160c08301611cf5565b600680547fffffffffffffffffffffffff00000000000000000000000000000000000000001673ffffffffffffffffffffffffffffffffffffffff92909216919091179055611847610100820160e08301611cf5565b600780547fffffffffffffffffffffffff00000000000000000000000000000000000000001673ffffffffffffffffffffffffffffffffffffffff9290921691909117905561189e61018082016101608301611cf5565b600080547fffffffffffffffffffffffff00000000000000000000000000000000000000001673ffffffffffffffffffffffffffffffffffffffff929092169190911790556118f36040820160208301611cf5565b600180547fffffffffffffffffffffffff00000000000000000000000000000000000000001673ffffffffffffffffffffffffffffffffffffffff9290921691909117905550565b60008281527f02dd7bc7dec4dceedda775e58dd541e08a116c6c53815c0bd028192f7b6268006020908152604080832073ffffffffffffffffffffffffffffffffffffffff8516845290915290205460ff166119e6576040517fe2517d3f00000000000000000000000000000000000000000000000000000000815273ffffffffffffffffffffffffffffffffffffffff821660048201526024810183905260440160405180910390fd5b5050565b7ff0c57e16840df040f15088dc2f81fe391c3923bec73e23a9662efc9c229c6a005468010000000000000000900460ff16610a77576040517fd7e6bcf800000000000000000000000000000000000000000000000000000000815260040160405180910390fd5b600654604080517f722cf460000000000000000000000000000000000000000000000000000000008152905160009273ffffffffffffffffffffffffffffffffffffffff169163722cf4609160048083019260209291908290030181865afa158015611ac1573d6000803e3d6000fd5b505050506040513d601f19601f82011682018060405250810190611ae59190611f7e565b6000546040517fc941f9ab0000000000000000000000000000000000000000000000000000000081526004810185905260ff929092169173ffffffffffffffffffffffffffffffffffffffff9091169063c941f9ab90602401602060405180830381865afa158015611b5b573d6000803e3d6000fd5b505050506040513d601f19601f82011682018060405250810190611b7f9190611c9a565b611b899190611fa1565b43101592915050565b600060208284031215611ba457600080fd5b81357fffffffff0000000000000000000000000000000000000000000000000000000081168114611bd457600080fd5b9392505050565b600060208284031215611bed57600080fd5b5035919050565b73ffffffffffffffffffffffffffffffffffffffff8116811461086d57600080fd5b60008060408385031215611c2957600080fd5b823591506020830135611c3b81611bf4565b809150509250929050565b600060208284031215611c5857600080fd5b813567ffffffffffffffff811115611c6f57600080fd5b820160a08185031215611bd457600080fd5b60006101a08284031215611c9457600080fd5b50919050565b600060208284031215611cac57600080fd5b5051919050565b7f4e487b7100000000000000000000000000000000000000000000000000000000600052601160045260246000fd5b818103818111156102a4576102a4611cb3565b600060208284031215611d0757600080fd5b8135611bd481611bf4565b600060208284031215611d2457600080fd5b81518015158114611bd457600080fd5b600060208284031215611d4657600080fd5b8151611bd481611bf4565b7f4e487b7100000000000000000000000000000000000000000000000000000000600052602160045260246000fd5b600060208284031215611d9257600080fd5b815160058110611bd457600080fd5b600060208284031215611db357600080fd5b813560018110611bd457600080fd5b6020810160018310611dd657611dd6611d51565b91905290565b60008083357fffffffffffffffffffffffffffffffffffffffffffffffffffffffffffffffe1843603018112611e1157600080fd5b83018035915067ffffffffffffffff821115611e2c57600080fd5b602001915036819003821315611e4157600080fd5b9250929050565b6000602080835273ffffffffffffffffffffffffffffffffffffffff8451168184015280840151604084015260408401516080606085015280518060a086015260005b81811015611ea75782810184015186820160c001528301611e8b565b50600085820160c00152606086015173ffffffffffffffffffffffffffffffffffffffff811660808701529250601f017fffffffffffffffffffffffffffffffffffffffffffffffffffffffffffffffe0169390930160c001949350505050565b80820281158282048414176102a4576102a4611cb3565b600082611f55577f4e487b7100000000000000000000000000000000000000000000000000000000600052601260045260246000fd5b500490565b8281526040810160058310611f7157611f71611d51565b8260208301529392505050565b600060208284031215611f9057600080fd5b815160ff81168114611bd457600080fd5b808201808211156102a4576102a4611cb356fea164736f6c6343000815000a",
    "linkReferences": {}
  },
  "methodIdentifiers": {
    "DEFAULT_ADMIN_ROLE()": "a217fddf",
    "closePosition((uint256,uint256,uint8,bytes,address))": "971cfb4f",
    "getRoleAdmin(bytes32)": "248a9ca3",
    "grantRole(bytes32,address)": "2f2ff15d",
    "hasRole(bytes32,address)": "91d14854",
    "initialize()": "8129fc1c",
    "renounceRole(bytes32,address)": "36568abe",
    "revokeRole(bytes32,address)": "d547741f",
    "setDependencies((address,address,address,address,address,address,address,address,address,address,address,address,address))": "c0b7466e",
    "supportsInterface(bytes4)": "01ffc9a7"
  },
  "id": 83
}