{
  "abi": [
    {
      "inputs": [],
      "stateMutability": "nonpayable",
      "type": "constructor"
    },
    {
      "inputs": [],
      "name": "AdapterAlreadyAdded",
      "type": "error"
    },
    {
      "inputs": [],
      "name": "AdapterIsNotEmpty",
      "type": "error"
    },
    {
      "inputs": [],
      "name": "AdapterNotHealthy",
      "type": "error"
    },
    {
      "inputs": [],
      "name": "AdjustmentWrong",
      "type": "error"
    },
    {
      "inputs": [],
      "name": "StrategyPaused",
      "type": "error"
    },
    {
      "inputs": [],
      "name": "SwapFailed",
      "type": "error"
    },
    {
      "inputs": [],
      "name": "SyncError",
      "type": "error"
    },
    {
      "inputs": [],
      "name": "Unauthorized",
      "type": "error"
    },
    {
      "inputs": [],
      "name": "WithdrawTooLow",
      "type": "error"
    },
    {
      "anonymous": false,
      "inputs": [
        {
          "indexed": false,
          "internalType": "uint256",
          "name": "amount",
          "type": "uint256"
        },
        {
          "indexed": false,
          "internalType": "bool",
          "name": "isAdjustIn",
          "type": "bool"
        }
      ],
      "name": "Adjusted",
      "type": "event"
    },
    {
      "anonymous": false,
      "inputs": [
        {
          "indexed": true,
          "internalType": "address",
          "name": "owner",
          "type": "address"
        },
        {
          "indexed": true,
          "internalType": "address",
          "name": "spender",
          "type": "address"
        },
        {
          "indexed": false,
          "internalType": "uint256",
          "name": "value",
          "type": "uint256"
        }
      ],
      "name": "Approval",
      "type": "event"
    },
    {
      "anonymous": false,
      "inputs": [
        {
          "indexed": true,
          "internalType": "address",
          "name": "sender",
          "type": "address"
        },
        {
          "indexed": true,
          "internalType": "address",
          "name": "owner",
          "type": "address"
        },
        {
          "indexed": false,
          "internalType": "uint256",
          "name": "assets",
          "type": "uint256"
        },
        {
          "indexed": false,
          "internalType": "uint256",
          "name": "shares",
          "type": "uint256"
        }
      ],
      "name": "Deposit",
      "type": "event"
    },
    {
      "anonymous": false,
      "inputs": [
        {
          "indexed": false,
          "internalType": "uint256",
          "name": "totalClaimed",
          "type": "uint256"
        },
        {
          "indexed": false,
          "internalType": "uint256",
          "name": "fee",
          "type": "uint256"
        }
      ],
      "name": "HardWork",
      "type": "event"
    },
    {
      "anonymous": false,
      "inputs": [
        {
          "indexed": false,
          "internalType": "uint8",
          "name": "version",
          "type": "uint8"
        }
      ],
      "name": "Initialized",
      "type": "event"
    },
    {
      "anonymous": false,
      "inputs": [
        {
          "indexed": true,
          "internalType": "uint32",
          "name": "cycleEnd",
          "type": "uint32"
        },
        {
          "indexed": false,
          "internalType": "uint256",
          "name": "rewardAmount",
          "type": "uint256"
        }
      ],
      "name": "NewRewardsCycle",
      "type": "event"
    },
    {
      "anonymous": false,
      "inputs": [
        {
          "indexed": true,
          "internalType": "address",
          "name": "previousOwner",
          "type": "address"
        },
        {
          "indexed": true,
          "internalType": "address",
          "name": "newOwner",
          "type": "address"
        }
      ],
      "name": "OwnershipTransferred",
      "type": "event"
    },
    {
      "anonymous": false,
      "inputs": [
        {
          "indexed": true,
          "internalType": "address",
          "name": "from",
          "type": "address"
        },
        {
          "indexed": true,
          "internalType": "address",
          "name": "to",
          "type": "address"
        },
        {
          "indexed": false,
          "internalType": "uint256",
          "name": "value",
          "type": "uint256"
        }
      ],
      "name": "Transfer",
      "type": "event"
    },
    {
      "anonymous": false,
      "inputs": [
        {
          "indexed": true,
          "internalType": "address",
          "name": "sender",
          "type": "address"
        },
        {
          "indexed": true,
          "internalType": "address",
          "name": "receiver",
          "type": "address"
        },
        {
          "indexed": true,
          "internalType": "address",
          "name": "owner",
          "type": "address"
        },
        {
          "indexed": false,
          "internalType": "uint256",
          "name": "assets",
          "type": "uint256"
        },
        {
          "indexed": false,
          "internalType": "uint256",
          "name": "shares",
          "type": "uint256"
        }
      ],
      "name": "Withdraw",
      "type": "event"
    },
    {
      "inputs": [],
      "name": "LIFI_DIAMOND",
      "outputs": [
        {
          "internalType": "address",
          "name": "",
          "type": "address"
        }
      ],
      "stateMutability": "view",
      "type": "function"
    },
    {
      "inputs": [
        {
          "internalType": "uint256",
          "name": "",
          "type": "uint256"
        }
      ],
      "name": "adapters",
      "outputs": [
        {
          "internalType": "address",
          "name": "",
          "type": "address"
        }
      ],
      "stateMutability": "view",
      "type": "function"
    },
    {
      "inputs": [
        {
          "internalType": "address",
          "name": "_adapter",
          "type": "address"
        }
      ],
      "name": "addAdapter",
      "outputs": [],
      "stateMutability": "nonpayable",
      "type": "function"
    },
    {
      "inputs": [
        {
          "internalType": "address[]",
          "name": "_adapters",
          "type": "address[]"
        }
      ],
      "name": "addAdapters",
      "outputs": [],
      "stateMutability": "nonpayable",
      "type": "function"
    },
    {
      "inputs": [
        {
          "components": [
            {
              "internalType": "address",
              "name": "adapter",
              "type": "address"
            },
            {
              "internalType": "uint256",
              "name": "amount",
              "type": "uint256"
            },
            {
              "internalType": "uint256",
              "name": "minReceive",
              "type": "uint256"
            }
          ],
          "internalType": "struct MultiPoolStrategy.Adjust[]",
          "name": "_adjustIns",
          "type": "tuple[]"
        },
        {
          "components": [
            {
              "internalType": "address",
              "name": "adapter",
              "type": "address"
            },
            {
              "internalType": "uint256",
              "name": "amount",
              "type": "uint256"
            },
            {
              "internalType": "uint256",
              "name": "minReceive",
              "type": "uint256"
            }
          ],
          "internalType": "struct MultiPoolStrategy.Adjust[]",
          "name": "_adjustOuts",
          "type": "tuple[]"
        },
        {
          "internalType": "address[]",
          "name": "_sortedAdapters",
          "type": "address[]"
        }
      ],
      "name": "adjust",
      "outputs": [],
      "stateMutability": "nonpayable",
      "type": "function"
    },
    {
      "inputs": [],
      "name": "adjustInInterval",
      "outputs": [
        {
          "internalType": "uint256",
          "name": "",
          "type": "uint256"
        }
      ],
      "stateMutability": "view",
      "type": "function"
    },
    {
      "inputs": [],
      "name": "adjustOutInterval",
      "outputs": [
        {
          "internalType": "uint256",
          "name": "",
          "type": "uint256"
        }
      ],
      "stateMutability": "view",
      "type": "function"
    },
    {
      "inputs": [
        {
          "internalType": "address",
          "name": "owner",
          "type": "address"
        },
        {
          "internalType": "address",
          "name": "spender",
          "type": "address"
        }
      ],
      "name": "allowance",
      "outputs": [
        {
          "internalType": "uint256",
          "name": "",
          "type": "uint256"
        }
      ],
      "stateMutability": "view",
      "type": "function"
    },
    {
      "inputs": [
        {
          "internalType": "address",
          "name": "spender",
          "type": "address"
        },
        {
          "internalType": "uint256",
          "name": "amount",
          "type": "uint256"
        }
      ],
      "name": "approve",
      "outputs": [
        {
          "internalType": "bool",
          "name": "",
          "type": "bool"
        }
      ],
      "stateMutability": "nonpayable",
      "type": "function"
    },
    {
      "inputs": [],
      "name": "asset",
      "outputs": [
        {
          "internalType": "address",
          "name": "",
          "type": "address"
        }
      ],
      "stateMutability": "view",
      "type": "function"
    },
    {
      "inputs": [
        {
          "internalType": "address",
          "name": "account",
          "type": "address"
        }
      ],
      "name": "balanceOf",
      "outputs": [
        {
          "internalType": "uint256",
          "name": "",
          "type": "uint256"
        }
      ],
      "stateMutability": "view",
      "type": "function"
    },
    {
      "inputs": [
        {
          "internalType": "address",
          "name": "_adapter",
          "type": "address"
        },
        {
          "internalType": "uint256",
          "name": "_healthFactor",
          "type": "uint256"
        }
      ],
      "name": "changeAdapterHealthFactor",
      "outputs": [],
      "stateMutability": "nonpayable",
      "type": "function"
    },
    {
      "inputs": [
        {
          "internalType": "uint256",
          "name": "_adjustInInterval",
          "type": "uint256"
        }
      ],
      "name": "changeAdjustInInterval",
      "outputs": [],
      "stateMutability": "nonpayable",
      "type": "function"
    },
    {
      "inputs": [
        {
          "internalType": "uint256",
          "name": "_adjustOutInterval",
          "type": "uint256"
        }
      ],
      "name": "changeAdjustOutInterval",
      "outputs": [],
      "stateMutability": "nonpayable",
      "type": "function"
    },
    {
      "inputs": [
        {
          "internalType": "uint256",
          "name": "_feePercentage",
          "type": "uint256"
        }
      ],
      "name": "changeFeePercentage",
      "outputs": [],
      "stateMutability": "nonpayable",
      "type": "function"
    },
    {
      "inputs": [
        {
          "internalType": "address",
          "name": "_feeRecipient",
          "type": "address"
        }
      ],
      "name": "changeFeeRecipient",
      "outputs": [],
      "stateMutability": "nonpayable",
      "type": "function"
    },
    {
      "inputs": [
        {
          "internalType": "uint256",
          "name": "shares",
          "type": "uint256"
        }
      ],
      "name": "convertToAssets",
      "outputs": [
        {
          "internalType": "uint256",
          "name": "assets",
          "type": "uint256"
        }
      ],
      "stateMutability": "view",
      "type": "function"
    },
    {
      "inputs": [
        {
          "internalType": "uint256",
          "name": "assets",
          "type": "uint256"
        }
      ],
      "name": "convertToShares",
      "outputs": [
        {
          "internalType": "uint256",
          "name": "shares",
          "type": "uint256"
        }
      ],
      "stateMutability": "view",
      "type": "function"
    },
    {
      "inputs": [],
      "name": "decimals",
      "outputs": [
        {
          "internalType": "uint8",
          "name": "",
          "type": "uint8"
        }
      ],
      "stateMutability": "view",
      "type": "function"
    },
    {
      "inputs": [
        {
          "internalType": "address",
          "name": "spender",
          "type": "address"
        },
        {
          "internalType": "uint256",
          "name": "subtractedValue",
          "type": "uint256"
        }
      ],
      "name": "decreaseAllowance",
      "outputs": [
        {
          "internalType": "bool",
          "name": "",
          "type": "bool"
        }
      ],
      "stateMutability": "nonpayable",
      "type": "function"
    },
    {
      "inputs": [
        {
          "internalType": "uint256",
          "name": "assets",
          "type": "uint256"
        },
        {
          "internalType": "address",
          "name": "receiver",
          "type": "address"
        }
      ],
      "name": "deposit",
      "outputs": [
        {
          "internalType": "uint256",
          "name": "shares",
          "type": "uint256"
        }
      ],
      "stateMutability": "nonpayable",
      "type": "function"
    },
    {
      "inputs": [
        {
          "internalType": "address[]",
          "name": "_adaptersToClaim",
          "type": "address[]"
        },
        {
          "components": [
            {
              "internalType": "address",
              "name": "token",
              "type": "address"
            },
            {
              "internalType": "uint256",
              "name": "amount",
              "type": "uint256"
            },
            {
              "internalType": "bytes",
              "name": "callData",
              "type": "bytes"
            }
          ],
          "internalType": "struct MultiPoolStrategy.SwapData[]",
          "name": "_swapDatas",
          "type": "tuple[]"
        }
      ],
      "name": "doHardWork",
      "outputs": [],
      "stateMutability": "nonpayable",
      "type": "function"
    },
    {
      "inputs": [],
      "name": "feePercentage",
      "outputs": [
        {
          "internalType": "uint256",
          "name": "",
          "type": "uint256"
        }
      ],
      "stateMutability": "view",
      "type": "function"
    },
    {
      "inputs": [],
      "name": "feeRecipient",
      "outputs": [
        {
          "internalType": "address",
          "name": "",
          "type": "address"
        }
      ],
      "stateMutability": "view",
      "type": "function"
    },
    {
      "inputs": [
        {
          "internalType": "address",
          "name": "spender",
          "type": "address"
        },
        {
          "internalType": "uint256",
          "name": "addedValue",
          "type": "uint256"
        }
      ],
      "name": "increaseAllowance",
      "outputs": [
        {
          "internalType": "bool",
          "name": "",
          "type": "bool"
        }
      ],
      "stateMutability": "nonpayable",
      "type": "function"
    },
    {
      "inputs": [
        {
          "internalType": "address",
          "name": "_stakingToken",
          "type": "address"
        },
        {
          "internalType": "address",
          "name": "_monitor",
          "type": "address"
        },
        {
          "internalType": "string",
          "name": "_name",
          "type": "string"
        },
        {
          "internalType": "string",
          "name": "_symbol",
          "type": "string"
        }
      ],
      "name": "initialize",
      "outputs": [],
      "stateMutability": "nonpayable",
      "type": "function"
    },
    {
      "inputs": [
        {
          "internalType": "address",
          "name": "",
          "type": "address"
        }
      ],
      "name": "isAdapter",
      "outputs": [
        {
          "internalType": "bool",
          "name": "",
          "type": "bool"
        }
      ],
      "stateMutability": "view",
      "type": "function"
    },
    {
      "inputs": [],
      "name": "lastAdjustIn",
      "outputs": [
        {
          "internalType": "uint256",
          "name": "",
          "type": "uint256"
        }
      ],
      "stateMutability": "view",
      "type": "function"
    },
    {
      "inputs": [],
      "name": "lastAdjustOut",
      "outputs": [
        {
          "internalType": "uint256",
          "name": "",
          "type": "uint256"
        }
      ],
      "stateMutability": "view",
      "type": "function"
    },
    {
      "inputs": [],
      "name": "lastRewardAmount",
      "outputs": [
        {
          "internalType": "uint192",
          "name": "",
          "type": "uint192"
        }
      ],
      "stateMutability": "view",
      "type": "function"
    },
    {
      "inputs": [],
      "name": "lastSync",
      "outputs": [
        {
          "internalType": "uint32",
          "name": "",
          "type": "uint32"
        }
      ],
      "stateMutability": "view",
      "type": "function"
    },
    {
      "inputs": [
        {
          "internalType": "address",
          "name": "",
          "type": "address"
        }
      ],
      "name": "maxDeposit",
      "outputs": [
        {
          "internalType": "uint256",
          "name": "",
          "type": "uint256"
        }
      ],
      "stateMutability": "view",
      "type": "function"
    },
    {
      "inputs": [
        {
          "internalType": "address",
          "name": "",
          "type": "address"
        }
      ],
      "name": "maxMint",
      "outputs": [
        {
          "internalType": "uint256",
          "name": "",
          "type": "uint256"
        }
      ],
      "stateMutability": "view",
      "type": "function"
    },
    {
      "inputs": [
        {
          "internalType": "address",
          "name": "owner",
          "type": "address"
        }
      ],
      "name": "maxRedeem",
      "outputs": [
        {
          "internalType": "uint256",
          "name": "",
          "type": "uint256"
        }
      ],
      "stateMutability": "view",
      "type": "function"
    },
    {
      "inputs": [
        {
          "internalType": "address",
          "name": "owner",
          "type": "address"
        }
      ],
      "name": "maxWithdraw",
      "outputs": [
        {
          "internalType": "uint256",
          "name": "",
          "type": "uint256"
        }
      ],
      "stateMutability": "view",
      "type": "function"
    },
    {
      "inputs": [],
      "name": "minPercentage",
      "outputs": [
        {
          "internalType": "uint256",
          "name": "",
          "type": "uint256"
        }
      ],
      "stateMutability": "view",
      "type": "function"
    },
    {
      "inputs": [],
      "name": "monitor",
      "outputs": [
        {
          "internalType": "address",
          "name": "",
          "type": "address"
        }
      ],
      "stateMutability": "view",
      "type": "function"
    },
    {
      "inputs": [],
      "name": "name",
      "outputs": [
        {
          "internalType": "string",
          "name": "",
          "type": "string"
        }
      ],
      "stateMutability": "view",
      "type": "function"
    },
    {
      "inputs": [],
      "name": "owner",
      "outputs": [
        {
          "internalType": "address",
          "name": "",
          "type": "address"
        }
      ],
      "stateMutability": "view",
      "type": "function"
    },
    {
      "inputs": [],
      "name": "paused",
      "outputs": [
        {
          "internalType": "bool",
          "name": "",
          "type": "bool"
        }
      ],
      "stateMutability": "view",
      "type": "function"
    },
    {
      "inputs": [
        {
          "internalType": "uint256",
          "name": "assets",
          "type": "uint256"
        }
      ],
      "name": "previewDeposit",
      "outputs": [
        {
          "internalType": "uint256",
          "name": "",
          "type": "uint256"
        }
      ],
      "stateMutability": "view",
      "type": "function"
    },
    {
      "inputs": [
        {
          "internalType": "uint256",
          "name": "shares",
          "type": "uint256"
        }
      ],
      "name": "previewMint",
      "outputs": [
        {
          "internalType": "uint256",
          "name": "",
          "type": "uint256"
        }
      ],
      "stateMutability": "view",
      "type": "function"
    },
    {
      "inputs": [
        {
          "internalType": "uint256",
          "name": "shares",
          "type": "uint256"
        }
      ],
      "name": "previewRedeem",
      "outputs": [
        {
          "internalType": "uint256",
          "name": "",
          "type": "uint256"
        }
      ],
      "stateMutability": "view",
      "type": "function"
    },
    {
      "inputs": [
        {
          "internalType": "uint256",
          "name": "assets",
          "type": "uint256"
        }
      ],
      "name": "previewWithdraw",
      "outputs": [
        {
          "internalType": "uint256",
          "name": "",
          "type": "uint256"
        }
      ],
      "stateMutability": "view",
      "type": "function"
    },
    {
      "inputs": [
        {
          "internalType": "uint256",
          "name": "shares",
          "type": "uint256"
        },
        {
          "internalType": "address",
          "name": "receiver",
          "type": "address"
        },
        {
          "internalType": "address",
          "name": "owner",
          "type": "address"
        },
        {
          "internalType": "uint256",
          "name": "minimumReceive",
          "type": "uint256"
        }
      ],
      "name": "redeem",
      "outputs": [
        {
          "internalType": "uint256",
          "name": "",
          "type": "uint256"
        }
      ],
      "stateMutability": "nonpayable",
      "type": "function"
    },
    {
      "inputs": [
        {
          "internalType": "address",
          "name": "_adapter",
          "type": "address"
        }
      ],
      "name": "removeAdapter",
      "outputs": [],
      "stateMutability": "nonpayable",
      "type": "function"
    },
    {
      "inputs": [],
      "name": "renounceOwnership",
      "outputs": [],
      "stateMutability": "nonpayable",
      "type": "function"
    },
    {
      "inputs": [],
      "name": "rewardsCycleEnd",
      "outputs": [
        {
          "internalType": "uint32",
          "name": "",
          "type": "uint32"
        }
      ],
      "stateMutability": "view",
      "type": "function"
    },
    {
      "inputs": [],
      "name": "rewardsCycleLength",
      "outputs": [
        {
          "internalType": "uint32",
          "name": "",
          "type": "uint32"
        }
      ],
      "stateMutability": "view",
      "type": "function"
    },
    {
      "inputs": [
        {
          "internalType": "uint256",
          "name": "_minPercentage",
          "type": "uint256"
        }
      ],
      "name": "setMinimumPercentage",
      "outputs": [],
      "stateMutability": "nonpayable",
      "type": "function"
    },
    {
      "inputs": [
        {
          "internalType": "address",
          "name": "_monitor",
          "type": "address"
        }
      ],
      "name": "setMonitor",
      "outputs": [],
      "stateMutability": "nonpayable",
      "type": "function"
    },
    {
      "inputs": [],
      "name": "storedTotalAssets",
      "outputs": [
        {
          "internalType": "uint256",
          "name": "",
          "type": "uint256"
        }
      ],
      "stateMutability": "view",
      "type": "function"
    },
    {
      "inputs": [],
      "name": "symbol",
      "outputs": [
        {
          "internalType": "string",
          "name": "",
          "type": "string"
        }
      ],
      "stateMutability": "view",
      "type": "function"
    },
    {
      "inputs": [],
      "name": "togglePause",
      "outputs": [],
      "stateMutability": "nonpayable",
      "type": "function"
    },
    {
      "inputs": [],
      "name": "totalAssets",
      "outputs": [
        {
          "internalType": "uint256",
          "name": "",
          "type": "uint256"
        }
      ],
      "stateMutability": "view",
      "type": "function"
    },
    {
      "inputs": [],
      "name": "totalSupply",
      "outputs": [
        {
          "internalType": "uint256",
          "name": "",
          "type": "uint256"
        }
      ],
      "stateMutability": "view",
      "type": "function"
    },
    {
      "inputs": [
        {
          "internalType": "address",
          "name": "to",
          "type": "address"
        },
        {
          "internalType": "uint256",
          "name": "amount",
          "type": "uint256"
        }
      ],
      "name": "transfer",
      "outputs": [
        {
          "internalType": "bool",
          "name": "",
          "type": "bool"
        }
      ],
      "stateMutability": "nonpayable",
      "type": "function"
    },
    {
      "inputs": [
        {
          "internalType": "address",
          "name": "from",
          "type": "address"
        },
        {
          "internalType": "address",
          "name": "to",
          "type": "address"
        },
        {
          "internalType": "uint256",
          "name": "amount",
          "type": "uint256"
        }
      ],
      "name": "transferFrom",
      "outputs": [
        {
          "internalType": "bool",
          "name": "",
          "type": "bool"
        }
      ],
      "stateMutability": "nonpayable",
      "type": "function"
    },
    {
      "inputs": [
        {
          "internalType": "address",
          "name": "newOwner",
          "type": "address"
        }
      ],
      "name": "transferOwnership",
      "outputs": [],
      "stateMutability": "nonpayable",
      "type": "function"
    },
    {
      "inputs": [
        {
          "internalType": "uint256",
          "name": "assets",
          "type": "uint256"
        },
        {
          "internalType": "address",
          "name": "receiver",
          "type": "address"
        },
        {
          "internalType": "address",
          "name": "owner",
          "type": "address"
        },
        {
          "internalType": "uint256",
          "name": "minimumReceive",
          "type": "uint256"
        }
      ],
      "name": "withdraw",
      "outputs": [
        {
          "internalType": "uint256",
          "name": "",
          "type": "uint256"
        }
      ],
      "stateMutability": "nonpayable",
      "type": "function"
    }
  ],
  "bytecode": {
    "object": "0x60806040523480156200001157600080fd5b506200001c62000022565b620000e4565b600054610100900460ff16156200008f5760405162461bcd60e51b815260206004820152602760248201527f496e697469616c697a61626c653a20636f6e747261637420697320696e697469604482015266616c697a696e6760c81b606482015260840160405180910390fd5b60005460ff9081161015620000e2576000805460ff191660ff9081179091556040519081527f7f26b83ff96e1f2b6a682f133852f6798a09c465da95921460cefb38474024989060200160405180910390a15b565b614b3e80620000f46000396000f3fe608060405234801561001057600080fd5b50600436106103a45760003560e01c80636e553f65116101e9578063bafedcaa1161010f578063d716290d116100ad578063ef8b30f71161007c578063ef8b30f7146107f0578063f1a08db314610890578063f2fde38b146108a3578063fae14192146108b657600080fd5b8063d716290d14610829578063d905777e14610833578063dd62ed3e14610846578063e7ff69f11461087f57600080fd5b8063c63d75b6116100e9578063c63d75b6146107db578063c6e6f592146107f0578063c7a1e0c414610803578063ce96cb771461081657600080fd5b8063bafedcaa1461076a578063be0da3c7146107c0578063c4ae3168146107d357600080fd5b80639f40a7b311610187578063a6ce945e11610156578063a6ce945e14610731578063a9059cbb1461073b578063b042d03d1461074e578063b3d7f6b91461075757600080fd5b80639f40a7b3146106ee578063a001ecdd14610701578063a318c1a41461070b578063a457c2d71461071e57600080fd5b8063715018a6116101c3578063715018a6146106ba5780638da5cb5b146106c257806394dcb7ba146106d357806395d89b41146106e657600080fd5b80636e553f65146106545780636fcf5e5f1461066757806370a082311461069157600080fd5b806338d52e0f116102ce578063585cd34b1161026c57806361c1c5e91161023b57806361c1c5e9146105d157806367458cca146105db57806368c18beb146105ee5780636917516b1461061157600080fd5b8063585cd34b146105725780635c975abb146105855780635cd82390146105ab57806360d54d41146105be57600080fd5b8063402d267d116102a8578063402d267d14610538578063469048401461054b5780634cdad5061461041f5780634ef501ac1461055f57600080fd5b806338d52e0f1461050157806339509351146105125780633be8c9241461052557600080fd5b80630a28a4771161034657806323b872dd1161031557806323b872dd146104985780632fd4bee3146104ab578063313ce567146104be5780633241992a146104ee57600080fd5b80630a28a4771461045557806318160ddd146104685780632016a0d214610470578063236040711461048557600080fd5b806303a8b9241161038257806303a8b9241461040157806306fdde031461040a57806307a2d13a1461041f578063095ea7b31461043257600080fd5b806301e1d114146103a9578063020a1f7d146103c45780630266782e146103f7575b600080fd5b6103b16108c9565b6040519081526020015b60405180910390f35b6103df731231deb6f5749ef6ce6943a275a1d3e7486f4eae81565b6040516001600160a01b0390911681526020016103bb565b6103b16101025481565b6103b160ff5481565b610412610aa8565b6040516103bb9190614188565b6103b161042d3660046141d9565b610b3a565b61044561044036600461420e565b610b4d565b60405190151581526020016103bb565b6103b16104633660046141d9565b610b65565b6067546103b1565b61048361047e366004614281565b610b72565b005b610483610493366004614312565b610d4b565b6104456104a636600461432d565b610d8e565b6104836104b93660046143f3565b610db4565b60975474010000000000000000000000000000000000000000900460ff1660405160ff90911681526020016103bb565b60fd546103df906001600160a01b031681565b6097546001600160a01b03166103df565b61044561052036600461420e565b6113f5565b61048361053336600461420e565b611434565b6103b1610546366004614312565b6114fd565b610104546103df906001600160a01b031681565b6103df61056d3660046141d9565b61151b565b610483610580366004614312565b611545565b610104546104459074010000000000000000000000000000000000000000900460ff1681565b6104836105b9366004614312565b611748565b6104836105cc366004614312565b61178a565b6103b16101065481565b6104836105e936600461447b565b611881565b6104456105fc366004614312565b60fc6020526000908152604090205460ff1681565b6101045461063f90790100000000000000000000000000000000000000000000000000900463ffffffff1681565b60405163ffffffff90911681526020016103bb565b6103b16106623660046144bd565b611a10565b6101045461063f907501000000000000000000000000000000000000000000900463ffffffff1681565b6103b161069f366004614312565b6001600160a01b031660009081526065602052604090205490565b610483611bd4565b6033546001600160a01b03166103df565b6104836106e13660046144e9565b611be8565b610412612090565b6103b16106fc366004614555565b61209f565b6103b16101035481565b6103b1610719366004614555565b612170565b61044561072c36600461420e565b61222c565b6103b16101015481565b61044561074936600461420e565b6122e1565b6103b160fe5481565b6103b16107653660046141d9565b6122ef565b6101055461079790640100000000900477ffffffffffffffffffffffffffffffffffffffffffffffff1681565b60405177ffffffffffffffffffffffffffffffffffffffffffffffff90911681526020016103bb565b6104836107ce3660046141d9565b6122fc565b61048361230a565b6103b16107e9366004614312565b5060001990565b6103b16107fe3660046141d9565b612360565b6104836108113660046141d9565b61236d565b6103b1610824366004614312565b61237a565b6103b16101005481565b6103b1610841366004614312565b61239e565b6103b1610854366004614599565b6001600160a01b03918216600090815260666020908152604080832093909416825291909152205490565b6101055461063f9063ffffffff1681565b61048361089e3660046141d9565b6123bc565b6104836108b1366004614312565b6123c9565b6104836108c43660046141d9565b612459565b6101065461010554610104546000929177ffffffffffffffffffffffffffffffffffffffffffffffff6401000000008204169163ffffffff918216917901000000000000000000000000000000000000000000000000009091041684805b60fb548110156109ed5760fb8181548110610944576109446145c3565b60009182526020918290200154604080517f59356c5c00000000000000000000000000000000000000000000000000000000815290516001600160a01b03909216926359356c5c926004808401938290030181865afa1580156109ab573d6000803e3d6000fd5b505050506040513d601f19601f820116820180604052508101906109cf91906145f2565b6109d9908361463a565b9150806109e58161464d565b915050610927565b508263ffffffff164210610a345780610a2077ffffffffffffffffffffffffffffffffffffffffffffffff86168761463a565b610a2a919061463a565b9550505050505090565b6000610a408385614667565b63ffffffff168363ffffffff1642610a58919061468b565b610a7c9077ffffffffffffffffffffffffffffffffffffffffffffffff881661469e565b610a8691906146e4565b905081610a93828861463a565b610a9d919061463a565b965050505050505090565b606060688054610ab7906146f8565b80601f0160208091040260200160405190810160405280929190818152602001828054610ae3906146f8565b8015610b305780601f10610b0557610100808354040283529160200191610b30565b820191906000526020600020905b815481529060010190602001808311610b1357829003601f168201915b5050505050905090565b6000610b47826000612467565b92915050565b600033610b5b81858561249a565b5060019392505050565b6000610b478260016125f2565b600054610100900460ff1615808015610b925750600054600160ff909116105b80610bac5750303b158015610bac575060005460ff166001145b610c235760405162461bcd60e51b815260206004820152602e60248201527f496e697469616c697a61626c653a20636f6e747261637420697320616c72656160448201527f647920696e697469616c697a656400000000000000000000000000000000000060648201526084015b60405180910390fd5b600080547fffffffffffffffffffffffffffffffffffffffffffffffffffffffffffffff001660011790558015610c8157600080547fffffffffffffffffffffffffffffffffffffffffffffffffffffffffffff00ff166101001790555b610c89612624565b610cd58585604051602001610c9f92919061474b565b6040516020818303038152906040528484604051602001610cc192919061474b565b6040516020818303038152906040526126aa565b610cdf8787612740565b8015610d4257600080547fffffffffffffffffffffffffffffffffffffffffffffffffffffffffffff00ff169055604051600181527f7f26b83ff96e1f2b6a682f133852f6798a09c465da95921460cefb38474024989060200160405180910390a15b50505050505050565b610d536127df565b61010480547fffffffffffffffffffffffff0000000000000000000000000000000000000000166001600160a01b0392909216919091179055565b600033610d9c858285612839565b610da78585856128c5565b60019150505b9392505050565b610dbc612ab9565b60fd546001600160a01b0316336001600160a01b031614158015610dfc57506101045474010000000000000000000000000000000000000000900460ff16155b80610e3857506033546001600160a01b03163314801590610e3857506101045474010000000000000000000000000000000000000000900460ff165b15610e6f576040517f82b4290000000000000000000000000000000000000000000000000000000000815260040160405180910390fd5b828015801590610e8d575060ff5461010154610e8b904261468b565b115b1561110c576000610ea66097546001600160a01b031690565b6040517f70a082310000000000000000000000000000000000000000000000000000000081523060048201526001600160a01b0391909116906370a0823190602401602060405180830381865afa158015610f05573d6000803e3d6000fd5b505050506040513d601f19601f82011682018060405250810190610f2991906145f2565b905060005b8281101561100757868682818110610f4857610f486145c3565b610f5e9260206060909202019081019150614312565b6001600160a01b031663441a3e70888884818110610f7e57610f7e6145c3565b90506060020160200135898985818110610f9a57610f9a6145c3565b905060600201604001356040518363ffffffff1660e01b8152600401610fca929190918252602082015260400190565b600060405180830381600087803b158015610fe457600080fd5b505af1158015610ff8573d6000803e3d6000fd5b50505050806001019050610f2e565b50600061101c6097546001600160a01b031690565b6040517f70a082310000000000000000000000000000000000000000000000000000000081523060048201526001600160a01b0391909116906370a0823190602401602060405180830381865afa15801561107b573d6000803e3d6000fd5b505050506040513d601f19601f8201168201806040525081019061109f91906145f2565b90506110ab828261468b565b61010660008282546110bd919061463a565b909155505042610101557fbaa3695dd020d6861c8ea1b28493583d2c38db4421ee0ff9765cfe33b784fbd16110f2838361468b565b60408051918252600060208301520160405180910390a150505b85801580159061112a575060fe5461010054611128904261468b565b115b15611368576000805b8281101561130f5760fc60008b8b84818110611151576111516145c3565b6111679260206060909202019081019150614312565b6001600160a01b0316815260208101919091526040016000205460ff166111ba576040517f82b4290000000000000000000000000000000000000000000000000000000000815260040160405180910390fd5b6112186111cf6097546001600160a01b031690565b8b8b848181106111e1576111e16145c3565b6111f79260206060909202019081019150614312565b8c8c85818110611209576112096145c3565b90506060020160200135612b12565b89898281811061122a5761122a6145c3565b6112409260206060909202019081019150614312565b6001600160a01b031663e2bbb1588b8b84818110611260576112606145c3565b905060600201602001358c8c8581811061127c5761127c6145c3565b905060600201604001356040518363ffffffff1660e01b81526004016112ac929190918252602082015260400190565b600060405180830381600087803b1580156112c657600080fd5b505af11580156112da573d6000803e3d6000fd5b505050508989828181106112f0576112f06145c3565b9050606002016020013582611305919061463a565b9150600101611133565b50806101066000828254611323919061468b565b9091555050426101005560408051828152600160208201527fbaa3695dd020d6861c8ea1b28493583d2c38db4421ee0ff9765cfe33b784fbd1910160405180910390a1505b60006113726108c9565b90506127106101025482611386919061469e565b61139091906146e4565b6101065410156113cc576040517f80498b9800000000000000000000000000000000000000000000000000000000815260040160405180910390fd5b83156113e0576113de60fb86866140dd565b505b5050506113ed600160c955565b505050505050565b3360008181526066602090815260408083206001600160a01b0387168452909152812054909190610b5b908290869061142f90879061463a565b61249a565b61143c6127df565b61271081111561148e5760405162461bcd60e51b815260206004820152601260248201527f4865616c746820666163746f723e3130302500000000000000000000000000006044820152606401610c1a565b6040517f31111708000000000000000000000000000000000000000000000000000000008152600481018290526001600160a01b03831690633111170890602401600060405180830381600087803b1580156114e957600080fd5b505af11580156113ed573d6000803e3d6000fd5b6000611507612bd9565b611512576000610b47565b60001992915050565b60fb818154811061152b57600080fd5b6000918252602090912001546001600160a01b0316905081565b61154d6127df565b6000816001600160a01b03166359356c5c6040518163ffffffff1660e01b8152600401602060405180830381865afa15801561158d573d6000803e3d6000fd5b505050506040513d601f19601f820116820180604052508101906115b191906145f2565b11156115e9576040517feac0876600000000000000000000000000000000000000000000000000000000815260040160405180910390fd5b6001600160a01b038116600090815260fc6020526040812080547fffffffffffffffffffffffffffffffffffffffffffffffffffffffffffffff001690555b60fb5481101561174457816001600160a01b031660fb828154811061164f5761164f6145c3565b6000918252602090912001546001600160a01b0316036117325760fb80546116799060019061468b565b81548110611689576116896145c3565b60009182526020909120015460fb80546001600160a01b0390921691839081106116b5576116b56145c3565b9060005260206000200160006101000a8154816001600160a01b0302191690836001600160a01b0316021790555060fb8054806116f4576116f461475b565b600082815260209020810160001990810180547fffffffffffffffffffffffff00000000000000000000000000000000000000001690550190555050565b8061173c8161464d565b915050611628565b5050565b6117506127df565b60fd80547fffffffffffffffffffffffff0000000000000000000000000000000000000000166001600160a01b0392909216919091179055565b6117926127df565b6001600160a01b038116600090815260fc602052604090205460ff16156117e5576040517fd7e94e9e00000000000000000000000000000000000000000000000000000000815260040160405180910390fd5b6001600160a01b0316600081815260fc6020526040812080547fffffffffffffffffffffffffffffffffffffffffffffffffffffffffffffff0016600190811790915560fb805491820181559091527f3e7257b7272bb46d49cd6019b04ddee20da7c0cb13f7c1ec3391291b2ccebabc0180547fffffffffffffffffffffffff0000000000000000000000000000000000000000169091179055565b6118896127df565b60005b81811015611a0b5760fc60008484848181106118aa576118aa6145c3565b90506020020160208101906118bf9190614312565b6001600160a01b0316815260208101919091526040016000205460ff1615611913576040517fd7e94e9e00000000000000000000000000000000000000000000000000000000815260040160405180910390fd5b600160fc600085858581811061192b5761192b6145c3565b90506020020160208101906119409190614312565b6001600160a01b03168152602081019190915260400160002080547fffffffffffffffffffffffffffffffffffffffffffffffffffffffffffffff001691151591909117905560fb83838381811061199a5761199a6145c3565b90506020020160208101906119af9190614312565b81546001810183556000928352602090922090910180547fffffffffffffffffffffffff0000000000000000000000000000000000000000166001600160a01b0390921691909117905580611a038161464d565b91505061188c565b505050565b6000611a1a612ab9565b6101045474010000000000000000000000000000000000000000900460ff1615611a70576040517fe628b94900000000000000000000000000000000000000000000000000000000815260040160405180910390fd5b600060fb805480602002602001604051908101604052809291908181526020018280548015611ac857602002820191906000526020600020905b81546001600160a01b03168152600190910190602001808311611aaa575b5050505050905060005b8151811015611ba4576000828281518110611aef57611aef6145c3565b60200260200101516001600160a01b031663e40208046040518163ffffffff1660e01b8152600401602060405180830381865afa158015611b34573d6000803e3d6000fd5b505050506040513d601f19601f82011682018060405250810190611b58919061478a565b905080611b91576040517f9387d08b00000000000000000000000000000000000000000000000000000000815260040160405180910390fd5b5080611b9c8161464d565b915050611ad2565b50611baf8484612bf5565b9150836101066000828254611bc4919061463a565b909155505050610b47600160c955565b611bdc6127df565b611be66000612c68565b565b611bf0612ab9565b60fd546001600160a01b0316336001600160a01b031614158015611c1f57506033546001600160a01b03163314155b15611c56576040517f82b4290000000000000000000000000000000000000000000000000000000000815260040160405180910390fd5b60005b83811015611ce557848482818110611c7357611c736145c3565b9050602002016020810190611c889190614312565b6001600160a01b0316634e71d92d6040518163ffffffff1660e01b8152600401600060405180830381600087803b158015611cc257600080fd5b505af1158015611cd6573d6000803e3d6000fd5b50505050806001019050611c59565b506000611cfa6097546001600160a01b031690565b6040517f70a082310000000000000000000000000000000000000000000000000000000081523060048201526001600160a01b0391909116906370a0823190602401602060405180830381865afa158015611d59573d6000803e3d6000fd5b505050506040513d601f19601f82011682018060405250810190611d7d91906145f2565b905060005b82811015611f2f57611ddb848483818110611d9f57611d9f6145c3565b9050602002810190611db191906147ac565b611dbf906020810190614312565b731231deb6f5749ef6ce6943a275a1d3e7486f4eae6000612cd2565b611e52848483818110611df057611df06145c3565b9050602002810190611e0291906147ac565b611e10906020810190614312565b731231deb6f5749ef6ce6943a275a1d3e7486f4eae868685818110611e3757611e376145c3565b9050602002810190611e4991906147ac565b60200135612cd2565b6000731231deb6f5749ef6ce6943a275a1d3e7486f4eae858584818110611e7b57611e7b6145c3565b9050602002810190611e8d91906147ac565b611e9b9060408101906147ea565b604051611ea992919061474b565b6000604051808303816000865af19150503d8060008114611ee6576040519150601f19603f3d011682016040523d82523d6000602084013e611eeb565b606091505b5050905080611f26576040517f81ceff3000000000000000000000000000000000000000000000000000000000815260040160405180910390fd5b50600101611d82565b506000611f446097546001600160a01b031690565b6040517f70a082310000000000000000000000000000000000000000000000000000000081523060048201526001600160a01b0391909116906370a0823190602401602060405180830381865afa158015611fa3573d6000803e3d6000fd5b505050506040513d601f19601f82011682018060405250810190611fc791906145f2565b90506000611fd5838361468b565b90506000811561202b576127106101035483611ff1919061469e565b611ffb91906146e4565b9050801561202b5761202b6120186097546001600160a01b031690565b610104546001600160a01b031683612b12565b6000612037828461468b565b905061204281612e20565b60408051848152602081018490527fad5ec3e385353e30c3a9b7257c36ccc32a0181055f8659baafacc019a8b0b575910160405180910390a1505050505061208a600160c955565b50505050565b606060698054610ab7906146f8565b60006120a9612ab9565b6120b28361239e565b8511156121015760405162461bcd60e51b815260206004820152601d60248201527f455243343632363a2072656465656d206d6f7265207468616e206d61780000006044820152606401610c1a565b6121096130a1565b600061211486610b3a565b61010654909150808211156121355761212e828286613127565b915061214e565b816101066000828254612148919061468b565b90915550505b61215b338787858b6136bc565b509050612168600160c955565b949350505050565b600061217a612ab9565b6121838361237a565b8511156121d25760405162461bcd60e51b815260206004820152601f60248201527f455243343632363a207769746864726177206d6f7265207468616e206d6178006044820152606401610c1a565b6121da6130a1565b60006121e586610b65565b6101065490915080871115612206576121ff878286613127565b965061221f565b866101066000828254612219919061468b565b90915550505b61215b3387878a866136bc565b3360008181526066602090815260408083206001600160a01b0387168452909152812054909190838110156122c95760405162461bcd60e51b815260206004820152602560248201527f45524332303a2064656372656173656420616c6c6f77616e63652062656c6f7760448201527f207a65726f0000000000000000000000000000000000000000000000000000006064820152608401610c1a565b6122d6828686840361249a565b506001949350505050565b600033610b5b8185856128c5565b6000610b47826001612467565b6123046127df565b61010255565b6123126127df565b61010480547fffffffffffffffffffffff00ffffffffffffffffffffffffffffffffffffffff8116740100000000000000000000000000000000000000009182900460ff1615909102179055565b6000610b478260006125f2565b6123756127df565b60ff55565b6001600160a01b038116600090815260656020526040812054610b47906000612467565b6001600160a01b038116600090815260656020526040812054610b47565b6123c46127df565b60fe55565b6123d16127df565b6001600160a01b03811661244d5760405162461bcd60e51b815260206004820152602660248201527f4f776e61626c653a206e6577206f776e657220697320746865207a65726f206160448201527f64647265737300000000000000000000000000000000000000000000000000006064820152608401610c1a565b61245681612c68565b50565b6124616127df565b61010355565b60008061247360675490565b905080156124945761248f6124866108c9565b85908386613768565b612168565b83612168565b6001600160a01b0383166125155760405162461bcd60e51b8152602060048201526024808201527f45524332303a20617070726f76652066726f6d20746865207a65726f2061646460448201527f72657373000000000000000000000000000000000000000000000000000000006064820152608401610c1a565b6001600160a01b0382166125915760405162461bcd60e51b815260206004820152602260248201527f45524332303a20617070726f766520746f20746865207a65726f20616464726560448201527f73730000000000000000000000000000000000000000000000000000000000006064820152608401610c1a565b6001600160a01b0383811660008181526066602090815260408083209487168084529482529182902085905590518481527f8c5be1e5ebec7d5bd14f71427d1e84f3dd0314c0f7b2291e5b200ac8c7c3b925910160405180910390a3505050565b6000806125fe60675490565b905083158061260b575080155b6124945761248f8161261b6108c9565b86919086613768565b600054610100900460ff166126a15760405162461bcd60e51b815260206004820152602b60248201527f496e697469616c697a61626c653a20636f6e7472616374206973206e6f74206960448201527f6e697469616c697a696e670000000000000000000000000000000000000000006064820152608401610c1a565b611be633612c68565b600054610100900460ff166127275760405162461bcd60e51b815260206004820152602b60248201527f496e697469616c697a61626c653a20636f6e7472616374206973206e6f74206960448201527f6e697469616c697a696e670000000000000000000000000000000000000000006064820152608401610c1a565b606861273383826148c4565b506069611a0b82826148c4565b612749826137c5565b60fd80547fffffffffffffffffffffffff0000000000000000000000000000000000000000166001600160a01b03929092169190911790555061546060fe55600060ff5560646101025561010480547fffffffffffffff00000000ffffffffffffffffffffffffffffffffffffffffff1677093a800000000000000000000000000000000000000000001790556103e861010355565b6033546001600160a01b03163314611be65760405162461bcd60e51b815260206004820181905260248201527f4f776e61626c653a2063616c6c6572206973206e6f7420746865206f776e65726044820152606401610c1a565b6001600160a01b03838116600090815260666020908152604080832093861683529290522054600019811461208a57818110156128b85760405162461bcd60e51b815260206004820152601d60248201527f45524332303a20696e73756666696369656e7420616c6c6f77616e63650000006044820152606401610c1a565b61208a848484840361249a565b6001600160a01b0383166129415760405162461bcd60e51b815260206004820152602560248201527f45524332303a207472616e736665722066726f6d20746865207a65726f20616460448201527f64726573730000000000000000000000000000000000000000000000000000006064820152608401610c1a565b6001600160a01b0382166129bd5760405162461bcd60e51b815260206004820152602360248201527f45524332303a207472616e7366657220746f20746865207a65726f206164647260448201527f65737300000000000000000000000000000000000000000000000000000000006064820152608401610c1a565b6001600160a01b03831660009081526065602052604090205481811015612a4c5760405162461bcd60e51b815260206004820152602660248201527f45524332303a207472616e7366657220616d6f756e742065786365656473206260448201527f616c616e636500000000000000000000000000000000000000000000000000006064820152608401610c1a565b6001600160a01b0380851660008181526065602052604080822086860390559286168082529083902080548601905591517fddf252ad1be2c89b69c2b068fc378daa952ba7f163c4a11628f55a4df523b3ef90612aac9086815260200190565b60405180910390a361208a565b600260c95403612b0b5760405162461bcd60e51b815260206004820152601f60248201527f5265656e7472616e637947756172643a207265656e7472616e742063616c6c006044820152606401610c1a565b600260c955565b6040516001600160a01b038316602482015260448101829052611a0b9084907fa9059cbb00000000000000000000000000000000000000000000000000000000906064015b604080517fffffffffffffffffffffffffffffffffffffffffffffffffffffffffffffffe08184030181529190526020810180517bffffffffffffffffffffffffffffffffffffffffffffffffffffffff167fffffffff000000000000000000000000000000000000000000000000000000009093169290921790915261384b565b600080612be46108c9565b1180612bf05750606754155b905090565b6000612c00826114fd565b831115612c4f5760405162461bcd60e51b815260206004820152601e60248201527f455243343632363a206465706f736974206d6f7265207468616e206d617800006044820152606401610c1a565b6000612c5a84612360565b9050610dad33848684613930565b603380546001600160a01b038381167fffffffffffffffffffffffff0000000000000000000000000000000000000000831681179093556040519116919082907f8be0079c531659141344cd1fd0a4f28419497f9722a3daafe3b4186f6b6457e090600090a35050565b801580612d6557506040517fdd62ed3e0000000000000000000000000000000000000000000000000000000081523060048201526001600160a01b03838116602483015284169063dd62ed3e90604401602060405180830381865afa158015612d3f573d6000803e3d6000fd5b505050506040513d601f19601f82011682018060405250810190612d6391906145f2565b155b612dd75760405162461bcd60e51b815260206004820152603660248201527f5361666545524332303a20617070726f76652066726f6d206e6f6e2d7a65726f60448201527f20746f206e6f6e2d7a65726f20616c6c6f77616e6365000000000000000000006064820152608401610c1a565b6040516001600160a01b038316602482015260448101829052611a0b9084907f095ea7b30000000000000000000000000000000000000000000000000000000090606401612b57565b61010554640100000000900477ffffffffffffffffffffffffffffffffffffffffffffffff166000612e51426139ae565b6101055490915063ffffffff9081169082161015612e9b576040517f49f4cf9c00000000000000000000000000000000000000000000000000000000815260040160405180910390fd5b61010654612ec377ffffffffffffffffffffffffffffffffffffffffffffffff84168261463a565b61010655610104546000907501000000000000000000000000000000000000000000900463ffffffff1680612ef881866149a2565b612f0291906149bf565b612f0c91906149e2565b61010454909150612f3e906014907501000000000000000000000000000000000000000000900463ffffffff166149bf565b63ffffffff16612f4e8483614667565b63ffffffff161015612f8a5761010454612f87907501000000000000000000000000000000000000000000900463ffffffff16826149a2565b90505b612f93856139c5565b6101058054610104805463ffffffff808916790100000000000000000000000000000000000000000000000000027fffffff00000000ffffffffffffffffffffffffffffffffffffffffffffffffff9092169190911790915584167fffffffffffffffffffffffffffffffffffffffffffffffffffffffff0000000077ffffffffffffffffffffffffffffffffffffffffffffffff9490941664010000000002939093167fffffffff0000000000000000000000000000000000000000000000000000000090911617821790556040517f2fa39aac60d1c94cda4ab0e86ae9c0ffab5b926e5b827a4ccba1d9b5b2ef596e906130929088815260200190565b60405180910390a25050505050565b61010554640100000000900477ffffffffffffffffffffffffffffffffffffffffffffffff1660008190036130d35750565b6101055463ffffffff164210612456578061010660008282546130f6919061463a565b909155505061010580547fffffffff000000000000000000000000000000000000000000000000ffffffff16905550565b60008060fb80548060200260200160405190810160405280929190818152602001828054801561318057602002820191906000526020600020905b81546001600160a01b03168152600190910190602001808311613162575b50505050509050600060fb8054905067ffffffffffffffff8111156131a7576131a761484f565b60405190808252806020026020018201604052801561320557816020015b6131f2604051806060016040528060006001600160a01b0316815260200160008152602001600081525090565b8152602001906001900390816131c55790505b5090506000613214868861468b565b60fb54909150805b80156134795760008561323060018461468b565b81518110613240576132406145c3565b60200260200101516001600160a01b03166359356c5c6040518163ffffffff1660e01b8152600401602060405180830381865afa158015613285573d6000803e3d6000fd5b505050506040513d601f19601f820116820180604052508101906132a991906145f2565b9050801561346f576000866132bf60018561468b565b815181106132cf576132cf6145c3565b60200260200101516001600160a01b0316632059f6156040518163ffffffff1660e01b8152600401602060405180830381865afa158015613314573d6000803e3d6000fd5b505050506040513d601f19601f8201168201806040525081019061333891906145f2565b90506000828611613349578561334b565b825b9050600061337460975460ff740100000000000000000000000000000000000000009091041690565b61337f90600a614aee565b83856133a660975460ff740100000000000000000000000000000000000000009091041690565b6133b190600a614aee565b6133bb908661469e565b6133c591906146e4565b6133cf919061469e565b6133d991906146e4565b905060405180606001604052808a6001886133f4919061468b565b81518110613404576134046145c3565b60200260200101516001600160a01b03168152602001828152602001600081525088600187613433919061468b565b81518110613443576134436145c3565b6020908102919091010152613458828861468b565b96508660000361346b5750505050613479565b5050505b506000190161321c565b5082515b80156135a75760008461349160018461468b565b815181106134a1576134a16145c3565b6020026020010151600001516001600160a01b03161461359e57836134c760018361468b565b815181106134d7576134d76145c3565b6020026020010151600001516001600160a01b031663441a3e70856001846134ff919061468b565b8151811061350f5761350f6145c3565b60200260200101516020015186600185613529919061468b565b81518110613539576135396145c3565b6020026020010151604001516040518363ffffffff1660e01b815260040161356b929190918252602082015260400190565b600060405180830381600087803b15801561358557600080fd5b505af1158015613599573d6000803e3d6000fd5b505050505b6000190161347d565b506101055477ffffffffffffffffffffffffffffffffffffffffffffffff640100000000909104166135e16097546001600160a01b031690565b6040517f70a082310000000000000000000000000000000000000000000000000000000081523060048201526001600160a01b0391909116906370a0823190602401602060405180830381865afa158015613640573d6000803e3d6000fd5b505050506040513d601f19601f8201168201806040525081019061366491906145f2565b61366e919061468b565b9750858810156136aa576040517f9fdb3e0f00000000000000000000000000000000000000000000000000000000815260040160405180910390fd5b50506000610106555093949350505050565b826001600160a01b0316856001600160a01b0316146136e0576136e0838683612839565b6136ea83826139ec565b609754613701906001600160a01b03168584612b12565b826001600160a01b0316846001600160a01b0316866001600160a01b03167ffbde797d201c681b91056529119e0b02407c7bb96a4a2c75c01fc9667232c8db8585604051613759929190918252602082015260400190565b60405180910390a45050505050565b600080613776868686613b57565b9050600183600281111561378c5761378c614afd565b1480156137a95750600084806137a4576137a46146b5565b868809115b156137bc576137b960018261463a565b90505b95945050505050565b600054610100900460ff166138425760405162461bcd60e51b815260206004820152602b60248201527f496e697469616c697a61626c653a20636f6e7472616374206973206e6f74206960448201527f6e697469616c697a696e670000000000000000000000000000000000000000006064820152608401610c1a565b61245681613c06565b60006138a0826040518060400160405280602081526020017f5361666545524332303a206c6f772d6c6576656c2063616c6c206661696c6564815250856001600160a01b0316613d229092919063ffffffff16565b805190915015611a0b57808060200190518101906138be919061478a565b611a0b5760405162461bcd60e51b815260206004820152602a60248201527f5361666545524332303a204552433230206f7065726174696f6e20646964206e60448201527f6f742073756363656564000000000000000000000000000000000000000000006064820152608401610c1a565b609754613948906001600160a01b0316853085613d31565b6139528382613d82565b826001600160a01b0316846001600160a01b03167fdcbc1c05240f31ff3ad067ef1ee35ce4997762752e3a095284754544f4c709d784846040516139a0929190918252602082015260400190565b60405180910390a350505050565b600064010000000082106139c157600080fd5b5090565b6000780100000000000000000000000000000000000000000000000082106139c157600080fd5b6001600160a01b038216613a685760405162461bcd60e51b815260206004820152602160248201527f45524332303a206275726e2066726f6d20746865207a65726f2061646472657360448201527f73000000000000000000000000000000000000000000000000000000000000006064820152608401610c1a565b6001600160a01b03821660009081526065602052604090205481811015613af75760405162461bcd60e51b815260206004820152602260248201527f45524332303a206275726e20616d6f756e7420657863656564732062616c616e60448201527f63650000000000000000000000000000000000000000000000000000000000006064820152608401610c1a565b6001600160a01b03831660008181526065602090815260408083208686039055606780548790039055518581529192917fddf252ad1be2c89b69c2b068fc378daa952ba7f163c4a11628f55a4df523b3ef910160405180910390a3505050565b6000808060001985870985870292508281108382030391505080600003613b9157838281613b8757613b876146b5565b0492505050610dad565b808411613b9d57600080fd5b60008486880960026001871981018816978890046003810283188082028403028082028403028082028403028082028403028082028403029081029092039091026000889003889004909101858311909403939093029303949094049190911702949350505050565b600054610100900460ff16613c835760405162461bcd60e51b815260206004820152602b60248201527f496e697469616c697a61626c653a20636f6e7472616374206973206e6f74206960448201527f6e697469616c697a696e670000000000000000000000000000000000000000006064820152608401610c1a565b600080613c8f83613e43565b9150915081613c9f576012613ca1565b805b609780546001600160a01b039095167fffffffffffffffffffffffff000000000000000000000000000000000000000060ff939093167401000000000000000000000000000000000000000002929092167fffffffffffffffffffffff00000000000000000000000000000000000000000090951694909417179092555050565b60606121688484600085613f4d565b6040516001600160a01b038085166024830152831660448201526064810182905261208a9085907f23b872dd0000000000000000000000000000000000000000000000000000000090608401612b57565b6001600160a01b038216613dd85760405162461bcd60e51b815260206004820152601f60248201527f45524332303a206d696e7420746f20746865207a65726f2061646472657373006044820152606401610c1a565b8060676000828254613dea919061463a565b90915550506001600160a01b0382166000818152606560209081526040808320805486019055518481527fddf252ad1be2c89b69c2b068fc378daa952ba7f163c4a11628f55a4df523b3ef910160405180910390a35050565b60408051600481526024810182526020810180517bffffffffffffffffffffffffffffffffffffffffffffffffffffffff167f313ce5670000000000000000000000000000000000000000000000000000000017905290516000918291829182916001600160a01b03871691613eb891614b2c565b600060405180830381855afa9150503d8060008114613ef3576040519150601f19603f3d011682016040523d82523d6000602084013e613ef8565b606091505b5091509150818015613f0c57506020815110155b15613f4057600081806020019051810190613f2791906145f2565b905060ff8111613f3e576001969095509350505050565b505b5060009485945092505050565b606082471015613fc55760405162461bcd60e51b815260206004820152602660248201527f416464726573733a20696e73756666696369656e742062616c616e636520666f60448201527f722063616c6c00000000000000000000000000000000000000000000000000006064820152608401610c1a565b600080866001600160a01b03168587604051613fe19190614b2c565b60006040518083038185875af1925050503d806000811461401e576040519150601f19603f3d011682016040523d82523d6000602084013e614023565b606091505b50915091506140348783838761403f565b979650505050505050565b606083156140ae5782516000036140a7576001600160a01b0385163b6140a75760405162461bcd60e51b815260206004820152601d60248201527f416464726573733a2063616c6c20746f206e6f6e2d636f6e74726163740000006044820152606401610c1a565b5081612168565b61216883838151156140c35781518083602001fd5b8060405162461bcd60e51b8152600401610c1a9190614188565b828054828255906000526020600020908101928215614148579160200282015b828111156141485781547fffffffffffffffffffffffff0000000000000000000000000000000000000000166001600160a01b038435161782556020909201916001909101906140fd565b506139c19291505b808211156139c15760008155600101614150565b60005b8381101561417f578181015183820152602001614167565b50506000910152565b60208152600082518060208401526141a7816040850160208701614164565b601f017fffffffffffffffffffffffffffffffffffffffffffffffffffffffffffffffe0169190910160400192915050565b6000602082840312156141eb57600080fd5b5035919050565b80356001600160a01b038116811461420957600080fd5b919050565b6000806040838503121561422157600080fd5b61422a836141f2565b946020939093013593505050565b60008083601f84011261424a57600080fd5b50813567ffffffffffffffff81111561426257600080fd5b60208301915083602082850101111561427a57600080fd5b9250929050565b6000806000806000806080878903121561429a57600080fd5b6142a3876141f2565b95506142b1602088016141f2565b9450604087013567ffffffffffffffff808211156142ce57600080fd5b6142da8a838b01614238565b909650945060608901359150808211156142f357600080fd5b5061430089828a01614238565b979a9699509497509295939492505050565b60006020828403121561432457600080fd5b610dad826141f2565b60008060006060848603121561434257600080fd5b61434b846141f2565b9250614359602085016141f2565b9150604084013590509250925092565b60008083601f84011261437b57600080fd5b50813567ffffffffffffffff81111561439357600080fd5b60208301915083602060608302850101111561427a57600080fd5b60008083601f8401126143c057600080fd5b50813567ffffffffffffffff8111156143d857600080fd5b6020830191508360208260051b850101111561427a57600080fd5b6000806000806000806060878903121561440c57600080fd5b863567ffffffffffffffff8082111561442457600080fd5b6144308a838b01614369565b9098509650602089013591508082111561444957600080fd5b6144558a838b01614369565b9096509450604089013591508082111561446e57600080fd5b5061430089828a016143ae565b6000806020838503121561448e57600080fd5b823567ffffffffffffffff8111156144a557600080fd5b6144b1858286016143ae565b90969095509350505050565b600080604083850312156144d057600080fd5b823591506144e0602084016141f2565b90509250929050565b600080600080604085870312156144ff57600080fd5b843567ffffffffffffffff8082111561451757600080fd5b614523888389016143ae565b9096509450602087013591508082111561453c57600080fd5b50614549878288016143ae565b95989497509550505050565b6000806000806080858703121561456b57600080fd5b8435935061457b602086016141f2565b9250614589604086016141f2565b9396929550929360600135925050565b600080604083850312156145ac57600080fd5b6145b5836141f2565b91506144e0602084016141f2565b7f4e487b7100000000000000000000000000000000000000000000000000000000600052603260045260246000fd5b60006020828403121561460457600080fd5b5051919050565b7f4e487b7100000000000000000000000000000000000000000000000000000000600052601160045260246000fd5b80820180821115610b4757610b4761460b565b600060001982036146605761466061460b565b5060010190565b63ffffffff8281168282160390808211156146845761468461460b565b5092915050565b81810381811115610b4757610b4761460b565b8082028115828204841417610b4757610b4761460b565b7f4e487b7100000000000000000000000000000000000000000000000000000000600052601260045260246000fd5b6000826146f3576146f36146b5565b500490565b600181811c9082168061470c57607f821691505b602082108103614745577f4e487b7100000000000000000000000000000000000000000000000000000000600052602260045260246000fd5b50919050565b8183823760009101908152919050565b7f4e487b7100000000000000000000000000000000000000000000000000000000600052603160045260246000fd5b60006020828403121561479c57600080fd5b81518015158114610dad57600080fd5b600082357fffffffffffffffffffffffffffffffffffffffffffffffffffffffffffffffa18336030181126147e057600080fd5b9190910192915050565b60008083357fffffffffffffffffffffffffffffffffffffffffffffffffffffffffffffffe184360301811261481f57600080fd5b83018035915067ffffffffffffffff82111561483a57600080fd5b60200191503681900382131561427a57600080fd5b7f4e487b7100000000000000000000000000000000000000000000000000000000600052604160045260246000fd5b601f821115611a0b57600081815260208120601f850160051c810160208610156148a55750805b601f850160051c820191505b818110156113ed578281556001016148b1565b815167ffffffffffffffff8111156148de576148de61484f565b6148f2816148ec84546146f8565b8461487e565b602080601f831160018114614927576000841561490f5750858301515b600019600386901b1c1916600185901b1785556113ed565b6000858152602081207fffffffffffffffffffffffffffffffffffffffffffffffffffffffffffffffe08616915b8281101561497457888601518255948401946001909101908401614955565b50858210156149925787850151600019600388901b60f8161c191681555b5050505050600190811b01905550565b63ffffffff8181168382160190808211156146845761468461460b565b600063ffffffff808416806149d6576149d66146b5565b92169190910492915050565b63ffffffff818116838216028082169190828114614a0257614a0261460b565b505092915050565b600181815b80851115614a45578160001904821115614a2b57614a2b61460b565b80851615614a3857918102915b93841c9390800290614a0f565b509250929050565b600082614a5c57506001610b47565b81614a6957506000610b47565b8160018114614a7f5760028114614a8957614aa5565b6001915050610b47565b60ff841115614a9a57614a9a61460b565b50506001821b610b47565b5060208310610133831016604e8410600b8410161715614ac8575081810a610b47565b614ad28383614a0a565b8060001904821115614ae657614ae661460b565b029392505050565b6000610dad60ff841683614a4d565b7f4e487b7100000000000000000000000000000000000000000000000000000000600052602160045260246000fd5b600082516147e081846020870161416456",
    "linkReferences": {}
  },
  "methodIdentifiers": {
    "LIFI_DIAMOND()": "020a1f7d",
    "adapters(uint256)": "4ef501ac",
    "addAdapter(address)": "60d54d41",
    "addAdapters(address[])": "67458cca",
    "adjust((address,uint256,uint256)[],(address,uint256,uint256)[],address[])": "2fd4bee3",
    "adjustInInterval()": "b042d03d",
    "adjustOutInterval()": "03a8b924",
    "allowance(address,address)": "dd62ed3e",
    "approve(address,uint256)": "095ea7b3",
    "asset()": "38d52e0f",
    "balanceOf(address)": "70a08231",
    "changeAdapterHealthFactor(address,uint256)": "3be8c924",
    "changeAdjustInInterval(uint256)": "f1a08db3",
    "changeAdjustOutInterval(uint256)": "c7a1e0c4",
    "changeFeePercentage(uint256)": "fae14192",
    "changeFeeRecipient(address)": "23604071",
    "convertToAssets(uint256)": "07a2d13a",
    "convertToShares(uint256)": "c6e6f592",
    "decimals()": "313ce567",
    "decreaseAllowance(address,uint256)": "a457c2d7",
    "deposit(uint256,address)": "6e553f65",
    "doHardWork(address[],(address,uint256,bytes)[])": "94dcb7ba",
    "feePercentage()": "a001ecdd",
    "feeRecipient()": "46904840",
    "increaseAllowance(address,uint256)": "39509351",
    "initialize(address,address,string,string)": "2016a0d2",
    "isAdapter(address)": "68c18beb",
    "lastAdjustIn()": "d716290d",
    "lastAdjustOut()": "a6ce945e",
    "lastRewardAmount()": "bafedcaa",
    "lastSync()": "6917516b",
    "maxDeposit(address)": "402d267d",
    "maxMint(address)": "c63d75b6",
    "maxRedeem(address)": "d905777e",
    "maxWithdraw(address)": "ce96cb77",
    "minPercentage()": "0266782e",
    "monitor()": "3241992a",
    "name()": "06fdde03",
    "owner()": "8da5cb5b",
    "paused()": "5c975abb",
    "previewDeposit(uint256)": "ef8b30f7",
    "previewMint(uint256)": "b3d7f6b9",
    "previewRedeem(uint256)": "4cdad506",
    "previewWithdraw(uint256)": "0a28a477",
    "redeem(uint256,address,address,uint256)": "9f40a7b3",
    "removeAdapter(address)": "585cd34b",
    "renounceOwnership()": "715018a6",
    "rewardsCycleEnd()": "e7ff69f1",
    "rewardsCycleLength()": "6fcf5e5f",
    "setMinimumPercentage(uint256)": "be0da3c7",
    "setMonitor(address)": "5cd82390",
    "storedTotalAssets()": "61c1c5e9",
    "symbol()": "95d89b41",
    "togglePause()": "c4ae3168",
    "totalAssets()": "01e1d114",
    "totalSupply()": "18160ddd",
    "transfer(address,uint256)": "a9059cbb",
    "transferFrom(address,address,uint256)": "23b872dd",
    "transferOwnership(address)": "f2fde38b",
    "withdraw(uint256,address,address,uint256)": "a318c1a4"
  },
  "id": 78
}